{
	"contracts/KipuBank.sol": {
		"KipuBank": {
			"abi": [
				{
					"inputs": [
						{
							"internalType": "uint256",
							"name": "_bankCap",
							"type": "uint256"
						},
						{
							"internalType": "uint256",
							"name": "_withdrawLimit",
							"type": "uint256"
						}
					],
					"stateMutability": "nonpayable",
					"type": "constructor"
				},
				{
					"inputs": [
						{
							"internalType": "uint256",
							"name": "requested",
							"type": "uint256"
						},
						{
							"internalType": "uint256",
							"name": "available",
							"type": "uint256"
						}
					],
					"name": "ExceedsBankCap",
					"type": "error"
				},
				{
					"inputs": [
						{
							"internalType": "uint256",
							"name": "requested",
							"type": "uint256"
						},
						{
							"internalType": "uint256",
							"name": "limit",
							"type": "uint256"
						}
					],
					"name": "ExceedsWithdrawLimit",
					"type": "error"
				},
				{
					"inputs": [
						{
							"internalType": "uint256",
							"name": "requested",
							"type": "uint256"
						},
						{
							"internalType": "uint256",
							"name": "balance",
							"type": "uint256"
						}
					],
					"name": "InsufficientBalance",
					"type": "error"
				},
				{
					"inputs": [],
					"name": "OnlyOwner",
					"type": "error"
				},
				{
					"inputs": [],
					"name": "ZeroDeposit",
					"type": "error"
				},
				{
					"anonymous": false,
					"inputs": [
						{
							"indexed": true,
							"internalType": "address",
							"name": "user",
							"type": "address"
						},
						{
							"indexed": false,
							"internalType": "uint256",
							"name": "amount",
							"type": "uint256"
						},
						{
							"indexed": false,
							"internalType": "uint256",
							"name": "newBalance",
							"type": "uint256"
						}
					],
					"name": "Deposit",
					"type": "event"
				},
				{
					"anonymous": false,
					"inputs": [
						{
							"indexed": true,
							"internalType": "address",
							"name": "user",
							"type": "address"
						},
						{
							"indexed": false,
							"internalType": "uint256",
							"name": "amount",
							"type": "uint256"
						},
						{
							"indexed": false,
							"internalType": "uint256",
							"name": "newBalance",
							"type": "uint256"
						}
					],
					"name": "Withdrawal",
					"type": "event"
				},
				{
					"inputs": [
						{
							"internalType": "address",
							"name": "user",
							"type": "address"
						}
					],
					"name": "balanceOf",
					"outputs": [
						{
							"internalType": "uint256",
							"name": "",
							"type": "uint256"
						}
					],
					"stateMutability": "view",
					"type": "function"
				},
				{
					"inputs": [],
					"name": "bankCap",
					"outputs": [
						{
							"internalType": "uint256",
							"name": "",
							"type": "uint256"
						}
					],
					"stateMutability": "view",
					"type": "function"
				},
				{
					"inputs": [],
					"name": "deposit",
					"outputs": [],
					"stateMutability": "payable",
					"type": "function"
				},
				{
					"inputs": [],
					"name": "depositCount",
					"outputs": [
						{
							"internalType": "uint256",
							"name": "",
							"type": "uint256"
						}
					],
					"stateMutability": "view",
					"type": "function"
				},
				{
					"inputs": [
						{
							"internalType": "uint256",
							"name": "",
							"type": "uint256"
						}
					],
					"name": "increaseBankCapForDemo",
					"outputs": [],
					"stateMutability": "nonpayable",
					"type": "function"
				},
				{
					"inputs": [],
					"name": "owner",
					"outputs": [
						{
							"internalType": "address",
							"name": "",
							"type": "address"
						}
					],
					"stateMutability": "view",
					"type": "function"
				},
				{
					"inputs": [],
					"name": "totalDeposited",
					"outputs": [
						{
							"internalType": "uint256",
							"name": "",
							"type": "uint256"
						}
					],
					"stateMutability": "view",
					"type": "function"
				},
				{
					"inputs": [
						{
							"internalType": "uint256",
							"name": "amount",
							"type": "uint256"
						}
					],
					"name": "withdraw",
					"outputs": [],
					"stateMutability": "nonpayable",
					"type": "function"
				},
				{
					"inputs": [],
					"name": "withdrawLimit",
					"outputs": [
						{
							"internalType": "uint256",
							"name": "",
							"type": "uint256"
						}
					],
					"stateMutability": "view",
					"type": "function"
				},
				{
					"inputs": [],
					"name": "withdrawalCount",
					"outputs": [
						{
							"internalType": "uint256",
							"name": "",
							"type": "uint256"
						}
					],
					"stateMutability": "view",
					"type": "function"
				}
			],
			"devdoc": {
				"author": "Daniela Silvana Tochi",
				"details": "Built for Module 2 final. Designed for Remix + MetaMask deployment on Sepolia.",
				"kind": "dev",
				"methods": {
					"constructor": {
						"params": {
							"_bankCap": "Límite global de depósito (en wei)",
							"_withdrawLimit": "Límite por retiro por tx (en wei)"
						}
					},
					"withdraw(uint256)": {
						"params": {
							"amount": "Cantidad a retirar (wei)"
						}
					}
				},
				"title": "KipuBank",
				"version": 1
			},
			"evm": {
				"assembly": "    /* \"contracts/KipuBank.sol\":328:4028  contract KipuBank {... */\n  mstore(0x40, 0xe0)\n    /* \"contracts/KipuBank.sol\":1906:2067  constructor(uint256 _bankCap, uint256 _withdrawLimit) {... */\n  callvalue\n  dup1\n  iszero\n  tag_1\n  jumpi\n  revert(0x00, 0x00)\ntag_1:\n  pop\n  mload(0x40)\n  sub(codesize, bytecodeSize)\n  dup1\n  bytecodeSize\n  dup4\n  codecopy\n  dup2\n  dup2\n  add\n  0x40\n  mstore\n  dup2\n  add\n  swap1\n  tag_2\n  swap2\n  swap1\n  tag_3\n  jump\t// in\ntag_2:\n    /* \"contracts/KipuBank.sol\":1979:1989  msg.sender */\n  caller\n    /* \"contracts/KipuBank.sol\":1971:1989  owner = msg.sender */\n  0xffffffffffffffffffffffffffffffffffffffff\n  and\n  0xc0\n  dup2\n  0xffffffffffffffffffffffffffffffffffffffff\n  and\n  dup2\n  mstore\n  pop\n  pop\n    /* \"contracts/KipuBank.sol\":2010:2018  _bankCap */\n  dup2\n    /* \"contracts/KipuBank.sol\":2000:2018  bankCap = _bankCap */\n  0x80\n  dup2\n  dup2\n  mstore\n  pop\n  pop\n    /* \"contracts/KipuBank.sol\":2045:2059  _withdrawLimit */\n  dup1\n    /* \"contracts/KipuBank.sol\":2029:2059  withdrawLimit = _withdrawLimit */\n  0xa0\n  dup2\n  dup2\n  mstore\n  pop\n  pop\n    /* \"contracts/KipuBank.sol\":1906:2067  constructor(uint256 _bankCap, uint256 _withdrawLimit) {... */\n  pop\n  pop\n    /* \"contracts/KipuBank.sol\":328:4028  contract KipuBank {... */\n  jump(tag_6)\n    /* \"#utility.yul\":88:205   */\ntag_8:\n    /* \"#utility.yul\":197:198   */\n  0x00\n    /* \"#utility.yul\":194:195   */\n  0x00\n    /* \"#utility.yul\":187:199   */\n  revert\n    /* \"#utility.yul\":334:411   */\ntag_10:\n    /* \"#utility.yul\":371:378   */\n  0x00\n    /* \"#utility.yul\":400:405   */\n  dup2\n    /* \"#utility.yul\":389:405   */\n  swap1\n  pop\n    /* \"#utility.yul\":334:411   */\n  swap2\n  swap1\n  pop\n  jump\t// out\n    /* \"#utility.yul\":417:539   */\ntag_11:\n    /* \"#utility.yul\":490:514   */\n  tag_19\n    /* \"#utility.yul\":508:513   */\n  dup2\n    /* \"#utility.yul\":490:514   */\n  tag_10\n  jump\t// in\ntag_19:\n    /* \"#utility.yul\":483:488   */\n  dup2\n    /* \"#utility.yul\":480:515   */\n  eq\n    /* \"#utility.yul\":470:533   */\n  tag_20\n  jumpi\n    /* \"#utility.yul\":529:530   */\n  0x00\n    /* \"#utility.yul\":526:527   */\n  0x00\n    /* \"#utility.yul\":519:531   */\n  revert\n    /* \"#utility.yul\":470:533   */\ntag_20:\n    /* \"#utility.yul\":417:539   */\n  pop\n  jump\t// out\n    /* \"#utility.yul\":545:688   */\ntag_12:\n    /* \"#utility.yul\":602:607   */\n  0x00\n    /* \"#utility.yul\":633:639   */\n  dup2\n    /* \"#utility.yul\":627:640   */\n  mload\n    /* \"#utility.yul\":618:640   */\n  swap1\n  pop\n    /* \"#utility.yul\":649:682   */\n  tag_22\n    /* \"#utility.yul\":676:681   */\n  dup2\n    /* \"#utility.yul\":649:682   */\n  tag_11\n  jump\t// in\ntag_22:\n    /* \"#utility.yul\":545:688   */\n  swap3\n  swap2\n  pop\n  pop\n  jump\t// out\n    /* \"#utility.yul\":694:1201   */\ntag_3:\n    /* \"#utility.yul\":773:779   */\n  0x00\n    /* \"#utility.yul\":781:787   */\n  0x00\n    /* \"#utility.yul\":830:832   */\n  0x40\n    /* \"#utility.yul\":818:827   */\n  dup4\n    /* \"#utility.yul\":809:816   */\n  dup6\n    /* \"#utility.yul\":805:828   */\n  sub\n    /* \"#utility.yul\":801:833   */\n  slt\n    /* \"#utility.yul\":798:917   */\n  iszero\n  tag_24\n  jumpi\n    /* \"#utility.yul\":836:915   */\n  tag_25\n  tag_8\n  jump\t// in\ntag_25:\n    /* \"#utility.yul\":798:917   */\ntag_24:\n    /* \"#utility.yul\":956:957   */\n  0x00\n    /* \"#utility.yul\":981:1045   */\n  tag_26\n    /* \"#utility.yul\":1037:1044   */\n  dup6\n    /* \"#utility.yul\":1028:1034   */\n  dup3\n    /* \"#utility.yul\":1017:1026   */\n  dup7\n    /* \"#utility.yul\":1013:1035   */\n  add\n    /* \"#utility.yul\":981:1045   */\n  tag_12\n  jump\t// in\ntag_26:\n    /* \"#utility.yul\":971:1045   */\n  swap3\n  pop\n    /* \"#utility.yul\":927:1055   */\n  pop\n    /* \"#utility.yul\":1094:1096   */\n  0x20\n    /* \"#utility.yul\":1120:1184   */\n  tag_27\n    /* \"#utility.yul\":1176:1183   */\n  dup6\n    /* \"#utility.yul\":1167:1173   */\n  dup3\n    /* \"#utility.yul\":1156:1165   */\n  dup7\n    /* \"#utility.yul\":1152:1174   */\n  add\n    /* \"#utility.yul\":1120:1184   */\n  tag_12\n  jump\t// in\ntag_27:\n    /* \"#utility.yul\":1110:1184   */\n  swap2\n  pop\n    /* \"#utility.yul\":1065:1194   */\n  pop\n    /* \"#utility.yul\":694:1201   */\n  swap3\n  pop\n  swap3\n  swap1\n  pop\n  jump\t// out\n    /* \"contracts/KipuBank.sol\":328:4028  contract KipuBank {... */\ntag_6:\n  mload(0x80)\n  mload(0xa0)\n  mload(0xc0)\n  codecopy(0x00, dataOffset(sub_0), dataSize(sub_0))\n  0x00\n  assignImmutable(\"0x7880aec93413f117ef14bd4e6d130875ab2c7d7d55a064fac3c2f7bd51516380\")\n  0x00\n  assignImmutable(\"0xe4b1702d9298fee62dfeccc57d322a463ad55ca201256d01f62b45b2e1c21c10\")\n  0x00\n  assignImmutable(\"0xceebf77a833b30520287ddd9478ff51abbdffa30aa90a8d655dba0e8a79ce0c1\")\n  return(0x00, dataSize(sub_0))\nstop\n\nsub_0: assembly {\n        /* \"contracts/KipuBank.sol\":328:4028  contract KipuBank {... */\n      mstore(0x40, 0x80)\n      jumpi(tag_1, lt(calldatasize, 0x04))\n      shr(0xe0, calldataload(0x00))\n      dup1\n      0xd0e30db0\n      gt\n      tag_12\n      jumpi\n      dup1\n      0xd0e30db0\n      eq\n      tag_7\n      jumpi\n      dup1\n      0xd3dac873\n      eq\n      tag_8\n      jumpi\n      dup1\n      0xecbea24d\n      eq\n      tag_9\n      jumpi\n      dup1\n      0xf848d541\n      eq\n      tag_10\n      jumpi\n      dup1\n      0xff50abdc\n      eq\n      tag_11\n      jumpi\n      jump(tag_1)\n    tag_12:\n      dup1\n      0x2dfdf0b5\n      eq\n      tag_2\n      jumpi\n      dup1\n      0x2e1a7d4d\n      eq\n      tag_3\n      jumpi\n      dup1\n      0x70a08231\n      eq\n      tag_4\n      jumpi\n      dup1\n      0x71706cbe\n      eq\n      tag_5\n      jumpi\n      dup1\n      0x8da5cb5b\n      eq\n      tag_6\n      jumpi\n    tag_1:\n      revert(0x00, 0x00)\n        /* \"contracts/KipuBank.sol\":908:935  uint256 public depositCount */\n    tag_2:\n      callvalue\n      dup1\n      iszero\n      tag_13\n      jumpi\n      revert(0x00, 0x00)\n    tag_13:\n      pop\n      tag_14\n      tag_15\n      jump\t// in\n    tag_14:\n      mload(0x40)\n      tag_16\n      swap2\n      swap1\n      tag_17\n      jump\t// in\n    tag_16:\n      mload(0x40)\n      dup1\n      swap2\n      sub\n      swap1\n      return\n        /* \"contracts/KipuBank.sol\":2711:3317  function withdraw(uint256 amount) external {... */\n    tag_3:\n      callvalue\n      dup1\n      iszero\n      tag_18\n      jumpi\n      revert(0x00, 0x00)\n    tag_18:\n      pop\n      tag_19\n      0x04\n      dup1\n      calldatasize\n      sub\n      dup2\n      add\n      swap1\n      tag_20\n      swap2\n      swap1\n      tag_21\n      jump\t// in\n    tag_20:\n      tag_22\n      jump\t// in\n    tag_19:\n      stop\n        /* \"contracts/KipuBank.sol\":3385:3490  function balanceOf(address user) external view returns (uint256) {... */\n    tag_4:\n      callvalue\n      dup1\n      iszero\n      tag_23\n      jumpi\n      revert(0x00, 0x00)\n    tag_23:\n      pop\n      tag_24\n      0x04\n      dup1\n      calldatasize\n      sub\n      dup2\n      add\n      swap1\n      tag_25\n      swap2\n      swap1\n      tag_26\n      jump\t// in\n    tag_25:\n      tag_27\n      jump\t// in\n    tag_24:\n      mload(0x40)\n      tag_28\n      swap2\n      swap1\n      tag_17\n      jump\t// in\n    tag_28:\n      mload(0x40)\n      dup1\n      swap2\n      sub\n      swap1\n      return\n        /* \"contracts/KipuBank.sol\":942:972  uint256 public withdrawalCount */\n    tag_5:\n      callvalue\n      dup1\n      iszero\n      tag_29\n      jumpi\n      revert(0x00, 0x00)\n    tag_29:\n      pop\n      tag_30\n      tag_31\n      jump\t// in\n    tag_30:\n      mload(0x40)\n      tag_32\n      swap2\n      swap1\n      tag_17\n      jump\t// in\n    tag_32:\n      mload(0x40)\n      dup1\n      swap2\n      sub\n      swap1\n      return\n        /* \"contracts/KipuBank.sol\":641:671  address public immutable owner */\n    tag_6:\n      callvalue\n      dup1\n      iszero\n      tag_33\n      jumpi\n      revert(0x00, 0x00)\n    tag_33:\n      pop\n      tag_34\n      tag_35\n      jump\t// in\n    tag_34:\n      mload(0x40)\n      tag_36\n      swap2\n      swap1\n      tag_37\n      jump\t// in\n    tag_36:\n      mload(0x40)\n      dup1\n      swap2\n      sub\n      swap1\n      return\n        /* \"contracts/KipuBank.sol\":2143:2573  function deposit() external payable nonZero {... */\n    tag_7:\n      tag_38\n      tag_39\n      jump\t// in\n    tag_38:\n      stop\n        /* \"contracts/KipuBank.sol\":3765:4025  function increaseBankCapForDemo(uint256 /*newCap*/) external onlyOwner {... */\n    tag_8:\n      callvalue\n      dup1\n      iszero\n      tag_40\n      jumpi\n      revert(0x00, 0x00)\n    tag_40:\n      pop\n      tag_41\n      0x04\n      dup1\n      calldatasize\n      sub\n      dup2\n      add\n      swap1\n      tag_42\n      swap2\n      swap1\n      tag_21\n      jump\t// in\n    tag_42:\n      tag_43\n      jump\t// in\n    tag_41:\n      stop\n        /* \"contracts/KipuBank.sol\":427:459  uint256 public immutable bankCap */\n    tag_9:\n      callvalue\n      dup1\n      iszero\n      tag_44\n      jumpi\n      revert(0x00, 0x00)\n    tag_44:\n      pop\n      tag_45\n      tag_46\n      jump\t// in\n    tag_45:\n      mload(0x40)\n      tag_47\n      swap2\n      swap1\n      tag_17\n      jump\t// in\n    tag_47:\n      mload(0x40)\n      dup1\n      swap2\n      sub\n      swap1\n      return\n        /* \"contracts/KipuBank.sol\":552:590  uint256 public immutable withdrawLimit */\n    tag_10:\n      callvalue\n      dup1\n      iszero\n      tag_48\n      jumpi\n      revert(0x00, 0x00)\n    tag_48:\n      pop\n      tag_49\n      tag_50\n      jump\t// in\n    tag_49:\n      mload(0x40)\n      tag_51\n      swap2\n      swap1\n      tag_17\n      jump\t// in\n    tag_51:\n      mload(0x40)\n      dup1\n      swap2\n      sub\n      swap1\n      return\n        /* \"contracts/KipuBank.sol\":827:856  uint256 public totalDeposited */\n    tag_11:\n      callvalue\n      dup1\n      iszero\n      tag_52\n      jumpi\n      revert(0x00, 0x00)\n    tag_52:\n      pop\n      tag_53\n      tag_54\n      jump\t// in\n    tag_53:\n      mload(0x40)\n      tag_55\n      swap2\n      swap1\n      tag_17\n      jump\t// in\n    tag_55:\n      mload(0x40)\n      dup1\n      swap2\n      sub\n      swap1\n      return\n        /* \"contracts/KipuBank.sol\":908:935  uint256 public depositCount */\n    tag_15:\n      sload(0x02)\n      dup2\n      jump\t// out\n        /* \"contracts/KipuBank.sol\":2711:3317  function withdraw(uint256 amount) external {... */\n    tag_22:\n        /* \"contracts/KipuBank.sol\":2778:2791  withdrawLimit */\n      immutable(\"0xe4b1702d9298fee62dfeccc57d322a463ad55ca201256d01f62b45b2e1c21c10\")\n        /* \"contracts/KipuBank.sol\":2769:2775  amount */\n      dup2\n        /* \"contracts/KipuBank.sol\":2769:2791  amount > withdrawLimit */\n      gt\n        /* \"contracts/KipuBank.sol\":2765:2843  if (amount > withdrawLimit) revert ExceedsWithdrawLimit(amount, withdrawLimit) */\n      iszero\n      tag_57\n      jumpi\n        /* \"contracts/KipuBank.sol\":2821:2827  amount */\n      dup1\n        /* \"contracts/KipuBank.sol\":2829:2842  withdrawLimit */\n      immutable(\"0xe4b1702d9298fee62dfeccc57d322a463ad55ca201256d01f62b45b2e1c21c10\")\n        /* \"contracts/KipuBank.sol\":2800:2843  ExceedsWithdrawLimit(amount, withdrawLimit) */\n      mload(0x40)\n      0x9c8983d900000000000000000000000000000000000000000000000000000000\n      dup2\n      mstore\n      0x04\n      add\n      tag_58\n      swap3\n      swap2\n      swap1\n      tag_59\n      jump\t// in\n    tag_58:\n      mload(0x40)\n      dup1\n      swap2\n      sub\n      swap1\n      revert\n        /* \"contracts/KipuBank.sol\":2765:2843  if (amount > withdrawLimit) revert ExceedsWithdrawLimit(amount, withdrawLimit) */\n    tag_57:\n        /* \"contracts/KipuBank.sol\":2867:2875  balances */\n      0x00\n        /* \"contracts/KipuBank.sol\":2867:2887  balances[msg.sender] */\n      0x00\n        /* \"contracts/KipuBank.sol\":2876:2886  msg.sender */\n      caller\n        /* \"contracts/KipuBank.sol\":2867:2887  balances[msg.sender] */\n      0xffffffffffffffffffffffffffffffffffffffff\n      and\n      0xffffffffffffffffffffffffffffffffffffffff\n      and\n      dup2\n      mstore\n      0x20\n      add\n      swap1\n      dup2\n      mstore\n      0x20\n      add\n      0x00\n      keccak256\n      sload\n        /* \"contracts/KipuBank.sol\":2858:2864  amount */\n      dup2\n        /* \"contracts/KipuBank.sol\":2858:2887  amount > balances[msg.sender] */\n      gt\n        /* \"contracts/KipuBank.sol\":2854:2945  if (amount > balances[msg.sender]) revert InsufficientBalance(amount, balances[msg.sender]) */\n      iszero\n      tag_60\n      jumpi\n        /* \"contracts/KipuBank.sol\":2916:2922  amount */\n      dup1\n        /* \"contracts/KipuBank.sol\":2924:2932  balances */\n      0x00\n        /* \"contracts/KipuBank.sol\":2924:2944  balances[msg.sender] */\n      0x00\n        /* \"contracts/KipuBank.sol\":2933:2943  msg.sender */\n      caller\n        /* \"contracts/KipuBank.sol\":2924:2944  balances[msg.sender] */\n      0xffffffffffffffffffffffffffffffffffffffff\n      and\n      0xffffffffffffffffffffffffffffffffffffffff\n      and\n      dup2\n      mstore\n      0x20\n      add\n      swap1\n      dup2\n      mstore\n      0x20\n      add\n      0x00\n      keccak256\n      sload\n        /* \"contracts/KipuBank.sol\":2896:2945  InsufficientBalance(amount, balances[msg.sender]) */\n      mload(0x40)\n      0xcf47918100000000000000000000000000000000000000000000000000000000\n      dup2\n      mstore\n      0x04\n      add\n      tag_61\n      swap3\n      swap2\n      swap1\n      tag_59\n      jump\t// in\n    tag_61:\n      mload(0x40)\n      dup1\n      swap2\n      sub\n      swap1\n      revert\n        /* \"contracts/KipuBank.sol\":2854:2945  if (amount > balances[msg.sender]) revert InsufficientBalance(amount, balances[msg.sender]) */\n    tag_60:\n        /* \"contracts/KipuBank.sol\":3002:3008  amount */\n      dup1\n        /* \"contracts/KipuBank.sol\":2978:2986  balances */\n      0x00\n        /* \"contracts/KipuBank.sol\":2978:2998  balances[msg.sender] */\n      0x00\n        /* \"contracts/KipuBank.sol\":2987:2997  msg.sender */\n      caller\n        /* \"contracts/KipuBank.sol\":2978:2998  balances[msg.sender] */\n      0xffffffffffffffffffffffffffffffffffffffff\n      and\n      0xffffffffffffffffffffffffffffffffffffffff\n      and\n      dup2\n      mstore\n      0x20\n      add\n      swap1\n      dup2\n      mstore\n      0x20\n      add\n      0x00\n      keccak256\n      0x00\n        /* \"contracts/KipuBank.sol\":2978:3008  balances[msg.sender] -= amount */\n      dup3\n      dup3\n      sload\n      tag_62\n      swap2\n      swap1\n      tag_63\n      jump\t// in\n    tag_62:\n      swap3\n      pop\n      pop\n      dup2\n      swap1\n      sstore\n      pop\n        /* \"contracts/KipuBank.sol\":3037:3043  amount */\n      dup1\n        /* \"contracts/KipuBank.sol\":3019:3033  totalDeposited */\n      0x01\n      0x00\n        /* \"contracts/KipuBank.sol\":3019:3043  totalDeposited -= amount */\n      dup3\n      dup3\n      sload\n      tag_64\n      swap2\n      swap1\n      tag_63\n      jump\t// in\n    tag_64:\n      swap3\n      pop\n      pop\n      dup2\n      swap1\n      sstore\n      pop\n        /* \"contracts/KipuBank.sol\":3054:3069  withdrawalCount */\n      0x03\n      0x00\n        /* \"contracts/KipuBank.sol\":3054:3071  withdrawalCount++ */\n      dup2\n      sload\n      dup1\n      swap3\n      swap2\n      swap1\n      tag_65\n      swap1\n      tag_66\n      jump\t// in\n    tag_65:\n      swap2\n      swap1\n      pop\n      sstore\n      pop\n        /* \"contracts/KipuBank.sol\":3132:3144  bool success */\n      0x00\n        /* \"contracts/KipuBank.sol\":3158:3168  msg.sender */\n      caller\n        /* \"contracts/KipuBank.sol\":3150:3174  payable(msg.sender).call */\n      0xffffffffffffffffffffffffffffffffffffffff\n      and\n        /* \"contracts/KipuBank.sol\":3182:3188  amount */\n      dup3\n        /* \"contracts/KipuBank.sol\":3150:3193  payable(msg.sender).call{value: amount}(\"\") */\n      mload(0x40)\n      tag_67\n      swap1\n      tag_68\n      jump\t// in\n    tag_67:\n      0x00\n      mload(0x40)\n      dup1\n      dup4\n      sub\n      dup2\n      dup6\n      dup8\n      gas\n      call\n      swap3\n      pop\n      pop\n      pop\n      returndatasize\n      dup1\n      0x00\n      dup2\n      eq\n      tag_71\n      jumpi\n      mload(0x40)\n      swap2\n      pop\n      and(add(returndatasize, 0x3f), not(0x1f))\n      dup3\n      add\n      0x40\n      mstore\n      returndatasize\n      dup3\n      mstore\n      returndatasize\n      0x00\n      0x20\n      dup5\n      add\n      returndatacopy\n      jump(tag_70)\n    tag_71:\n      0x60\n      swap2\n      pop\n    tag_70:\n      pop\n        /* \"contracts/KipuBank.sol\":3131:3193  (bool success, ) = payable(msg.sender).call{value: amount}(\"\") */\n      pop\n      swap1\n      pop\n        /* \"contracts/KipuBank.sol\":3212:3219  success */\n      dup1\n        /* \"contracts/KipuBank.sol\":3204:3239  require(success, \"Transfer failed\") */\n      tag_72\n      jumpi\n      mload(0x40)\n      0x08c379a000000000000000000000000000000000000000000000000000000000\n      dup2\n      mstore\n      0x04\n      add\n      tag_73\n      swap1\n      tag_74\n      jump\t// in\n    tag_73:\n      mload(0x40)\n      dup1\n      swap2\n      sub\n      swap1\n      revert\n    tag_72:\n        /* \"contracts/KipuBank.sol\":3268:3278  msg.sender */\n      caller\n        /* \"contracts/KipuBank.sol\":3257:3309  Withdrawal(msg.sender, amount, balances[msg.sender]) */\n      0xffffffffffffffffffffffffffffffffffffffff\n      and\n      0xdf273cb619d95419a9cd0ec88123a0538c85064229baa6363788f743fff90deb\n        /* \"contracts/KipuBank.sol\":3280:3286  amount */\n      dup4\n        /* \"contracts/KipuBank.sol\":3288:3296  balances */\n      0x00\n        /* \"contracts/KipuBank.sol\":3288:3308  balances[msg.sender] */\n      0x00\n        /* \"contracts/KipuBank.sol\":3297:3307  msg.sender */\n      caller\n        /* \"contracts/KipuBank.sol\":3288:3308  balances[msg.sender] */\n      0xffffffffffffffffffffffffffffffffffffffff\n      and\n      0xffffffffffffffffffffffffffffffffffffffff\n      and\n      dup2\n      mstore\n      0x20\n      add\n      swap1\n      dup2\n      mstore\n      0x20\n      add\n      0x00\n      keccak256\n      sload\n        /* \"contracts/KipuBank.sol\":3257:3309  Withdrawal(msg.sender, amount, balances[msg.sender]) */\n      mload(0x40)\n      tag_75\n      swap3\n      swap2\n      swap1\n      tag_59\n      jump\t// in\n    tag_75:\n      mload(0x40)\n      dup1\n      swap2\n      sub\n      swap1\n      log2\n        /* \"contracts/KipuBank.sol\":2754:3317  {... */\n      pop\n        /* \"contracts/KipuBank.sol\":2711:3317  function withdraw(uint256 amount) external {... */\n      pop\n      jump\t// out\n        /* \"contracts/KipuBank.sol\":3385:3490  function balanceOf(address user) external view returns (uint256) {... */\n    tag_27:\n        /* \"contracts/KipuBank.sol\":3441:3448  uint256 */\n      0x00\n        /* \"contracts/KipuBank.sol\":3468:3476  balances */\n      0x00\n        /* \"contracts/KipuBank.sol\":3468:3482  balances[user] */\n      0x00\n        /* \"contracts/KipuBank.sol\":3477:3481  user */\n      dup4\n        /* \"contracts/KipuBank.sol\":3468:3482  balances[user] */\n      0xffffffffffffffffffffffffffffffffffffffff\n      and\n      0xffffffffffffffffffffffffffffffffffffffff\n      and\n      dup2\n      mstore\n      0x20\n      add\n      swap1\n      dup2\n      mstore\n      0x20\n      add\n      0x00\n      keccak256\n      sload\n        /* \"contracts/KipuBank.sol\":3461:3482  return balances[user] */\n      swap1\n      pop\n        /* \"contracts/KipuBank.sol\":3385:3490  function balanceOf(address user) external view returns (uint256) {... */\n      swap2\n      swap1\n      pop\n      jump\t// out\n        /* \"contracts/KipuBank.sol\":942:972  uint256 public withdrawalCount */\n    tag_31:\n      sload(0x03)\n      dup2\n      jump\t// out\n        /* \"contracts/KipuBank.sol\":641:671  address public immutable owner */\n    tag_35:\n      immutable(\"0x7880aec93413f117ef14bd4e6d130875ab2c7d7d55a064fac3c2f7bd51516380\")\n      dup2\n      jump\t// out\n        /* \"contracts/KipuBank.sol\":2143:2573  function deposit() external payable nonZero {... */\n    tag_39:\n        /* \"contracts/KipuBank.sol\":1666:1667  0 */\n      0x00\n        /* \"contracts/KipuBank.sol\":1653:1662  msg.value */\n      callvalue\n        /* \"contracts/KipuBank.sol\":1653:1667  msg.value == 0 */\n      sub\n        /* \"contracts/KipuBank.sol\":1649:1689  if (msg.value == 0) revert ZeroDeposit() */\n      tag_78\n      jumpi\n        /* \"contracts/KipuBank.sol\":1676:1689  ZeroDeposit() */\n      mload(0x40)\n      0x56316e8700000000000000000000000000000000000000000000000000000000\n      dup2\n      mstore\n      0x04\n      add\n      mload(0x40)\n      dup1\n      swap2\n      sub\n      swap1\n      revert\n        /* \"contracts/KipuBank.sol\":1649:1689  if (msg.value == 0) revert ZeroDeposit() */\n    tag_78:\n        /* \"contracts/KipuBank.sol\":2198:2214  uint256 newTotal */\n      0x00\n        /* \"contracts/KipuBank.sol\":2234:2243  msg.value */\n      callvalue\n        /* \"contracts/KipuBank.sol\":2217:2231  totalDeposited */\n      sload(0x01)\n        /* \"contracts/KipuBank.sol\":2217:2243  totalDeposited + msg.value */\n      tag_80\n      swap2\n      swap1\n      tag_81\n      jump\t// in\n    tag_80:\n        /* \"contracts/KipuBank.sol\":2198:2243  uint256 newTotal = totalDeposited + msg.value */\n      swap1\n      pop\n        /* \"contracts/KipuBank.sol\":2269:2276  bankCap */\n      immutable(\"0xceebf77a833b30520287ddd9478ff51abbdffa30aa90a8d655dba0e8a79ce0c1\")\n        /* \"contracts/KipuBank.sol\":2258:2266  newTotal */\n      dup2\n        /* \"contracts/KipuBank.sol\":2258:2276  newTotal > bankCap */\n      gt\n        /* \"contracts/KipuBank.sol\":2254:2336  if (newTotal > bankCap) revert ExceedsBankCap(msg.value, bankCap - totalDeposited) */\n      iszero\n      tag_82\n      jumpi\n        /* \"contracts/KipuBank.sol\":2300:2309  msg.value */\n      callvalue\n        /* \"contracts/KipuBank.sol\":2321:2335  totalDeposited */\n      sload(0x01)\n        /* \"contracts/KipuBank.sol\":2311:2318  bankCap */\n      immutable(\"0xceebf77a833b30520287ddd9478ff51abbdffa30aa90a8d655dba0e8a79ce0c1\")\n        /* \"contracts/KipuBank.sol\":2311:2335  bankCap - totalDeposited */\n      tag_83\n      swap2\n      swap1\n      tag_63\n      jump\t// in\n    tag_83:\n        /* \"contracts/KipuBank.sol\":2285:2336  ExceedsBankCap(msg.value, bankCap - totalDeposited) */\n      mload(0x40)\n      0x4274ef7700000000000000000000000000000000000000000000000000000000\n      dup2\n      mstore\n      0x04\n      add\n      tag_84\n      swap3\n      swap2\n      swap1\n      tag_59\n      jump\t// in\n    tag_84:\n      mload(0x40)\n      dup1\n      swap2\n      sub\n      swap1\n      revert\n        /* \"contracts/KipuBank.sol\":2254:2336  if (newTotal > bankCap) revert ExceedsBankCap(msg.value, bankCap - totalDeposited) */\n    tag_82:\n        /* \"contracts/KipuBank.sol\":2393:2402  msg.value */\n      callvalue\n        /* \"contracts/KipuBank.sol\":2369:2377  balances */\n      0x00\n        /* \"contracts/KipuBank.sol\":2369:2389  balances[msg.sender] */\n      0x00\n        /* \"contracts/KipuBank.sol\":2378:2388  msg.sender */\n      caller\n        /* \"contracts/KipuBank.sol\":2369:2389  balances[msg.sender] */\n      0xffffffffffffffffffffffffffffffffffffffff\n      and\n      0xffffffffffffffffffffffffffffffffffffffff\n      and\n      dup2\n      mstore\n      0x20\n      add\n      swap1\n      dup2\n      mstore\n      0x20\n      add\n      0x00\n      keccak256\n      0x00\n        /* \"contracts/KipuBank.sol\":2369:2402  balances[msg.sender] += msg.value */\n      dup3\n      dup3\n      sload\n      tag_85\n      swap2\n      swap1\n      tag_81\n      jump\t// in\n    tag_85:\n      swap3\n      pop\n      pop\n      dup2\n      swap1\n      sstore\n      pop\n        /* \"contracts/KipuBank.sol\":2430:2438  newTotal */\n      dup1\n        /* \"contracts/KipuBank.sol\":2413:2427  totalDeposited */\n      0x01\n        /* \"contracts/KipuBank.sol\":2413:2438  totalDeposited = newTotal */\n      dup2\n      swap1\n      sstore\n      pop\n        /* \"contracts/KipuBank.sol\":2449:2461  depositCount */\n      0x02\n      0x00\n        /* \"contracts/KipuBank.sol\":2449:2463  depositCount++ */\n      dup2\n      sload\n      dup1\n      swap3\n      swap2\n      swap1\n      tag_86\n      swap1\n      tag_66\n      jump\t// in\n    tag_86:\n      swap2\n      swap1\n      pop\n      sstore\n      pop\n        /* \"contracts/KipuBank.sol\":2521:2531  msg.sender */\n      caller\n        /* \"contracts/KipuBank.sol\":2513:2565  Deposit(msg.sender, msg.value, balances[msg.sender]) */\n      0xffffffffffffffffffffffffffffffffffffffff\n      and\n      0x90890809c654f11d6e72a28fa60149770a0d11ec6c92319d6ceb2bb0a4ea1a15\n        /* \"contracts/KipuBank.sol\":2533:2542  msg.value */\n      callvalue\n        /* \"contracts/KipuBank.sol\":2544:2552  balances */\n      0x00\n        /* \"contracts/KipuBank.sol\":2544:2564  balances[msg.sender] */\n      0x00\n        /* \"contracts/KipuBank.sol\":2553:2563  msg.sender */\n      caller\n        /* \"contracts/KipuBank.sol\":2544:2564  balances[msg.sender] */\n      0xffffffffffffffffffffffffffffffffffffffff\n      and\n      0xffffffffffffffffffffffffffffffffffffffff\n      and\n      dup2\n      mstore\n      0x20\n      add\n      swap1\n      dup2\n      mstore\n      0x20\n      add\n      0x00\n      keccak256\n      sload\n        /* \"contracts/KipuBank.sol\":2513:2565  Deposit(msg.sender, msg.value, balances[msg.sender]) */\n      mload(0x40)\n      tag_87\n      swap3\n      swap2\n      swap1\n      tag_59\n      jump\t// in\n    tag_87:\n      mload(0x40)\n      dup1\n      swap2\n      sub\n      swap1\n      log2\n        /* \"contracts/KipuBank.sol\":2187:2573  {... */\n      pop\n        /* \"contracts/KipuBank.sol\":2143:2573  function deposit() external payable nonZero {... */\n      jump\t// out\n        /* \"contracts/KipuBank.sol\":3765:4025  function increaseBankCapForDemo(uint256 /*newCap*/) external onlyOwner {... */\n    tag_43:\n        /* \"contracts/KipuBank.sol\":1566:1571  owner */\n      immutable(\"0x7880aec93413f117ef14bd4e6d130875ab2c7d7d55a064fac3c2f7bd51516380\")\n        /* \"contracts/KipuBank.sol\":1552:1571  msg.sender != owner */\n      0xffffffffffffffffffffffffffffffffffffffff\n      and\n        /* \"contracts/KipuBank.sol\":1552:1562  msg.sender */\n      caller\n        /* \"contracts/KipuBank.sol\":1552:1571  msg.sender != owner */\n      0xffffffffffffffffffffffffffffffffffffffff\n      and\n      eq\n        /* \"contracts/KipuBank.sol\":1548:1591  if (msg.sender != owner) revert OnlyOwner() */\n      tag_89\n      jumpi\n        /* \"contracts/KipuBank.sol\":1580:1591  OnlyOwner() */\n      mload(0x40)\n      0x5fc483c500000000000000000000000000000000000000000000000000000000\n      dup2\n      mstore\n      0x04\n      add\n      mload(0x40)\n      dup1\n      swap2\n      sub\n      swap1\n      revert\n        /* \"contracts/KipuBank.sol\":1548:1591  if (msg.sender != owner) revert OnlyOwner() */\n    tag_89:\n        /* \"contracts/KipuBank.sol\":3765:4025  function increaseBankCapForDemo(uint256 /*newCap*/) external onlyOwner {... */\n      pop\n      jump\t// out\n        /* \"contracts/KipuBank.sol\":427:459  uint256 public immutable bankCap */\n    tag_46:\n      immutable(\"0xceebf77a833b30520287ddd9478ff51abbdffa30aa90a8d655dba0e8a79ce0c1\")\n      dup2\n      jump\t// out\n        /* \"contracts/KipuBank.sol\":552:590  uint256 public immutable withdrawLimit */\n    tag_50:\n      immutable(\"0xe4b1702d9298fee62dfeccc57d322a463ad55ca201256d01f62b45b2e1c21c10\")\n      dup2\n      jump\t// out\n        /* \"contracts/KipuBank.sol\":827:856  uint256 public totalDeposited */\n    tag_54:\n      sload(0x01)\n      dup2\n      jump\t// out\n        /* \"#utility.yul\":7:84   */\n    tag_91:\n        /* \"#utility.yul\":44:51   */\n      0x00\n        /* \"#utility.yul\":73:78   */\n      dup2\n        /* \"#utility.yul\":62:78   */\n      swap1\n      pop\n        /* \"#utility.yul\":7:84   */\n      swap2\n      swap1\n      pop\n      jump\t// out\n        /* \"#utility.yul\":90:208   */\n    tag_92:\n        /* \"#utility.yul\":177:201   */\n      tag_113\n        /* \"#utility.yul\":195:200   */\n      dup2\n        /* \"#utility.yul\":177:201   */\n      tag_91\n      jump\t// in\n    tag_113:\n        /* \"#utility.yul\":172:175   */\n      dup3\n        /* \"#utility.yul\":165:202   */\n      mstore\n        /* \"#utility.yul\":90:208   */\n      pop\n      pop\n      jump\t// out\n        /* \"#utility.yul\":214:436   */\n    tag_17:\n        /* \"#utility.yul\":307:311   */\n      0x00\n        /* \"#utility.yul\":345:347   */\n      0x20\n        /* \"#utility.yul\":334:343   */\n      dup3\n        /* \"#utility.yul\":330:348   */\n      add\n        /* \"#utility.yul\":322:348   */\n      swap1\n      pop\n        /* \"#utility.yul\":358:429   */\n      tag_115\n        /* \"#utility.yul\":426:427   */\n      0x00\n        /* \"#utility.yul\":415:424   */\n      dup4\n        /* \"#utility.yul\":411:428   */\n      add\n        /* \"#utility.yul\":402:408   */\n      dup5\n        /* \"#utility.yul\":358:429   */\n      tag_92\n      jump\t// in\n    tag_115:\n        /* \"#utility.yul\":214:436   */\n      swap3\n      swap2\n      pop\n      pop\n      jump\t// out\n        /* \"#utility.yul\":523:640   */\n    tag_94:\n        /* \"#utility.yul\":632:633   */\n      0x00\n        /* \"#utility.yul\":629:630   */\n      0x00\n        /* \"#utility.yul\":622:634   */\n      revert\n        /* \"#utility.yul\":769:891   */\n    tag_96:\n        /* \"#utility.yul\":842:866   */\n      tag_120\n        /* \"#utility.yul\":860:865   */\n      dup2\n        /* \"#utility.yul\":842:866   */\n      tag_91\n      jump\t// in\n    tag_120:\n        /* \"#utility.yul\":835:840   */\n      dup2\n        /* \"#utility.yul\":832:867   */\n      eq\n        /* \"#utility.yul\":822:885   */\n      tag_121\n      jumpi\n        /* \"#utility.yul\":881:882   */\n      0x00\n        /* \"#utility.yul\":878:879   */\n      0x00\n        /* \"#utility.yul\":871:883   */\n      revert\n        /* \"#utility.yul\":822:885   */\n    tag_121:\n        /* \"#utility.yul\":769:891   */\n      pop\n      jump\t// out\n        /* \"#utility.yul\":897:1036   */\n    tag_97:\n        /* \"#utility.yul\":943:948   */\n      0x00\n        /* \"#utility.yul\":981:987   */\n      dup2\n        /* \"#utility.yul\":968:988   */\n      calldataload\n        /* \"#utility.yul\":959:988   */\n      swap1\n      pop\n        /* \"#utility.yul\":997:1030   */\n      tag_123\n        /* \"#utility.yul\":1024:1029   */\n      dup2\n        /* \"#utility.yul\":997:1030   */\n      tag_96\n      jump\t// in\n    tag_123:\n        /* \"#utility.yul\":897:1036   */\n      swap3\n      swap2\n      pop\n      pop\n      jump\t// out\n        /* \"#utility.yul\":1042:1371   */\n    tag_21:\n        /* \"#utility.yul\":1101:1107   */\n      0x00\n        /* \"#utility.yul\":1150:1152   */\n      0x20\n        /* \"#utility.yul\":1138:1147   */\n      dup3\n        /* \"#utility.yul\":1129:1136   */\n      dup5\n        /* \"#utility.yul\":1125:1148   */\n      sub\n        /* \"#utility.yul\":1121:1153   */\n      slt\n        /* \"#utility.yul\":1118:1237   */\n      iszero\n      tag_125\n      jumpi\n        /* \"#utility.yul\":1156:1235   */\n      tag_126\n      tag_94\n      jump\t// in\n    tag_126:\n        /* \"#utility.yul\":1118:1237   */\n    tag_125:\n        /* \"#utility.yul\":1276:1277   */\n      0x00\n        /* \"#utility.yul\":1301:1354   */\n      tag_127\n        /* \"#utility.yul\":1346:1353   */\n      dup5\n        /* \"#utility.yul\":1337:1343   */\n      dup3\n        /* \"#utility.yul\":1326:1335   */\n      dup6\n        /* \"#utility.yul\":1322:1344   */\n      add\n        /* \"#utility.yul\":1301:1354   */\n      tag_97\n      jump\t// in\n    tag_127:\n        /* \"#utility.yul\":1291:1354   */\n      swap2\n      pop\n        /* \"#utility.yul\":1247:1364   */\n      pop\n        /* \"#utility.yul\":1042:1371   */\n      swap3\n      swap2\n      pop\n      pop\n      jump\t// out\n        /* \"#utility.yul\":1377:1503   */\n    tag_98:\n        /* \"#utility.yul\":1414:1421   */\n      0x00\n        /* \"#utility.yul\":1454:1496   */\n      0xffffffffffffffffffffffffffffffffffffffff\n        /* \"#utility.yul\":1447:1452   */\n      dup3\n        /* \"#utility.yul\":1443:1497   */\n      and\n        /* \"#utility.yul\":1432:1497   */\n      swap1\n      pop\n        /* \"#utility.yul\":1377:1503   */\n      swap2\n      swap1\n      pop\n      jump\t// out\n        /* \"#utility.yul\":1509:1605   */\n    tag_99:\n        /* \"#utility.yul\":1546:1553   */\n      0x00\n        /* \"#utility.yul\":1575:1599   */\n      tag_130\n        /* \"#utility.yul\":1593:1598   */\n      dup3\n        /* \"#utility.yul\":1575:1599   */\n      tag_98\n      jump\t// in\n    tag_130:\n        /* \"#utility.yul\":1564:1599   */\n      swap1\n      pop\n        /* \"#utility.yul\":1509:1605   */\n      swap2\n      swap1\n      pop\n      jump\t// out\n        /* \"#utility.yul\":1611:1733   */\n    tag_100:\n        /* \"#utility.yul\":1684:1708   */\n      tag_132\n        /* \"#utility.yul\":1702:1707   */\n      dup2\n        /* \"#utility.yul\":1684:1708   */\n      tag_99\n      jump\t// in\n    tag_132:\n        /* \"#utility.yul\":1677:1682   */\n      dup2\n        /* \"#utility.yul\":1674:1709   */\n      eq\n        /* \"#utility.yul\":1664:1727   */\n      tag_133\n      jumpi\n        /* \"#utility.yul\":1723:1724   */\n      0x00\n        /* \"#utility.yul\":1720:1721   */\n      0x00\n        /* \"#utility.yul\":1713:1725   */\n      revert\n        /* \"#utility.yul\":1664:1727   */\n    tag_133:\n        /* \"#utility.yul\":1611:1733   */\n      pop\n      jump\t// out\n        /* \"#utility.yul\":1739:1878   */\n    tag_101:\n        /* \"#utility.yul\":1785:1790   */\n      0x00\n        /* \"#utility.yul\":1823:1829   */\n      dup2\n        /* \"#utility.yul\":1810:1830   */\n      calldataload\n        /* \"#utility.yul\":1801:1830   */\n      swap1\n      pop\n        /* \"#utility.yul\":1839:1872   */\n      tag_135\n        /* \"#utility.yul\":1866:1871   */\n      dup2\n        /* \"#utility.yul\":1839:1872   */\n      tag_100\n      jump\t// in\n    tag_135:\n        /* \"#utility.yul\":1739:1878   */\n      swap3\n      swap2\n      pop\n      pop\n      jump\t// out\n        /* \"#utility.yul\":1884:2213   */\n    tag_26:\n        /* \"#utility.yul\":1943:1949   */\n      0x00\n        /* \"#utility.yul\":1992:1994   */\n      0x20\n        /* \"#utility.yul\":1980:1989   */\n      dup3\n        /* \"#utility.yul\":1971:1978   */\n      dup5\n        /* \"#utility.yul\":1967:1990   */\n      sub\n        /* \"#utility.yul\":1963:1995   */\n      slt\n        /* \"#utility.yul\":1960:2079   */\n      iszero\n      tag_137\n      jumpi\n        /* \"#utility.yul\":1998:2077   */\n      tag_138\n      tag_94\n      jump\t// in\n    tag_138:\n        /* \"#utility.yul\":1960:2079   */\n    tag_137:\n        /* \"#utility.yul\":2118:2119   */\n      0x00\n        /* \"#utility.yul\":2143:2196   */\n      tag_139\n        /* \"#utility.yul\":2188:2195   */\n      dup5\n        /* \"#utility.yul\":2179:2185   */\n      dup3\n        /* \"#utility.yul\":2168:2177   */\n      dup6\n        /* \"#utility.yul\":2164:2186   */\n      add\n        /* \"#utility.yul\":2143:2196   */\n      tag_101\n      jump\t// in\n    tag_139:\n        /* \"#utility.yul\":2133:2196   */\n      swap2\n      pop\n        /* \"#utility.yul\":2089:2206   */\n      pop\n        /* \"#utility.yul\":1884:2213   */\n      swap3\n      swap2\n      pop\n      pop\n      jump\t// out\n        /* \"#utility.yul\":2219:2337   */\n    tag_102:\n        /* \"#utility.yul\":2306:2330   */\n      tag_141\n        /* \"#utility.yul\":2324:2329   */\n      dup2\n        /* \"#utility.yul\":2306:2330   */\n      tag_99\n      jump\t// in\n    tag_141:\n        /* \"#utility.yul\":2301:2304   */\n      dup3\n        /* \"#utility.yul\":2294:2331   */\n      mstore\n        /* \"#utility.yul\":2219:2337   */\n      pop\n      pop\n      jump\t// out\n        /* \"#utility.yul\":2343:2565   */\n    tag_37:\n        /* \"#utility.yul\":2436:2440   */\n      0x00\n        /* \"#utility.yul\":2474:2476   */\n      0x20\n        /* \"#utility.yul\":2463:2472   */\n      dup3\n        /* \"#utility.yul\":2459:2477   */\n      add\n        /* \"#utility.yul\":2451:2477   */\n      swap1\n      pop\n        /* \"#utility.yul\":2487:2558   */\n      tag_143\n        /* \"#utility.yul\":2555:2556   */\n      0x00\n        /* \"#utility.yul\":2544:2553   */\n      dup4\n        /* \"#utility.yul\":2540:2557   */\n      add\n        /* \"#utility.yul\":2531:2537   */\n      dup5\n        /* \"#utility.yul\":2487:2558   */\n      tag_102\n      jump\t// in\n    tag_143:\n        /* \"#utility.yul\":2343:2565   */\n      swap3\n      swap2\n      pop\n      pop\n      jump\t// out\n        /* \"#utility.yul\":2571:2903   */\n    tag_59:\n        /* \"#utility.yul\":2692:2696   */\n      0x00\n        /* \"#utility.yul\":2730:2732   */\n      0x40\n        /* \"#utility.yul\":2719:2728   */\n      dup3\n        /* \"#utility.yul\":2715:2733   */\n      add\n        /* \"#utility.yul\":2707:2733   */\n      swap1\n      pop\n        /* \"#utility.yul\":2743:2814   */\n      tag_145\n        /* \"#utility.yul\":2811:2812   */\n      0x00\n        /* \"#utility.yul\":2800:2809   */\n      dup4\n        /* \"#utility.yul\":2796:2813   */\n      add\n        /* \"#utility.yul\":2787:2793   */\n      dup6\n        /* \"#utility.yul\":2743:2814   */\n      tag_92\n      jump\t// in\n    tag_145:\n        /* \"#utility.yul\":2824:2896   */\n      tag_146\n        /* \"#utility.yul\":2892:2894   */\n      0x20\n        /* \"#utility.yul\":2881:2890   */\n      dup4\n        /* \"#utility.yul\":2877:2895   */\n      add\n        /* \"#utility.yul\":2868:2874   */\n      dup5\n        /* \"#utility.yul\":2824:2896   */\n      tag_92\n      jump\t// in\n    tag_146:\n        /* \"#utility.yul\":2571:2903   */\n      swap4\n      swap3\n      pop\n      pop\n      pop\n      jump\t// out\n        /* \"#utility.yul\":2909:3089   */\n    tag_103:\n        /* \"#utility.yul\":2957:3034   */\n      0x4e487b7100000000000000000000000000000000000000000000000000000000\n        /* \"#utility.yul\":2954:2955   */\n      0x00\n        /* \"#utility.yul\":2947:3035   */\n      mstore\n        /* \"#utility.yul\":3054:3058   */\n      0x11\n        /* \"#utility.yul\":3051:3052   */\n      0x04\n        /* \"#utility.yul\":3044:3059   */\n      mstore\n        /* \"#utility.yul\":3078:3082   */\n      0x24\n        /* \"#utility.yul\":3075:3076   */\n      0x00\n        /* \"#utility.yul\":3068:3083   */\n      revert\n        /* \"#utility.yul\":3095:3289   */\n    tag_63:\n        /* \"#utility.yul\":3135:3139   */\n      0x00\n        /* \"#utility.yul\":3155:3175   */\n      tag_149\n        /* \"#utility.yul\":3173:3174   */\n      dup3\n        /* \"#utility.yul\":3155:3175   */\n      tag_91\n      jump\t// in\n    tag_149:\n        /* \"#utility.yul\":3150:3175   */\n      swap2\n      pop\n        /* \"#utility.yul\":3189:3209   */\n      tag_150\n        /* \"#utility.yul\":3207:3208   */\n      dup4\n        /* \"#utility.yul\":3189:3209   */\n      tag_91\n      jump\t// in\n    tag_150:\n        /* \"#utility.yul\":3184:3209   */\n      swap3\n      pop\n        /* \"#utility.yul\":3233:3234   */\n      dup3\n        /* \"#utility.yul\":3230:3231   */\n      dup3\n        /* \"#utility.yul\":3226:3235   */\n      sub\n        /* \"#utility.yul\":3218:3235   */\n      swap1\n      pop\n        /* \"#utility.yul\":3257:3258   */\n      dup2\n        /* \"#utility.yul\":3251:3255   */\n      dup2\n        /* \"#utility.yul\":3248:3259   */\n      gt\n        /* \"#utility.yul\":3245:3282   */\n      iszero\n      tag_151\n      jumpi\n        /* \"#utility.yul\":3262:3280   */\n      tag_152\n      tag_103\n      jump\t// in\n    tag_152:\n        /* \"#utility.yul\":3245:3282   */\n    tag_151:\n        /* \"#utility.yul\":3095:3289   */\n      swap3\n      swap2\n      pop\n      pop\n      jump\t// out\n        /* \"#utility.yul\":3295:3528   */\n    tag_66:\n        /* \"#utility.yul\":3334:3337   */\n      0x00\n        /* \"#utility.yul\":3357:3381   */\n      tag_154\n        /* \"#utility.yul\":3375:3380   */\n      dup3\n        /* \"#utility.yul\":3357:3381   */\n      tag_91\n      jump\t// in\n    tag_154:\n        /* \"#utility.yul\":3348:3381   */\n      swap2\n      pop\n        /* \"#utility.yul\":3403:3469   */\n      0xffffffffffffffffffffffffffffffffffffffffffffffffffffffffffffffff\n        /* \"#utility.yul\":3396:3401   */\n      dup3\n        /* \"#utility.yul\":3393:3470   */\n      sub\n        /* \"#utility.yul\":3390:3493   */\n      tag_155\n      jumpi\n        /* \"#utility.yul\":3473:3491   */\n      tag_156\n      tag_103\n      jump\t// in\n    tag_156:\n        /* \"#utility.yul\":3390:3493   */\n    tag_155:\n        /* \"#utility.yul\":3520:3521   */\n      0x01\n        /* \"#utility.yul\":3513:3518   */\n      dup3\n        /* \"#utility.yul\":3509:3522   */\n      add\n        /* \"#utility.yul\":3502:3522   */\n      swap1\n      pop\n        /* \"#utility.yul\":3295:3528   */\n      swap2\n      swap1\n      pop\n      jump\t// out\n        /* \"#utility.yul\":3534:3681   */\n    tag_104:\n        /* \"#utility.yul\":3635:3646   */\n      0x00\n        /* \"#utility.yul\":3672:3675   */\n      dup2\n        /* \"#utility.yul\":3657:3675   */\n      swap1\n      pop\n        /* \"#utility.yul\":3534:3681   */\n      swap3\n      swap2\n      pop\n      pop\n      jump\t// out\n        /* \"#utility.yul\":3687:3801   */\n    tag_105:\n      pop\n      jump\t// out\n        /* \"#utility.yul\":3807:4205   */\n    tag_106:\n        /* \"#utility.yul\":3966:3969   */\n      0x00\n        /* \"#utility.yul\":3987:4070   */\n      tag_160\n        /* \"#utility.yul\":4068:4069   */\n      0x00\n        /* \"#utility.yul\":4063:4066   */\n      dup4\n        /* \"#utility.yul\":3987:4070   */\n      tag_104\n      jump\t// in\n    tag_160:\n        /* \"#utility.yul\":3980:4070   */\n      swap2\n      pop\n        /* \"#utility.yul\":4079:4172   */\n      tag_161\n        /* \"#utility.yul\":4168:4171   */\n      dup3\n        /* \"#utility.yul\":4079:4172   */\n      tag_105\n      jump\t// in\n    tag_161:\n        /* \"#utility.yul\":4197:4198   */\n      0x00\n        /* \"#utility.yul\":4192:4195   */\n      dup3\n        /* \"#utility.yul\":4188:4199   */\n      add\n        /* \"#utility.yul\":4181:4199   */\n      swap1\n      pop\n        /* \"#utility.yul\":3807:4205   */\n      swap2\n      swap1\n      pop\n      jump\t// out\n        /* \"#utility.yul\":4211:4590   */\n    tag_68:\n        /* \"#utility.yul\":4395:4398   */\n      0x00\n        /* \"#utility.yul\":4417:4564   */\n      tag_163\n        /* \"#utility.yul\":4560:4563   */\n      dup3\n        /* \"#utility.yul\":4417:4564   */\n      tag_106\n      jump\t// in\n    tag_163:\n        /* \"#utility.yul\":4410:4564   */\n      swap2\n      pop\n        /* \"#utility.yul\":4581:4584   */\n      dup2\n        /* \"#utility.yul\":4574:4584   */\n      swap1\n      pop\n        /* \"#utility.yul\":4211:4590   */\n      swap2\n      swap1\n      pop\n      jump\t// out\n        /* \"#utility.yul\":4596:4765   */\n    tag_107:\n        /* \"#utility.yul\":4680:4691   */\n      0x00\n        /* \"#utility.yul\":4714:4720   */\n      dup3\n        /* \"#utility.yul\":4709:4712   */\n      dup3\n        /* \"#utility.yul\":4702:4721   */\n      mstore\n        /* \"#utility.yul\":4754:4758   */\n      0x20\n        /* \"#utility.yul\":4749:4752   */\n      dup3\n        /* \"#utility.yul\":4745:4759   */\n      add\n        /* \"#utility.yul\":4730:4759   */\n      swap1\n      pop\n        /* \"#utility.yul\":4596:4765   */\n      swap3\n      swap2\n      pop\n      pop\n      jump\t// out\n        /* \"#utility.yul\":4771:4936   */\n    tag_108:\n        /* \"#utility.yul\":4911:4928   */\n      0x5472616e73666572206661696c65640000000000000000000000000000000000\n        /* \"#utility.yul\":4907:4908   */\n      0x00\n        /* \"#utility.yul\":4899:4905   */\n      dup3\n        /* \"#utility.yul\":4895:4909   */\n      add\n        /* \"#utility.yul\":4888:4929   */\n      mstore\n        /* \"#utility.yul\":4771:4936   */\n      pop\n      jump\t// out\n        /* \"#utility.yul\":4942:5308   */\n    tag_109:\n        /* \"#utility.yul\":5084:5087   */\n      0x00\n        /* \"#utility.yul\":5105:5172   */\n      tag_167\n        /* \"#utility.yul\":5169:5171   */\n      0x0f\n        /* \"#utility.yul\":5164:5167   */\n      dup4\n        /* \"#utility.yul\":5105:5172   */\n      tag_107\n      jump\t// in\n    tag_167:\n        /* \"#utility.yul\":5098:5172   */\n      swap2\n      pop\n        /* \"#utility.yul\":5181:5274   */\n      tag_168\n        /* \"#utility.yul\":5270:5273   */\n      dup3\n        /* \"#utility.yul\":5181:5274   */\n      tag_108\n      jump\t// in\n    tag_168:\n        /* \"#utility.yul\":5299:5301   */\n      0x20\n        /* \"#utility.yul\":5294:5297   */\n      dup3\n        /* \"#utility.yul\":5290:5302   */\n      add\n        /* \"#utility.yul\":5283:5302   */\n      swap1\n      pop\n        /* \"#utility.yul\":4942:5308   */\n      swap2\n      swap1\n      pop\n      jump\t// out\n        /* \"#utility.yul\":5314:5733   */\n    tag_74:\n        /* \"#utility.yul\":5480:5484   */\n      0x00\n        /* \"#utility.yul\":5518:5520   */\n      0x20\n        /* \"#utility.yul\":5507:5516   */\n      dup3\n        /* \"#utility.yul\":5503:5521   */\n      add\n        /* \"#utility.yul\":5495:5521   */\n      swap1\n      pop\n        /* \"#utility.yul\":5567:5576   */\n      dup2\n        /* \"#utility.yul\":5561:5565   */\n      dup2\n        /* \"#utility.yul\":5557:5577   */\n      sub\n        /* \"#utility.yul\":5553:5554   */\n      0x00\n        /* \"#utility.yul\":5542:5551   */\n      dup4\n        /* \"#utility.yul\":5538:5555   */\n      add\n        /* \"#utility.yul\":5531:5578   */\n      mstore\n        /* \"#utility.yul\":5595:5726   */\n      tag_170\n        /* \"#utility.yul\":5721:5725   */\n      dup2\n        /* \"#utility.yul\":5595:5726   */\n      tag_109\n      jump\t// in\n    tag_170:\n        /* \"#utility.yul\":5587:5726   */\n      swap1\n      pop\n        /* \"#utility.yul\":5314:5733   */\n      swap2\n      swap1\n      pop\n      jump\t// out\n        /* \"#utility.yul\":5739:5930   */\n    tag_81:\n        /* \"#utility.yul\":5779:5782   */\n      0x00\n        /* \"#utility.yul\":5798:5818   */\n      tag_172\n        /* \"#utility.yul\":5816:5817   */\n      dup3\n        /* \"#utility.yul\":5798:5818   */\n      tag_91\n      jump\t// in\n    tag_172:\n        /* \"#utility.yul\":5793:5818   */\n      swap2\n      pop\n        /* \"#utility.yul\":5832:5852   */\n      tag_173\n        /* \"#utility.yul\":5850:5851   */\n      dup4\n        /* \"#utility.yul\":5832:5852   */\n      tag_91\n      jump\t// in\n    tag_173:\n        /* \"#utility.yul\":5827:5852   */\n      swap3\n      pop\n        /* \"#utility.yul\":5875:5876   */\n      dup3\n        /* \"#utility.yul\":5872:5873   */\n      dup3\n        /* \"#utility.yul\":5868:5877   */\n      add\n        /* \"#utility.yul\":5861:5877   */\n      swap1\n      pop\n        /* \"#utility.yul\":5896:5899   */\n      dup1\n        /* \"#utility.yul\":5893:5894   */\n      dup3\n        /* \"#utility.yul\":5890:5900   */\n      gt\n        /* \"#utility.yul\":5887:5923   */\n      iszero\n      tag_174\n      jumpi\n        /* \"#utility.yul\":5903:5921   */\n      tag_175\n      tag_103\n      jump\t// in\n    tag_175:\n        /* \"#utility.yul\":5887:5923   */\n    tag_174:\n        /* \"#utility.yul\":5739:5930   */\n      swap3\n      swap2\n      pop\n      pop\n      jump\t// out\n\n    auxdata: 0xa2646970667358221220f0c0e8b9ffe01b0da3257577a6e61a2d0c55898a11b8cdb2b111f35e88eaa84c64736f6c634300081e0033\n}\n",
				"bytecode": {
					"linkReferences": {},
					"object": "60e060405234801561000f575f5ffd5b50604051610cb2380380610cb2833981810160405281019061003191906100b3565b3373ffffffffffffffffffffffffffffffffffffffff1660c08173ffffffffffffffffffffffffffffffffffffffff168152505081608081815250508060a0818152505050506100f1565b5f5ffd5b5f819050919050565b61009281610080565b811461009c575f5ffd5b50565b5f815190506100ad81610089565b92915050565b5f5f604083850312156100c9576100c861007c565b5b5f6100d68582860161009f565b92505060206100e78582860161009f565b9150509250929050565b60805160a05160c051610b7461013e5f395f8181610578015261077901525f818161022e01528181610257015261082501525f81816105e60152818161061201526108010152610b745ff3fe608060405260043610610090575f3560e01c8063d0e30db011610058578063d0e30db014610176578063d3dac87314610180578063ecbea24d146101a8578063f848d541146101d2578063ff50abdc146101fc57610090565b80632dfdf0b5146100945780632e1a7d4d146100be57806370a08231146100e657806371706cbe146101225780638da5cb5b1461014c575b5f5ffd5b34801561009f575f5ffd5b506100a8610226565b6040516100b59190610865565b60405180910390f35b3480156100c9575f5ffd5b506100e460048036038101906100df91906108ac565b61022c565b005b3480156100f1575f5ffd5b5061010c60048036038101906101079190610931565b61052b565b6040516101199190610865565b60405180910390f35b34801561012d575f5ffd5b50610136610570565b6040516101439190610865565b60405180910390f35b348015610157575f5ffd5b50610160610576565b60405161016d919061096b565b60405180910390f35b61017e61059a565b005b34801561018b575f5ffd5b506101a660048036038101906101a191906108ac565b610777565b005b3480156101b3575f5ffd5b506101bc6107ff565b6040516101c99190610865565b60405180910390f35b3480156101dd575f5ffd5b506101e6610823565b6040516101f39190610865565b60405180910390f35b348015610207575f5ffd5b50610210610847565b60405161021d9190610865565b60405180910390f35b60025481565b7f00000000000000000000000000000000000000000000000000000000000000008111156102b357807f00000000000000000000000000000000000000000000000000000000000000006040517f9c8983d90000000000000000000000000000000000000000000000000000000081526004016102aa929190610984565b60405180910390fd5b5f5f3373ffffffffffffffffffffffffffffffffffffffff1673ffffffffffffffffffffffffffffffffffffffff1681526020019081526020015f205481111561037257805f5f3373ffffffffffffffffffffffffffffffffffffffff1673ffffffffffffffffffffffffffffffffffffffff1681526020019081526020015f20546040517fcf479181000000000000000000000000000000000000000000000000000000008152600401610369929190610984565b60405180910390fd5b805f5f3373ffffffffffffffffffffffffffffffffffffffff1673ffffffffffffffffffffffffffffffffffffffff1681526020019081526020015f205f8282546103bd91906109d8565b925050819055508060015f8282546103d591906109d8565b9250508190555060035f8154809291906103ee90610a0b565b91905055505f3373ffffffffffffffffffffffffffffffffffffffff168260405161041890610a7f565b5f6040518083038185875af1925050503d805f8114610452576040519150601f19603f3d011682016040523d82523d5f602084013e610457565b606091505b505090508061049b576040517f08c379a000000000000000000000000000000000000000000000000000000000815260040161049290610aed565b60405180910390fd5b3373ffffffffffffffffffffffffffffffffffffffff167fdf273cb619d95419a9cd0ec88123a0538c85064229baa6363788f743fff90deb835f5f3373ffffffffffffffffffffffffffffffffffffffff1673ffffffffffffffffffffffffffffffffffffffff1681526020019081526020015f205460405161051f929190610984565b60405180910390a25050565b5f5f5f8373ffffffffffffffffffffffffffffffffffffffff1673ffffffffffffffffffffffffffffffffffffffff1681526020019081526020015f20549050919050565b60035481565b7f000000000000000000000000000000000000000000000000000000000000000081565b5f34036105d3576040517f56316e8700000000000000000000000000000000000000000000000000000000815260040160405180910390fd5b5f346001546105e29190610b0b565b90507f000000000000000000000000000000000000000000000000000000000000000081111561067857346001547f000000000000000000000000000000000000000000000000000000000000000061063b91906109d8565b6040517f4274ef7700000000000000000000000000000000000000000000000000000000815260040161066f929190610984565b60405180910390fd5b345f5f3373ffffffffffffffffffffffffffffffffffffffff1673ffffffffffffffffffffffffffffffffffffffff1681526020019081526020015f205f8282546106c39190610b0b565b925050819055508060018190555060025f8154809291906106e390610a0b565b91905055503373ffffffffffffffffffffffffffffffffffffffff167f90890809c654f11d6e72a28fa60149770a0d11ec6c92319d6ceb2bb0a4ea1a15345f5f3373ffffffffffffffffffffffffffffffffffffffff1673ffffffffffffffffffffffffffffffffffffffff1681526020019081526020015f205460405161076c929190610984565b60405180910390a250565b7f000000000000000000000000000000000000000000000000000000000000000073ffffffffffffffffffffffffffffffffffffffff163373ffffffffffffffffffffffffffffffffffffffff16146107fc576040517f5fc483c500000000000000000000000000000000000000000000000000000000815260040160405180910390fd5b50565b7f000000000000000000000000000000000000000000000000000000000000000081565b7f000000000000000000000000000000000000000000000000000000000000000081565b60015481565b5f819050919050565b61085f8161084d565b82525050565b5f6020820190506108785f830184610856565b92915050565b5f5ffd5b61088b8161084d565b8114610895575f5ffd5b50565b5f813590506108a681610882565b92915050565b5f602082840312156108c1576108c061087e565b5b5f6108ce84828501610898565b91505092915050565b5f73ffffffffffffffffffffffffffffffffffffffff82169050919050565b5f610900826108d7565b9050919050565b610910816108f6565b811461091a575f5ffd5b50565b5f8135905061092b81610907565b92915050565b5f602082840312156109465761094561087e565b5b5f6109538482850161091d565b91505092915050565b610965816108f6565b82525050565b5f60208201905061097e5f83018461095c565b92915050565b5f6040820190506109975f830185610856565b6109a46020830184610856565b9392505050565b7f4e487b71000000000000000000000000000000000000000000000000000000005f52601160045260245ffd5b5f6109e28261084d565b91506109ed8361084d565b9250828203905081811115610a0557610a046109ab565b5b92915050565b5f610a158261084d565b91507fffffffffffffffffffffffffffffffffffffffffffffffffffffffffffffffff8203610a4757610a466109ab565b5b600182019050919050565b5f81905092915050565b50565b5f610a6a5f83610a52565b9150610a7582610a5c565b5f82019050919050565b5f610a8982610a5f565b9150819050919050565b5f82825260208201905092915050565b7f5472616e73666572206661696c656400000000000000000000000000000000005f82015250565b5f610ad7600f83610a93565b9150610ae282610aa3565b602082019050919050565b5f6020820190508181035f830152610b0481610acb565b9050919050565b5f610b158261084d565b9150610b208361084d565b9250828201905080821115610b3857610b376109ab565b5b9291505056fea2646970667358221220f0c0e8b9ffe01b0da3257577a6e61a2d0c55898a11b8cdb2b111f35e88eaa84c64736f6c634300081e0033",
					"opcodes": "PUSH1 0xE0 PUSH1 0x40 MSTORE CALLVALUE DUP1 ISZERO PUSH2 0xF JUMPI PUSH0 PUSH0 REVERT JUMPDEST POP PUSH1 0x40 MLOAD PUSH2 0xCB2 CODESIZE SUB DUP1 PUSH2 0xCB2 DUP4 CODECOPY DUP2 DUP2 ADD PUSH1 0x40 MSTORE DUP2 ADD SWAP1 PUSH2 0x31 SWAP2 SWAP1 PUSH2 0xB3 JUMP JUMPDEST CALLER PUSH20 0xFFFFFFFFFFFFFFFFFFFFFFFFFFFFFFFFFFFFFFFF AND PUSH1 0xC0 DUP2 PUSH20 0xFFFFFFFFFFFFFFFFFFFFFFFFFFFFFFFFFFFFFFFF AND DUP2 MSTORE POP POP DUP2 PUSH1 0x80 DUP2 DUP2 MSTORE POP POP DUP1 PUSH1 0xA0 DUP2 DUP2 MSTORE POP POP POP POP PUSH2 0xF1 JUMP JUMPDEST PUSH0 PUSH0 REVERT JUMPDEST PUSH0 DUP2 SWAP1 POP SWAP2 SWAP1 POP JUMP JUMPDEST PUSH2 0x92 DUP2 PUSH2 0x80 JUMP JUMPDEST DUP2 EQ PUSH2 0x9C JUMPI PUSH0 PUSH0 REVERT JUMPDEST POP JUMP JUMPDEST PUSH0 DUP2 MLOAD SWAP1 POP PUSH2 0xAD DUP2 PUSH2 0x89 JUMP JUMPDEST SWAP3 SWAP2 POP POP JUMP JUMPDEST PUSH0 PUSH0 PUSH1 0x40 DUP4 DUP6 SUB SLT ISZERO PUSH2 0xC9 JUMPI PUSH2 0xC8 PUSH2 0x7C JUMP JUMPDEST JUMPDEST PUSH0 PUSH2 0xD6 DUP6 DUP3 DUP7 ADD PUSH2 0x9F JUMP JUMPDEST SWAP3 POP POP PUSH1 0x20 PUSH2 0xE7 DUP6 DUP3 DUP7 ADD PUSH2 0x9F JUMP JUMPDEST SWAP2 POP POP SWAP3 POP SWAP3 SWAP1 POP JUMP JUMPDEST PUSH1 0x80 MLOAD PUSH1 0xA0 MLOAD PUSH1 0xC0 MLOAD PUSH2 0xB74 PUSH2 0x13E PUSH0 CODECOPY PUSH0 DUP2 DUP2 PUSH2 0x578 ADD MSTORE PUSH2 0x779 ADD MSTORE PUSH0 DUP2 DUP2 PUSH2 0x22E ADD MSTORE DUP2 DUP2 PUSH2 0x257 ADD MSTORE PUSH2 0x825 ADD MSTORE PUSH0 DUP2 DUP2 PUSH2 0x5E6 ADD MSTORE DUP2 DUP2 PUSH2 0x612 ADD MSTORE PUSH2 0x801 ADD MSTORE PUSH2 0xB74 PUSH0 RETURN INVALID PUSH1 0x80 PUSH1 0x40 MSTORE PUSH1 0x4 CALLDATASIZE LT PUSH2 0x90 JUMPI PUSH0 CALLDATALOAD PUSH1 0xE0 SHR DUP1 PUSH4 0xD0E30DB0 GT PUSH2 0x58 JUMPI DUP1 PUSH4 0xD0E30DB0 EQ PUSH2 0x176 JUMPI DUP1 PUSH4 0xD3DAC873 EQ PUSH2 0x180 JUMPI DUP1 PUSH4 0xECBEA24D EQ PUSH2 0x1A8 JUMPI DUP1 PUSH4 0xF848D541 EQ PUSH2 0x1D2 JUMPI DUP1 PUSH4 0xFF50ABDC EQ PUSH2 0x1FC JUMPI PUSH2 0x90 JUMP JUMPDEST DUP1 PUSH4 0x2DFDF0B5 EQ PUSH2 0x94 JUMPI DUP1 PUSH4 0x2E1A7D4D EQ PUSH2 0xBE JUMPI DUP1 PUSH4 0x70A08231 EQ PUSH2 0xE6 JUMPI DUP1 PUSH4 0x71706CBE EQ PUSH2 0x122 JUMPI DUP1 PUSH4 0x8DA5CB5B EQ PUSH2 0x14C JUMPI JUMPDEST PUSH0 PUSH0 REVERT JUMPDEST CALLVALUE DUP1 ISZERO PUSH2 0x9F JUMPI PUSH0 PUSH0 REVERT JUMPDEST POP PUSH2 0xA8 PUSH2 0x226 JUMP JUMPDEST PUSH1 0x40 MLOAD PUSH2 0xB5 SWAP2 SWAP1 PUSH2 0x865 JUMP JUMPDEST PUSH1 0x40 MLOAD DUP1 SWAP2 SUB SWAP1 RETURN JUMPDEST CALLVALUE DUP1 ISZERO PUSH2 0xC9 JUMPI PUSH0 PUSH0 REVERT JUMPDEST POP PUSH2 0xE4 PUSH1 0x4 DUP1 CALLDATASIZE SUB DUP2 ADD SWAP1 PUSH2 0xDF SWAP2 SWAP1 PUSH2 0x8AC JUMP JUMPDEST PUSH2 0x22C JUMP JUMPDEST STOP JUMPDEST CALLVALUE DUP1 ISZERO PUSH2 0xF1 JUMPI PUSH0 PUSH0 REVERT JUMPDEST POP PUSH2 0x10C PUSH1 0x4 DUP1 CALLDATASIZE SUB DUP2 ADD SWAP1 PUSH2 0x107 SWAP2 SWAP1 PUSH2 0x931 JUMP JUMPDEST PUSH2 0x52B JUMP JUMPDEST PUSH1 0x40 MLOAD PUSH2 0x119 SWAP2 SWAP1 PUSH2 0x865 JUMP JUMPDEST PUSH1 0x40 MLOAD DUP1 SWAP2 SUB SWAP1 RETURN JUMPDEST CALLVALUE DUP1 ISZERO PUSH2 0x12D JUMPI PUSH0 PUSH0 REVERT JUMPDEST POP PUSH2 0x136 PUSH2 0x570 JUMP JUMPDEST PUSH1 0x40 MLOAD PUSH2 0x143 SWAP2 SWAP1 PUSH2 0x865 JUMP JUMPDEST PUSH1 0x40 MLOAD DUP1 SWAP2 SUB SWAP1 RETURN JUMPDEST CALLVALUE DUP1 ISZERO PUSH2 0x157 JUMPI PUSH0 PUSH0 REVERT JUMPDEST POP PUSH2 0x160 PUSH2 0x576 JUMP JUMPDEST PUSH1 0x40 MLOAD PUSH2 0x16D SWAP2 SWAP1 PUSH2 0x96B JUMP JUMPDEST PUSH1 0x40 MLOAD DUP1 SWAP2 SUB SWAP1 RETURN JUMPDEST PUSH2 0x17E PUSH2 0x59A JUMP JUMPDEST STOP JUMPDEST CALLVALUE DUP1 ISZERO PUSH2 0x18B JUMPI PUSH0 PUSH0 REVERT JUMPDEST POP PUSH2 0x1A6 PUSH1 0x4 DUP1 CALLDATASIZE SUB DUP2 ADD SWAP1 PUSH2 0x1A1 SWAP2 SWAP1 PUSH2 0x8AC JUMP JUMPDEST PUSH2 0x777 JUMP JUMPDEST STOP JUMPDEST CALLVALUE DUP1 ISZERO PUSH2 0x1B3 JUMPI PUSH0 PUSH0 REVERT JUMPDEST POP PUSH2 0x1BC PUSH2 0x7FF JUMP JUMPDEST PUSH1 0x40 MLOAD PUSH2 0x1C9 SWAP2 SWAP1 PUSH2 0x865 JUMP JUMPDEST PUSH1 0x40 MLOAD DUP1 SWAP2 SUB SWAP1 RETURN JUMPDEST CALLVALUE DUP1 ISZERO PUSH2 0x1DD JUMPI PUSH0 PUSH0 REVERT JUMPDEST POP PUSH2 0x1E6 PUSH2 0x823 JUMP JUMPDEST PUSH1 0x40 MLOAD PUSH2 0x1F3 SWAP2 SWAP1 PUSH2 0x865 JUMP JUMPDEST PUSH1 0x40 MLOAD DUP1 SWAP2 SUB SWAP1 RETURN JUMPDEST CALLVALUE DUP1 ISZERO PUSH2 0x207 JUMPI PUSH0 PUSH0 REVERT JUMPDEST POP PUSH2 0x210 PUSH2 0x847 JUMP JUMPDEST PUSH1 0x40 MLOAD PUSH2 0x21D SWAP2 SWAP1 PUSH2 0x865 JUMP JUMPDEST PUSH1 0x40 MLOAD DUP1 SWAP2 SUB SWAP1 RETURN JUMPDEST PUSH1 0x2 SLOAD DUP2 JUMP JUMPDEST PUSH32 0x0 DUP2 GT ISZERO PUSH2 0x2B3 JUMPI DUP1 PUSH32 0x0 PUSH1 0x40 MLOAD PUSH32 0x9C8983D900000000000000000000000000000000000000000000000000000000 DUP2 MSTORE PUSH1 0x4 ADD PUSH2 0x2AA SWAP3 SWAP2 SWAP1 PUSH2 0x984 JUMP JUMPDEST PUSH1 0x40 MLOAD DUP1 SWAP2 SUB SWAP1 REVERT JUMPDEST PUSH0 PUSH0 CALLER PUSH20 0xFFFFFFFFFFFFFFFFFFFFFFFFFFFFFFFFFFFFFFFF AND PUSH20 0xFFFFFFFFFFFFFFFFFFFFFFFFFFFFFFFFFFFFFFFF AND DUP2 MSTORE PUSH1 0x20 ADD SWAP1 DUP2 MSTORE PUSH1 0x20 ADD PUSH0 KECCAK256 SLOAD DUP2 GT ISZERO PUSH2 0x372 JUMPI DUP1 PUSH0 PUSH0 CALLER PUSH20 0xFFFFFFFFFFFFFFFFFFFFFFFFFFFFFFFFFFFFFFFF AND PUSH20 0xFFFFFFFFFFFFFFFFFFFFFFFFFFFFFFFFFFFFFFFF AND DUP2 MSTORE PUSH1 0x20 ADD SWAP1 DUP2 MSTORE PUSH1 0x20 ADD PUSH0 KECCAK256 SLOAD PUSH1 0x40 MLOAD PUSH32 0xCF47918100000000000000000000000000000000000000000000000000000000 DUP2 MSTORE PUSH1 0x4 ADD PUSH2 0x369 SWAP3 SWAP2 SWAP1 PUSH2 0x984 JUMP JUMPDEST PUSH1 0x40 MLOAD DUP1 SWAP2 SUB SWAP1 REVERT JUMPDEST DUP1 PUSH0 PUSH0 CALLER PUSH20 0xFFFFFFFFFFFFFFFFFFFFFFFFFFFFFFFFFFFFFFFF AND PUSH20 0xFFFFFFFFFFFFFFFFFFFFFFFFFFFFFFFFFFFFFFFF AND DUP2 MSTORE PUSH1 0x20 ADD SWAP1 DUP2 MSTORE PUSH1 0x20 ADD PUSH0 KECCAK256 PUSH0 DUP3 DUP3 SLOAD PUSH2 0x3BD SWAP2 SWAP1 PUSH2 0x9D8 JUMP JUMPDEST SWAP3 POP POP DUP2 SWAP1 SSTORE POP DUP1 PUSH1 0x1 PUSH0 DUP3 DUP3 SLOAD PUSH2 0x3D5 SWAP2 SWAP1 PUSH2 0x9D8 JUMP JUMPDEST SWAP3 POP POP DUP2 SWAP1 SSTORE POP PUSH1 0x3 PUSH0 DUP2 SLOAD DUP1 SWAP3 SWAP2 SWAP1 PUSH2 0x3EE SWAP1 PUSH2 0xA0B JUMP JUMPDEST SWAP2 SWAP1 POP SSTORE POP PUSH0 CALLER PUSH20 0xFFFFFFFFFFFFFFFFFFFFFFFFFFFFFFFFFFFFFFFF AND DUP3 PUSH1 0x40 MLOAD PUSH2 0x418 SWAP1 PUSH2 0xA7F JUMP JUMPDEST PUSH0 PUSH1 0x40 MLOAD DUP1 DUP4 SUB DUP2 DUP6 DUP8 GAS CALL SWAP3 POP POP POP RETURNDATASIZE DUP1 PUSH0 DUP2 EQ PUSH2 0x452 JUMPI PUSH1 0x40 MLOAD SWAP2 POP PUSH1 0x1F NOT PUSH1 0x3F RETURNDATASIZE ADD AND DUP3 ADD PUSH1 0x40 MSTORE RETURNDATASIZE DUP3 MSTORE RETURNDATASIZE PUSH0 PUSH1 0x20 DUP5 ADD RETURNDATACOPY PUSH2 0x457 JUMP JUMPDEST PUSH1 0x60 SWAP2 POP JUMPDEST POP POP SWAP1 POP DUP1 PUSH2 0x49B JUMPI PUSH1 0x40 MLOAD PUSH32 0x8C379A000000000000000000000000000000000000000000000000000000000 DUP2 MSTORE PUSH1 0x4 ADD PUSH2 0x492 SWAP1 PUSH2 0xAED JUMP JUMPDEST PUSH1 0x40 MLOAD DUP1 SWAP2 SUB SWAP1 REVERT JUMPDEST CALLER PUSH20 0xFFFFFFFFFFFFFFFFFFFFFFFFFFFFFFFFFFFFFFFF AND PUSH32 0xDF273CB619D95419A9CD0EC88123A0538C85064229BAA6363788F743FFF90DEB DUP4 PUSH0 PUSH0 CALLER PUSH20 0xFFFFFFFFFFFFFFFFFFFFFFFFFFFFFFFFFFFFFFFF AND PUSH20 0xFFFFFFFFFFFFFFFFFFFFFFFFFFFFFFFFFFFFFFFF AND DUP2 MSTORE PUSH1 0x20 ADD SWAP1 DUP2 MSTORE PUSH1 0x20 ADD PUSH0 KECCAK256 SLOAD PUSH1 0x40 MLOAD PUSH2 0x51F SWAP3 SWAP2 SWAP1 PUSH2 0x984 JUMP JUMPDEST PUSH1 0x40 MLOAD DUP1 SWAP2 SUB SWAP1 LOG2 POP POP JUMP JUMPDEST PUSH0 PUSH0 PUSH0 DUP4 PUSH20 0xFFFFFFFFFFFFFFFFFFFFFFFFFFFFFFFFFFFFFFFF AND PUSH20 0xFFFFFFFFFFFFFFFFFFFFFFFFFFFFFFFFFFFFFFFF AND DUP2 MSTORE PUSH1 0x20 ADD SWAP1 DUP2 MSTORE PUSH1 0x20 ADD PUSH0 KECCAK256 SLOAD SWAP1 POP SWAP2 SWAP1 POP JUMP JUMPDEST PUSH1 0x3 SLOAD DUP2 JUMP JUMPDEST PUSH32 0x0 DUP2 JUMP JUMPDEST PUSH0 CALLVALUE SUB PUSH2 0x5D3 JUMPI PUSH1 0x40 MLOAD PUSH32 0x56316E8700000000000000000000000000000000000000000000000000000000 DUP2 MSTORE PUSH1 0x4 ADD PUSH1 0x40 MLOAD DUP1 SWAP2 SUB SWAP1 REVERT JUMPDEST PUSH0 CALLVALUE PUSH1 0x1 SLOAD PUSH2 0x5E2 SWAP2 SWAP1 PUSH2 0xB0B JUMP JUMPDEST SWAP1 POP PUSH32 0x0 DUP2 GT ISZERO PUSH2 0x678 JUMPI CALLVALUE PUSH1 0x1 SLOAD PUSH32 0x0 PUSH2 0x63B SWAP2 SWAP1 PUSH2 0x9D8 JUMP JUMPDEST PUSH1 0x40 MLOAD PUSH32 0x4274EF7700000000000000000000000000000000000000000000000000000000 DUP2 MSTORE PUSH1 0x4 ADD PUSH2 0x66F SWAP3 SWAP2 SWAP1 PUSH2 0x984 JUMP JUMPDEST PUSH1 0x40 MLOAD DUP1 SWAP2 SUB SWAP1 REVERT JUMPDEST CALLVALUE PUSH0 PUSH0 CALLER PUSH20 0xFFFFFFFFFFFFFFFFFFFFFFFFFFFFFFFFFFFFFFFF AND PUSH20 0xFFFFFFFFFFFFFFFFFFFFFFFFFFFFFFFFFFFFFFFF AND DUP2 MSTORE PUSH1 0x20 ADD SWAP1 DUP2 MSTORE PUSH1 0x20 ADD PUSH0 KECCAK256 PUSH0 DUP3 DUP3 SLOAD PUSH2 0x6C3 SWAP2 SWAP1 PUSH2 0xB0B JUMP JUMPDEST SWAP3 POP POP DUP2 SWAP1 SSTORE POP DUP1 PUSH1 0x1 DUP2 SWAP1 SSTORE POP PUSH1 0x2 PUSH0 DUP2 SLOAD DUP1 SWAP3 SWAP2 SWAP1 PUSH2 0x6E3 SWAP1 PUSH2 0xA0B JUMP JUMPDEST SWAP2 SWAP1 POP SSTORE POP CALLER PUSH20 0xFFFFFFFFFFFFFFFFFFFFFFFFFFFFFFFFFFFFFFFF AND PUSH32 0x90890809C654F11D6E72A28FA60149770A0D11EC6C92319D6CEB2BB0A4EA1A15 CALLVALUE PUSH0 PUSH0 CALLER PUSH20 0xFFFFFFFFFFFFFFFFFFFFFFFFFFFFFFFFFFFFFFFF AND PUSH20 0xFFFFFFFFFFFFFFFFFFFFFFFFFFFFFFFFFFFFFFFF AND DUP2 MSTORE PUSH1 0x20 ADD SWAP1 DUP2 MSTORE PUSH1 0x20 ADD PUSH0 KECCAK256 SLOAD PUSH1 0x40 MLOAD PUSH2 0x76C SWAP3 SWAP2 SWAP1 PUSH2 0x984 JUMP JUMPDEST PUSH1 0x40 MLOAD DUP1 SWAP2 SUB SWAP1 LOG2 POP JUMP JUMPDEST PUSH32 0x0 PUSH20 0xFFFFFFFFFFFFFFFFFFFFFFFFFFFFFFFFFFFFFFFF AND CALLER PUSH20 0xFFFFFFFFFFFFFFFFFFFFFFFFFFFFFFFFFFFFFFFF AND EQ PUSH2 0x7FC JUMPI PUSH1 0x40 MLOAD PUSH32 0x5FC483C500000000000000000000000000000000000000000000000000000000 DUP2 MSTORE PUSH1 0x4 ADD PUSH1 0x40 MLOAD DUP1 SWAP2 SUB SWAP1 REVERT JUMPDEST POP JUMP JUMPDEST PUSH32 0x0 DUP2 JUMP JUMPDEST PUSH32 0x0 DUP2 JUMP JUMPDEST PUSH1 0x1 SLOAD DUP2 JUMP JUMPDEST PUSH0 DUP2 SWAP1 POP SWAP2 SWAP1 POP JUMP JUMPDEST PUSH2 0x85F DUP2 PUSH2 0x84D JUMP JUMPDEST DUP3 MSTORE POP POP JUMP JUMPDEST PUSH0 PUSH1 0x20 DUP3 ADD SWAP1 POP PUSH2 0x878 PUSH0 DUP4 ADD DUP5 PUSH2 0x856 JUMP JUMPDEST SWAP3 SWAP2 POP POP JUMP JUMPDEST PUSH0 PUSH0 REVERT JUMPDEST PUSH2 0x88B DUP2 PUSH2 0x84D JUMP JUMPDEST DUP2 EQ PUSH2 0x895 JUMPI PUSH0 PUSH0 REVERT JUMPDEST POP JUMP JUMPDEST PUSH0 DUP2 CALLDATALOAD SWAP1 POP PUSH2 0x8A6 DUP2 PUSH2 0x882 JUMP JUMPDEST SWAP3 SWAP2 POP POP JUMP JUMPDEST PUSH0 PUSH1 0x20 DUP3 DUP5 SUB SLT ISZERO PUSH2 0x8C1 JUMPI PUSH2 0x8C0 PUSH2 0x87E JUMP JUMPDEST JUMPDEST PUSH0 PUSH2 0x8CE DUP5 DUP3 DUP6 ADD PUSH2 0x898 JUMP JUMPDEST SWAP2 POP POP SWAP3 SWAP2 POP POP JUMP JUMPDEST PUSH0 PUSH20 0xFFFFFFFFFFFFFFFFFFFFFFFFFFFFFFFFFFFFFFFF DUP3 AND SWAP1 POP SWAP2 SWAP1 POP JUMP JUMPDEST PUSH0 PUSH2 0x900 DUP3 PUSH2 0x8D7 JUMP JUMPDEST SWAP1 POP SWAP2 SWAP1 POP JUMP JUMPDEST PUSH2 0x910 DUP2 PUSH2 0x8F6 JUMP JUMPDEST DUP2 EQ PUSH2 0x91A JUMPI PUSH0 PUSH0 REVERT JUMPDEST POP JUMP JUMPDEST PUSH0 DUP2 CALLDATALOAD SWAP1 POP PUSH2 0x92B DUP2 PUSH2 0x907 JUMP JUMPDEST SWAP3 SWAP2 POP POP JUMP JUMPDEST PUSH0 PUSH1 0x20 DUP3 DUP5 SUB SLT ISZERO PUSH2 0x946 JUMPI PUSH2 0x945 PUSH2 0x87E JUMP JUMPDEST JUMPDEST PUSH0 PUSH2 0x953 DUP5 DUP3 DUP6 ADD PUSH2 0x91D JUMP JUMPDEST SWAP2 POP POP SWAP3 SWAP2 POP POP JUMP JUMPDEST PUSH2 0x965 DUP2 PUSH2 0x8F6 JUMP JUMPDEST DUP3 MSTORE POP POP JUMP JUMPDEST PUSH0 PUSH1 0x20 DUP3 ADD SWAP1 POP PUSH2 0x97E PUSH0 DUP4 ADD DUP5 PUSH2 0x95C JUMP JUMPDEST SWAP3 SWAP2 POP POP JUMP JUMPDEST PUSH0 PUSH1 0x40 DUP3 ADD SWAP1 POP PUSH2 0x997 PUSH0 DUP4 ADD DUP6 PUSH2 0x856 JUMP JUMPDEST PUSH2 0x9A4 PUSH1 0x20 DUP4 ADD DUP5 PUSH2 0x856 JUMP JUMPDEST SWAP4 SWAP3 POP POP POP JUMP JUMPDEST PUSH32 0x4E487B7100000000000000000000000000000000000000000000000000000000 PUSH0 MSTORE PUSH1 0x11 PUSH1 0x4 MSTORE PUSH1 0x24 PUSH0 REVERT JUMPDEST PUSH0 PUSH2 0x9E2 DUP3 PUSH2 0x84D JUMP JUMPDEST SWAP2 POP PUSH2 0x9ED DUP4 PUSH2 0x84D JUMP JUMPDEST SWAP3 POP DUP3 DUP3 SUB SWAP1 POP DUP2 DUP2 GT ISZERO PUSH2 0xA05 JUMPI PUSH2 0xA04 PUSH2 0x9AB JUMP JUMPDEST JUMPDEST SWAP3 SWAP2 POP POP JUMP JUMPDEST PUSH0 PUSH2 0xA15 DUP3 PUSH2 0x84D JUMP JUMPDEST SWAP2 POP PUSH32 0xFFFFFFFFFFFFFFFFFFFFFFFFFFFFFFFFFFFFFFFFFFFFFFFFFFFFFFFFFFFFFFFF DUP3 SUB PUSH2 0xA47 JUMPI PUSH2 0xA46 PUSH2 0x9AB JUMP JUMPDEST JUMPDEST PUSH1 0x1 DUP3 ADD SWAP1 POP SWAP2 SWAP1 POP JUMP JUMPDEST PUSH0 DUP2 SWAP1 POP SWAP3 SWAP2 POP POP JUMP JUMPDEST POP JUMP JUMPDEST PUSH0 PUSH2 0xA6A PUSH0 DUP4 PUSH2 0xA52 JUMP JUMPDEST SWAP2 POP PUSH2 0xA75 DUP3 PUSH2 0xA5C JUMP JUMPDEST PUSH0 DUP3 ADD SWAP1 POP SWAP2 SWAP1 POP JUMP JUMPDEST PUSH0 PUSH2 0xA89 DUP3 PUSH2 0xA5F JUMP JUMPDEST SWAP2 POP DUP2 SWAP1 POP SWAP2 SWAP1 POP JUMP JUMPDEST PUSH0 DUP3 DUP3 MSTORE PUSH1 0x20 DUP3 ADD SWAP1 POP SWAP3 SWAP2 POP POP JUMP JUMPDEST PUSH32 0x5472616E73666572206661696C65640000000000000000000000000000000000 PUSH0 DUP3 ADD MSTORE POP JUMP JUMPDEST PUSH0 PUSH2 0xAD7 PUSH1 0xF DUP4 PUSH2 0xA93 JUMP JUMPDEST SWAP2 POP PUSH2 0xAE2 DUP3 PUSH2 0xAA3 JUMP JUMPDEST PUSH1 0x20 DUP3 ADD SWAP1 POP SWAP2 SWAP1 POP JUMP JUMPDEST PUSH0 PUSH1 0x20 DUP3 ADD SWAP1 POP DUP2 DUP2 SUB PUSH0 DUP4 ADD MSTORE PUSH2 0xB04 DUP2 PUSH2 0xACB JUMP JUMPDEST SWAP1 POP SWAP2 SWAP1 POP JUMP JUMPDEST PUSH0 PUSH2 0xB15 DUP3 PUSH2 0x84D JUMP JUMPDEST SWAP2 POP PUSH2 0xB20 DUP4 PUSH2 0x84D JUMP JUMPDEST SWAP3 POP DUP3 DUP3 ADD SWAP1 POP DUP1 DUP3 GT ISZERO PUSH2 0xB38 JUMPI PUSH2 0xB37 PUSH2 0x9AB JUMP JUMPDEST JUMPDEST SWAP3 SWAP2 POP POP JUMP INVALID LOG2 PUSH5 0x6970667358 0x22 SLT KECCAK256 CREATE 0xC0 0xE8 0xB9 SELFDESTRUCT RJUMP 0x1B0D LOG3 0x25 PUSH22 0x77A6E61A2D0C55898A11B8CDB2B111F35E88EAA84C64 PUSH20 0x6F6C634300081E00330000000000000000000000 "
				},
				"gasEstimates": {
					"creation": {
						"codeDepositCost": "586400",
						"executionCost": "infinite",
						"totalCost": "infinite"
					},
					"external": {
						"balanceOf(address)": "2873",
						"bankCap()": "infinite",
						"deposit()": "infinite",
						"depositCount()": "2426",
						"increaseBankCapForDemo(uint256)": "infinite",
						"owner()": "infinite",
						"totalDeposited()": "2513",
						"withdraw(uint256)": "infinite",
						"withdrawLimit()": "infinite",
						"withdrawalCount()": "2492"
					},
					"internal": {
						"_availableCap()": "infinite"
					}
				},
				"methodIdentifiers": {
					"balanceOf(address)": "70a08231",
					"bankCap()": "ecbea24d",
					"deposit()": "d0e30db0",
					"depositCount()": "2dfdf0b5",
					"increaseBankCapForDemo(uint256)": "d3dac873",
					"owner()": "8da5cb5b",
					"totalDeposited()": "ff50abdc",
					"withdraw(uint256)": "2e1a7d4d",
					"withdrawLimit()": "f848d541",
					"withdrawalCount()": "71706cbe"
				}
			},
			"storageLayout": {
				"storage": [
					{
						"astId": 16,
						"contract": "contracts/KipuBank.sol:KipuBank",
						"label": "balances",
						"offset": 0,
						"slot": "0",
						"type": "t_mapping(t_address,t_uint256)"
					},
					{
						"astId": 19,
						"contract": "contracts/KipuBank.sol:KipuBank",
						"label": "totalDeposited",
						"offset": 0,
						"slot": "1",
						"type": "t_uint256"
					},
					{
						"astId": 22,
						"contract": "contracts/KipuBank.sol:KipuBank",
						"label": "depositCount",
						"offset": 0,
						"slot": "2",
						"type": "t_uint256"
					},
					{
						"astId": 24,
						"contract": "contracts/KipuBank.sol:KipuBank",
						"label": "withdrawalCount",
						"offset": 0,
						"slot": "3",
						"type": "t_uint256"
					}
				],
				"types": {
					"t_address": {
						"encoding": "inplace",
						"label": "address",
						"numberOfBytes": "20"
					},
					"t_mapping(t_address,t_uint256)": {
						"encoding": "mapping",
						"key": "t_address",
						"label": "mapping(address => uint256)",
						"numberOfBytes": "32",
						"value": "t_uint256"
					},
					"t_uint256": {
						"encoding": "inplace",
						"label": "uint256",
						"numberOfBytes": "32"
					}
				}
			},
			"userdoc": {
				"errors": {
					"ExceedsBankCap(uint256,uint256)": [
						{
							"notice": "Errores personalizados"
						}
					]
				},
				"events": {
					"Deposit(address,uint256,uint256)": {
						"notice": "Eventos para depósitos y retiros"
					}
				},
				"kind": "user",
				"methods": {
					"balanceOf(address)": {
						"notice": "Consulta saldo de cualquier usuario (view)"
					},
					"bankCap()": {
						"notice": "Límite máximo global de depósito / Global deposit cap"
					},
					"constructor": {
						"notice": "Constructor: define bankCap y withdrawLimit"
					},
					"deposit()": {
						"notice": "Deposita ETH en la bóveda del remitente (payable)"
					},
					"depositCount()": {
						"notice": "Contadores de operaciones"
					},
					"increaseBankCapForDemo(uint256)": {
						"notice": "Ejemplo de función solo-owner para demostrar modifier (opcional)"
					},
					"owner()": {
						"notice": "Propietario del contrato"
					},
					"totalDeposited()": {
						"notice": "Total depositado en el contrato"
					},
					"withdraw(uint256)": {
						"notice": "Retira ETH de la bóveda del remitente, respetando withdrawLimit"
					},
					"withdrawLimit()": {
						"notice": "Límite máximo de retiro por transacción / Withdraw limit per tx"
					}
				},
				"notice": "Smart contract / Contrato educativo para depósitos y retiros de ETH con límites y buenas prácticas.",
				"version": 1
			}
		}
	}
}