{
	"src/KipuBankV2.sol": {
		"KipuBankV2": {
			"abi": [
				{
					"inputs": [
						{
							"internalType": "address",
							"name": "_priceFeed",
							"type": "address"
						},
						{
							"internalType": "uint256",
							"name": "_bankCapUSD",
							"type": "uint256"
						}
					],
					"stateMutability": "nonpayable",
					"type": "constructor"
				},
				{
					"inputs": [],
					"name": "AccessControlBadConfirmation",
					"type": "error"
				},
				{
					"inputs": [
						{
							"internalType": "address",
							"name": "account",
							"type": "address"
						},
						{
							"internalType": "bytes32",
							"name": "neededRole",
							"type": "bytes32"
						}
					],
					"name": "AccessControlUnauthorizedAccount",
					"type": "error"
				},
				{
					"inputs": [],
					"name": "BankCapExceeded",
					"type": "error"
				},
				{
					"inputs": [],
					"name": "InsufficientBalance",
					"type": "error"
				},
				{
					"anonymous": false,
					"inputs": [
						{
							"indexed": false,
							"internalType": "uint256",
							"name": "newCap",
							"type": "uint256"
						}
					],
					"name": "BankCapUpdated",
					"type": "event"
				},
				{
					"anonymous": false,
					"inputs": [
						{
							"indexed": true,
							"internalType": "address",
							"name": "user",
							"type": "address"
						},
						{
							"indexed": true,
							"internalType": "address",
							"name": "token",
							"type": "address"
						},
						{
							"indexed": false,
							"internalType": "uint256",
							"name": "amount",
							"type": "uint256"
						}
					],
					"name": "Deposited",
					"type": "event"
				},
				{
					"anonymous": false,
					"inputs": [
						{
							"indexed": true,
							"internalType": "bytes32",
							"name": "role",
							"type": "bytes32"
						},
						{
							"indexed": true,
							"internalType": "bytes32",
							"name": "previousAdminRole",
							"type": "bytes32"
						},
						{
							"indexed": true,
							"internalType": "bytes32",
							"name": "newAdminRole",
							"type": "bytes32"
						}
					],
					"name": "RoleAdminChanged",
					"type": "event"
				},
				{
					"anonymous": false,
					"inputs": [
						{
							"indexed": true,
							"internalType": "bytes32",
							"name": "role",
							"type": "bytes32"
						},
						{
							"indexed": true,
							"internalType": "address",
							"name": "account",
							"type": "address"
						},
						{
							"indexed": true,
							"internalType": "address",
							"name": "sender",
							"type": "address"
						}
					],
					"name": "RoleGranted",
					"type": "event"
				},
				{
					"anonymous": false,
					"inputs": [
						{
							"indexed": true,
							"internalType": "bytes32",
							"name": "role",
							"type": "bytes32"
						},
						{
							"indexed": true,
							"internalType": "address",
							"name": "account",
							"type": "address"
						},
						{
							"indexed": true,
							"internalType": "address",
							"name": "sender",
							"type": "address"
						}
					],
					"name": "RoleRevoked",
					"type": "event"
				},
				{
					"anonymous": false,
					"inputs": [
						{
							"indexed": true,
							"internalType": "address",
							"name": "user",
							"type": "address"
						},
						{
							"indexed": true,
							"internalType": "address",
							"name": "token",
							"type": "address"
						},
						{
							"indexed": false,
							"internalType": "uint256",
							"name": "amount",
							"type": "uint256"
						}
					],
					"name": "Withdrawn",
					"type": "event"
				},
				{
					"inputs": [],
					"name": "BANK_MANAGER_ROLE",
					"outputs": [
						{
							"internalType": "bytes32",
							"name": "",
							"type": "bytes32"
						}
					],
					"stateMutability": "view",
					"type": "function"
				},
				{
					"inputs": [],
					"name": "DEFAULT_ADMIN_ROLE",
					"outputs": [
						{
							"internalType": "bytes32",
							"name": "",
							"type": "bytes32"
						}
					],
					"stateMutability": "view",
					"type": "function"
				},
				{
					"inputs": [],
					"name": "USDC_DECIMALS",
					"outputs": [
						{
							"internalType": "uint8",
							"name": "",
							"type": "uint8"
						}
					],
					"stateMutability": "view",
					"type": "function"
				},
				{
					"inputs": [
						{
							"internalType": "address",
							"name": "",
							"type": "address"
						},
						{
							"internalType": "address",
							"name": "",
							"type": "address"
						}
					],
					"name": "balances",
					"outputs": [
						{
							"internalType": "uint256",
							"name": "",
							"type": "uint256"
						}
					],
					"stateMutability": "view",
					"type": "function"
				},
				{
					"inputs": [],
					"name": "bankCapUSD",
					"outputs": [
						{
							"internalType": "uint256",
							"name": "",
							"type": "uint256"
						}
					],
					"stateMutability": "view",
					"type": "function"
				},
				{
					"inputs": [],
					"name": "depositETH",
					"outputs": [],
					"stateMutability": "payable",
					"type": "function"
				},
				{
					"inputs": [
						{
							"internalType": "address",
							"name": "token",
							"type": "address"
						},
						{
							"internalType": "uint256",
							"name": "amount",
							"type": "uint256"
						}
					],
					"name": "depositToken",
					"outputs": [],
					"stateMutability": "nonpayable",
					"type": "function"
				},
				{
					"inputs": [
						{
							"internalType": "bytes32",
							"name": "role",
							"type": "bytes32"
						}
					],
					"name": "getRoleAdmin",
					"outputs": [
						{
							"internalType": "bytes32",
							"name": "",
							"type": "bytes32"
						}
					],
					"stateMutability": "view",
					"type": "function"
				},
				{
					"inputs": [
						{
							"internalType": "bytes32",
							"name": "role",
							"type": "bytes32"
						},
						{
							"internalType": "address",
							"name": "account",
							"type": "address"
						}
					],
					"name": "grantRole",
					"outputs": [],
					"stateMutability": "nonpayable",
					"type": "function"
				},
				{
					"inputs": [
						{
							"internalType": "bytes32",
							"name": "role",
							"type": "bytes32"
						},
						{
							"internalType": "address",
							"name": "account",
							"type": "address"
						}
					],
					"name": "hasRole",
					"outputs": [
						{
							"internalType": "bool",
							"name": "",
							"type": "bool"
						}
					],
					"stateMutability": "view",
					"type": "function"
				},
				{
					"inputs": [],
					"name": "priceFeed",
					"outputs": [
						{
							"internalType": "contract AggregatorV3Interface",
							"name": "",
							"type": "address"
						}
					],
					"stateMutability": "view",
					"type": "function"
				},
				{
					"inputs": [
						{
							"internalType": "bytes32",
							"name": "role",
							"type": "bytes32"
						},
						{
							"internalType": "address",
							"name": "callerConfirmation",
							"type": "address"
						}
					],
					"name": "renounceRole",
					"outputs": [],
					"stateMutability": "nonpayable",
					"type": "function"
				},
				{
					"inputs": [
						{
							"internalType": "bytes32",
							"name": "role",
							"type": "bytes32"
						},
						{
							"internalType": "address",
							"name": "account",
							"type": "address"
						}
					],
					"name": "revokeRole",
					"outputs": [],
					"stateMutability": "nonpayable",
					"type": "function"
				},
				{
					"inputs": [
						{
							"internalType": "bytes4",
							"name": "interfaceId",
							"type": "bytes4"
						}
					],
					"name": "supportsInterface",
					"outputs": [
						{
							"internalType": "bool",
							"name": "",
							"type": "bool"
						}
					],
					"stateMutability": "view",
					"type": "function"
				},
				{
					"inputs": [],
					"name": "totalDepositedUSD",
					"outputs": [
						{
							"internalType": "uint256",
							"name": "",
							"type": "uint256"
						}
					],
					"stateMutability": "view",
					"type": "function"
				},
				{
					"inputs": [
						{
							"internalType": "uint256",
							"name": "newCap",
							"type": "uint256"
						}
					],
					"name": "updateBankCap",
					"outputs": [],
					"stateMutability": "nonpayable",
					"type": "function"
				},
				{
					"inputs": [
						{
							"internalType": "uint256",
							"name": "amount",
							"type": "uint256"
						}
					],
					"name": "withdrawETH",
					"outputs": [],
					"stateMutability": "nonpayable",
					"type": "function"
				},
				{
					"inputs": [
						{
							"internalType": "address",
							"name": "token",
							"type": "address"
						},
						{
							"internalType": "uint256",
							"name": "amount",
							"type": "uint256"
						}
					],
					"name": "withdrawToken",
					"outputs": [],
					"stateMutability": "nonpayable",
					"type": "function"
				},
				{
					"stateMutability": "payable",
					"type": "receive"
				}
			],
			"devdoc": {
				"author": "[Tu nombre]",
				"errors": {
					"AccessControlBadConfirmation()": [
						{
							"details": "The caller of a function is not the expected one. NOTE: Don't confuse with {AccessControlUnauthorizedAccount}."
						}
					],
					"AccessControlUnauthorizedAccount(address,bytes32)": [
						{
							"details": "The `account` is missing a role."
						}
					]
				},
				"events": {
					"RoleAdminChanged(bytes32,bytes32,bytes32)": {
						"details": "Emitted when `newAdminRole` is set as ``role``'s admin role, replacing `previousAdminRole` `DEFAULT_ADMIN_ROLE` is the starting admin for all roles, despite {RoleAdminChanged} not being emitted to signal this."
					},
					"RoleGranted(bytes32,address,address)": {
						"details": "Emitted when `account` is granted `role`. `sender` is the account that originated the contract call. This account bears the admin role (for the granted role). Expected in cases where the role was granted using the internal {AccessControl-_grantRole}."
					},
					"RoleRevoked(bytes32,address,address)": {
						"details": "Emitted when `account` is revoked `role`. `sender` is the account that originated the contract call:   - if using `revokeRole`, it is the admin role bearer   - if using `renounceRole`, it is the role bearer (i.e. `account`)"
					}
				},
				"kind": "dev",
				"methods": {
					"getRoleAdmin(bytes32)": {
						"details": "Returns the admin role that controls `role`. See {grantRole} and {revokeRole}. To change a role's admin, use {_setRoleAdmin}."
					},
					"grantRole(bytes32,address)": {
						"details": "Grants `role` to `account`. If `account` had not been already granted `role`, emits a {RoleGranted} event. Requirements: - the caller must have ``role``'s admin role. May emit a {RoleGranted} event."
					},
					"hasRole(bytes32,address)": {
						"details": "Returns `true` if `account` has been granted `role`."
					},
					"renounceRole(bytes32,address)": {
						"details": "Revokes `role` from the calling account. Roles are often managed via {grantRole} and {revokeRole}: this function's purpose is to provide a mechanism for accounts to lose their privileges if they are compromised (such as when a trusted device is misplaced). If the calling account had been revoked `role`, emits a {RoleRevoked} event. Requirements: - the caller must be `callerConfirmation`. May emit a {RoleRevoked} event."
					},
					"revokeRole(bytes32,address)": {
						"details": "Revokes `role` from `account`. If `account` had been granted `role`, emits a {RoleRevoked} event. Requirements: - the caller must have ``role``'s admin role. May emit a {RoleRevoked} event."
					},
					"supportsInterface(bytes4)": {
						"details": "Returns true if this contract implements the interface defined by `interfaceId`. See the corresponding https://eips.ethereum.org/EIPS/eip-165#how-interfaces-are-identified[ERC section] to learn more about how these ids are created. This function call must use less than 30 000 gas."
					}
				},
				"title": "KipuBankV2",
				"version": 1
			},
			"evm": {
				"assembly": "    /* \"src/KipuBankV2.sol\":553:4259  contract KipuBankV2 is AccessControl, ReentrancyGuard {... */\n  mstore(0x40, 0xa0)\n    /* \"src/KipuBankV2.sol\":1504:1761  constructor(address _priceFeed, uint256 _bankCapUSD) {... */\n  callvalue\n  dup1\n  iszero\n  tag_1\n  jumpi\n  revert(0x00, 0x00)\ntag_1:\n  pop\n  mload(0x40)\n  sub(codesize, bytecodeSize)\n  dup1\n  bytecodeSize\n  dup4\n  codecopy\n  dup2\n  dup2\n  add\n  0x40\n  mstore\n  dup2\n  add\n  swap1\n  tag_2\n  swap2\n  swap1\n  tag_3\n  jump\t// in\ntag_2:\n    /* \"@openzeppelin/contracts/security/ReentrancyGuard.sol\":1716:1717  1 */\n  0x01\n    /* \"@openzeppelin/contracts/security/ReentrancyGuard.sol\":1821:1828  _status */\n  dup1\n    /* \"@openzeppelin/contracts/security/ReentrancyGuard.sol\":1821:1843  _status = _NOT_ENTERED */\n  dup2\n  swap1\n  sstore\n  pop\n    /* \"src/KipuBankV2.sol\":1568:1610  _grantRole(DEFAULT_ADMIN_ROLE, msg.sender) */\n  tag_8\n    /* \"@openzeppelin/contracts/access/AccessControl.sol\":2241:2245  0x00 */\n  0x00\n    /* \"src/KipuBankV2.sol\":1579:1597  DEFAULT_ADMIN_ROLE */\n  0x00\n  shl\n    /* \"src/KipuBankV2.sol\":1599:1609  msg.sender */\n  caller\n    /* \"src/KipuBankV2.sol\":1568:1578  _grantRole */\n  shl(0x20, tag_9)\n    /* \"src/KipuBankV2.sol\":1568:1610  _grantRole(DEFAULT_ADMIN_ROLE, msg.sender) */\n  0x20\n  shr\n  jump\t// in\ntag_8:\n  pop\n    /* \"src/KipuBankV2.sol\":1621:1662  _grantRole(BANK_MANAGER_ROLE, msg.sender) */\n  tag_10\n    /* \"src/KipuBankV2.sol\":680:710  keccak256(\"BANK_MANAGER_ROLE\") */\n  0x2d95a8186db49da8bd2356c70cf02038f7de0d6ed39f6766fe2d93d5e7785616\n    /* \"src/KipuBankV2.sol\":1651:1661  msg.sender */\n  caller\n    /* \"src/KipuBankV2.sol\":1621:1631  _grantRole */\n  shl(0x20, tag_9)\n    /* \"src/KipuBankV2.sol\":1621:1662  _grantRole(BANK_MANAGER_ROLE, msg.sender) */\n  0x20\n  shr\n  jump\t// in\ntag_10:\n  pop\n    /* \"src/KipuBankV2.sol\":1707:1717  _priceFeed */\n  dup2\n    /* \"src/KipuBankV2.sol\":1673:1718  priceFeed = AggregatorV3Interface(_priceFeed) */\n  0xffffffffffffffffffffffffffffffffffffffff\n  and\n  0x80\n  dup2\n  0xffffffffffffffffffffffffffffffffffffffff\n  and\n  dup2\n  mstore\n  pop\n  pop\n    /* \"src/KipuBankV2.sol\":1742:1753  _bankCapUSD */\n  dup1\n    /* \"src/KipuBankV2.sol\":1729:1739  bankCapUSD */\n  0x02\n    /* \"src/KipuBankV2.sol\":1729:1753  bankCapUSD = _bankCapUSD */\n  dup2\n  swap1\n  sstore\n  pop\n    /* \"src/KipuBankV2.sol\":1504:1761  constructor(address _priceFeed, uint256 _bankCapUSD) {... */\n  pop\n  pop\n    /* \"src/KipuBankV2.sol\":553:4259  contract KipuBankV2 is AccessControl, ReentrancyGuard {... */\n  jump(tag_11)\n    /* \"@openzeppelin/contracts/access/AccessControl.sol\":6155:6471  function _grantRole(bytes32 role, address account) internal virtual returns (bool) {... */\ntag_9:\n    /* \"@openzeppelin/contracts/access/AccessControl.sol\":6232:6236  bool */\n  0x00\n    /* \"@openzeppelin/contracts/access/AccessControl.sol\":6253:6275  hasRole(role, account) */\n  tag_13\n    /* \"@openzeppelin/contracts/access/AccessControl.sol\":6261:6265  role */\n  dup4\n    /* \"@openzeppelin/contracts/access/AccessControl.sol\":6267:6274  account */\n  dup4\n    /* \"@openzeppelin/contracts/access/AccessControl.sol\":6253:6260  hasRole */\n  shl(0x20, tag_14)\n    /* \"@openzeppelin/contracts/access/AccessControl.sol\":6253:6275  hasRole(role, account) */\n  0x20\n  shr\n  jump\t// in\ntag_13:\n    /* \"@openzeppelin/contracts/access/AccessControl.sol\":6248:6465  if (!hasRole(role, account)) {... */\n  tag_15\n  jumpi\n    /* \"@openzeppelin/contracts/access/AccessControl.sol\":6323:6327  true */\n  0x01\n    /* \"@openzeppelin/contracts/access/AccessControl.sol\":6291:6297  _roles */\n  0x00\n    /* \"@openzeppelin/contracts/access/AccessControl.sol\":6291:6303  _roles[role] */\n  0x00\n    /* \"@openzeppelin/contracts/access/AccessControl.sol\":6298:6302  role */\n  dup6\n    /* \"@openzeppelin/contracts/access/AccessControl.sol\":6291:6303  _roles[role] */\n  dup2\n  mstore\n  0x20\n  add\n  swap1\n  dup2\n  mstore\n  0x20\n  add\n  0x00\n  keccak256\n    /* \"@openzeppelin/contracts/access/AccessControl.sol\":6291:6311  _roles[role].hasRole */\n  0x00\n  add\n    /* \"@openzeppelin/contracts/access/AccessControl.sol\":6291:6320  _roles[role].hasRole[account] */\n  0x00\n    /* \"@openzeppelin/contracts/access/AccessControl.sol\":6312:6319  account */\n  dup5\n    /* \"@openzeppelin/contracts/access/AccessControl.sol\":6291:6320  _roles[role].hasRole[account] */\n  0xffffffffffffffffffffffffffffffffffffffff\n  and\n  0xffffffffffffffffffffffffffffffffffffffff\n  and\n  dup2\n  mstore\n  0x20\n  add\n  swap1\n  dup2\n  mstore\n  0x20\n  add\n  0x00\n  keccak256\n  0x00\n    /* \"@openzeppelin/contracts/access/AccessControl.sol\":6291:6327  _roles[role].hasRole[account] = true */\n  0x0100\n  exp\n  dup2\n  sload\n  dup2\n  0xff\n  mul\n  not\n  and\n  swap1\n  dup4\n  iszero\n  iszero\n  mul\n  or\n  swap1\n  sstore\n  pop\n    /* \"@openzeppelin/contracts/access/AccessControl.sol\":6373:6385  _msgSender() */\n  tag_16\n    /* \"@openzeppelin/contracts/access/AccessControl.sol\":6373:6383  _msgSender */\n  shl(0x20, tag_17)\n    /* \"@openzeppelin/contracts/access/AccessControl.sol\":6373:6385  _msgSender() */\n  0x20\n  shr\n  jump\t// in\ntag_16:\n    /* \"@openzeppelin/contracts/access/AccessControl.sol\":6346:6386  RoleGranted(role, account, _msgSender()) */\n  0xffffffffffffffffffffffffffffffffffffffff\n  and\n    /* \"@openzeppelin/contracts/access/AccessControl.sol\":6364:6371  account */\n  dup3\n    /* \"@openzeppelin/contracts/access/AccessControl.sol\":6346:6386  RoleGranted(role, account, _msgSender()) */\n  0xffffffffffffffffffffffffffffffffffffffff\n  and\n    /* \"@openzeppelin/contracts/access/AccessControl.sol\":6358:6362  role */\n  dup5\n    /* \"@openzeppelin/contracts/access/AccessControl.sol\":6346:6386  RoleGranted(role, account, _msgSender()) */\n  0x2f8788117e7eff1d82e926ec794901d17c78024a50270940304540a733656f0d\n  mload(0x40)\n  mload(0x40)\n  dup1\n  swap2\n  sub\n  swap1\n  log4\n    /* \"@openzeppelin/contracts/access/AccessControl.sol\":6407:6411  true */\n  0x01\n    /* \"@openzeppelin/contracts/access/AccessControl.sol\":6400:6411  return true */\n  swap1\n  pop\n  jump(tag_12)\n    /* \"@openzeppelin/contracts/access/AccessControl.sol\":6248:6465  if (!hasRole(role, account)) {... */\ntag_15:\n    /* \"@openzeppelin/contracts/access/AccessControl.sol\":6449:6454  false */\n  0x00\n    /* \"@openzeppelin/contracts/access/AccessControl.sol\":6442:6454  return false */\n  swap1\n  pop\n    /* \"@openzeppelin/contracts/access/AccessControl.sol\":6155:6471  function _grantRole(bytes32 role, address account) internal virtual returns (bool) {... */\ntag_12:\n  swap3\n  swap2\n  pop\n  pop\n  jump\t// out\n    /* \"@openzeppelin/contracts/access/AccessControl.sol\":2830:2966  function hasRole(bytes32 role, address account) public view virtual returns (bool) {... */\ntag_14:\n    /* \"@openzeppelin/contracts/access/AccessControl.sol\":2907:2911  bool */\n  0x00\n    /* \"@openzeppelin/contracts/access/AccessControl.sol\":2930:2936  _roles */\n  0x00\n    /* \"@openzeppelin/contracts/access/AccessControl.sol\":2930:2942  _roles[role] */\n  0x00\n    /* \"@openzeppelin/contracts/access/AccessControl.sol\":2937:2941  role */\n  dup5\n    /* \"@openzeppelin/contracts/access/AccessControl.sol\":2930:2942  _roles[role] */\n  dup2\n  mstore\n  0x20\n  add\n  swap1\n  dup2\n  mstore\n  0x20\n  add\n  0x00\n  keccak256\n    /* \"@openzeppelin/contracts/access/AccessControl.sol\":2930:2950  _roles[role].hasRole */\n  0x00\n  add\n    /* \"@openzeppelin/contracts/access/AccessControl.sol\":2930:2959  _roles[role].hasRole[account] */\n  0x00\n    /* \"@openzeppelin/contracts/access/AccessControl.sol\":2951:2958  account */\n  dup4\n    /* \"@openzeppelin/contracts/access/AccessControl.sol\":2930:2959  _roles[role].hasRole[account] */\n  0xffffffffffffffffffffffffffffffffffffffff\n  and\n  0xffffffffffffffffffffffffffffffffffffffff\n  and\n  dup2\n  mstore\n  0x20\n  add\n  swap1\n  dup2\n  mstore\n  0x20\n  add\n  0x00\n  keccak256\n  0x00\n  swap1\n  sload\n  swap1\n  0x0100\n  exp\n  swap1\n  div\n  0xff\n  and\n    /* \"@openzeppelin/contracts/access/AccessControl.sol\":2923:2959  return _roles[role].hasRole[account] */\n  swap1\n  pop\n    /* \"@openzeppelin/contracts/access/AccessControl.sol\":2830:2966  function hasRole(bytes32 role, address account) public view virtual returns (bool) {... */\n  swap3\n  swap2\n  pop\n  pop\n  jump\t// out\n    /* \"@openzeppelin/contracts/utils/Context.sol\":656:752  function _msgSender() internal view virtual returns (address) {... */\ntag_17:\n    /* \"@openzeppelin/contracts/utils/Context.sol\":709:716  address */\n  0x00\n    /* \"@openzeppelin/contracts/utils/Context.sol\":735:745  msg.sender */\n  caller\n    /* \"@openzeppelin/contracts/utils/Context.sol\":728:745  return msg.sender */\n  swap1\n  pop\n    /* \"@openzeppelin/contracts/utils/Context.sol\":656:752  function _msgSender() internal view virtual returns (address) {... */\n  swap1\n  jump\t// out\n    /* \"#utility.yul\":88:205   */\ntag_22:\n    /* \"#utility.yul\":197:198   */\n  0x00\n    /* \"#utility.yul\":194:195   */\n  0x00\n    /* \"#utility.yul\":187:199   */\n  revert\n    /* \"#utility.yul\":334:460   */\ntag_24:\n    /* \"#utility.yul\":371:378   */\n  0x00\n    /* \"#utility.yul\":411:453   */\n  0xffffffffffffffffffffffffffffffffffffffff\n    /* \"#utility.yul\":404:409   */\n  dup3\n    /* \"#utility.yul\":400:454   */\n  and\n    /* \"#utility.yul\":389:454   */\n  swap1\n  pop\n    /* \"#utility.yul\":334:460   */\n  swap2\n  swap1\n  pop\n  jump\t// out\n    /* \"#utility.yul\":466:562   */\ntag_25:\n    /* \"#utility.yul\":503:510   */\n  0x00\n    /* \"#utility.yul\":532:556   */\n  tag_37\n    /* \"#utility.yul\":550:555   */\n  dup3\n    /* \"#utility.yul\":532:556   */\n  tag_24\n  jump\t// in\ntag_37:\n    /* \"#utility.yul\":521:556   */\n  swap1\n  pop\n    /* \"#utility.yul\":466:562   */\n  swap2\n  swap1\n  pop\n  jump\t// out\n    /* \"#utility.yul\":568:690   */\ntag_26:\n    /* \"#utility.yul\":641:665   */\n  tag_39\n    /* \"#utility.yul\":659:664   */\n  dup2\n    /* \"#utility.yul\":641:665   */\n  tag_25\n  jump\t// in\ntag_39:\n    /* \"#utility.yul\":634:639   */\n  dup2\n    /* \"#utility.yul\":631:666   */\n  eq\n    /* \"#utility.yul\":621:684   */\n  tag_40\n  jumpi\n    /* \"#utility.yul\":680:681   */\n  0x00\n    /* \"#utility.yul\":677:678   */\n  0x00\n    /* \"#utility.yul\":670:682   */\n  revert\n    /* \"#utility.yul\":621:684   */\ntag_40:\n    /* \"#utility.yul\":568:690   */\n  pop\n  jump\t// out\n    /* \"#utility.yul\":696:839   */\ntag_27:\n    /* \"#utility.yul\":753:758   */\n  0x00\n    /* \"#utility.yul\":784:790   */\n  dup2\n    /* \"#utility.yul\":778:791   */\n  mload\n    /* \"#utility.yul\":769:791   */\n  swap1\n  pop\n    /* \"#utility.yul\":800:833   */\n  tag_42\n    /* \"#utility.yul\":827:832   */\n  dup2\n    /* \"#utility.yul\":800:833   */\n  tag_26\n  jump\t// in\ntag_42:\n    /* \"#utility.yul\":696:839   */\n  swap3\n  swap2\n  pop\n  pop\n  jump\t// out\n    /* \"#utility.yul\":845:922   */\ntag_28:\n    /* \"#utility.yul\":882:889   */\n  0x00\n    /* \"#utility.yul\":911:916   */\n  dup2\n    /* \"#utility.yul\":900:916   */\n  swap1\n  pop\n    /* \"#utility.yul\":845:922   */\n  swap2\n  swap1\n  pop\n  jump\t// out\n    /* \"#utility.yul\":928:1050   */\ntag_29:\n    /* \"#utility.yul\":1001:1025   */\n  tag_45\n    /* \"#utility.yul\":1019:1024   */\n  dup2\n    /* \"#utility.yul\":1001:1025   */\n  tag_28\n  jump\t// in\ntag_45:\n    /* \"#utility.yul\":994:999   */\n  dup2\n    /* \"#utility.yul\":991:1026   */\n  eq\n    /* \"#utility.yul\":981:1044   */\n  tag_46\n  jumpi\n    /* \"#utility.yul\":1040:1041   */\n  0x00\n    /* \"#utility.yul\":1037:1038   */\n  0x00\n    /* \"#utility.yul\":1030:1042   */\n  revert\n    /* \"#utility.yul\":981:1044   */\ntag_46:\n    /* \"#utility.yul\":928:1050   */\n  pop\n  jump\t// out\n    /* \"#utility.yul\":1056:1199   */\ntag_30:\n    /* \"#utility.yul\":1113:1118   */\n  0x00\n    /* \"#utility.yul\":1144:1150   */\n  dup2\n    /* \"#utility.yul\":1138:1151   */\n  mload\n    /* \"#utility.yul\":1129:1151   */\n  swap1\n  pop\n    /* \"#utility.yul\":1160:1193   */\n  tag_48\n    /* \"#utility.yul\":1187:1192   */\n  dup2\n    /* \"#utility.yul\":1160:1193   */\n  tag_29\n  jump\t// in\ntag_48:\n    /* \"#utility.yul\":1056:1199   */\n  swap3\n  swap2\n  pop\n  pop\n  jump\t// out\n    /* \"#utility.yul\":1205:1712   */\ntag_3:\n    /* \"#utility.yul\":1284:1290   */\n  0x00\n    /* \"#utility.yul\":1292:1298   */\n  0x00\n    /* \"#utility.yul\":1341:1343   */\n  0x40\n    /* \"#utility.yul\":1329:1338   */\n  dup4\n    /* \"#utility.yul\":1320:1327   */\n  dup6\n    /* \"#utility.yul\":1316:1339   */\n  sub\n    /* \"#utility.yul\":1312:1344   */\n  slt\n    /* \"#utility.yul\":1309:1428   */\n  iszero\n  tag_50\n  jumpi\n    /* \"#utility.yul\":1347:1426   */\n  tag_51\n  tag_22\n  jump\t// in\ntag_51:\n    /* \"#utility.yul\":1309:1428   */\ntag_50:\n    /* \"#utility.yul\":1467:1468   */\n  0x00\n    /* \"#utility.yul\":1492:1556   */\n  tag_52\n    /* \"#utility.yul\":1548:1555   */\n  dup6\n    /* \"#utility.yul\":1539:1545   */\n  dup3\n    /* \"#utility.yul\":1528:1537   */\n  dup7\n    /* \"#utility.yul\":1524:1546   */\n  add\n    /* \"#utility.yul\":1492:1556   */\n  tag_27\n  jump\t// in\ntag_52:\n    /* \"#utility.yul\":1482:1556   */\n  swap3\n  pop\n    /* \"#utility.yul\":1438:1566   */\n  pop\n    /* \"#utility.yul\":1605:1607   */\n  0x20\n    /* \"#utility.yul\":1631:1695   */\n  tag_53\n    /* \"#utility.yul\":1687:1694   */\n  dup6\n    /* \"#utility.yul\":1678:1684   */\n  dup3\n    /* \"#utility.yul\":1667:1676   */\n  dup7\n    /* \"#utility.yul\":1663:1685   */\n  add\n    /* \"#utility.yul\":1631:1695   */\n  tag_30\n  jump\t// in\ntag_53:\n    /* \"#utility.yul\":1621:1695   */\n  swap2\n  pop\n    /* \"#utility.yul\":1576:1705   */\n  pop\n    /* \"#utility.yul\":1205:1712   */\n  swap3\n  pop\n  swap3\n  swap1\n  pop\n  jump\t// out\n    /* \"src/KipuBankV2.sol\":553:4259  contract KipuBankV2 is AccessControl, ReentrancyGuard {... */\ntag_11:\n  mload(0x80)\n  codecopy(0x00, dataOffset(sub_0), dataSize(sub_0))\n  0x00\n  assignImmutable(\"0x93dd292f7ee8601da84dba340760745f2077401121920485992373f69e034950\")\n  return(0x00, dataSize(sub_0))\nstop\n\nsub_0: assembly {\n        /* \"src/KipuBankV2.sol\":553:4259  contract KipuBankV2 is AccessControl, ReentrancyGuard {... */\n      mstore(0x40, 0x80)\n      jumpi(tag_1, lt(calldatasize, 0x04))\n      shr(0xe0, calldataload(0x00))\n      dup1\n      0x9e281a98\n      gt\n      tag_21\n      jumpi\n      dup1\n      0xd547741f\n      gt\n      tag_22\n      jumpi\n      dup1\n      0xd547741f\n      eq\n      tag_16\n      jumpi\n      dup1\n      0xeea88c51\n      eq\n      tag_17\n      jumpi\n      dup1\n      0xf14210a6\n      eq\n      tag_18\n      jumpi\n      dup1\n      0xf2157052\n      eq\n      tag_19\n      jumpi\n      dup1\n      0xf6326fb3\n      eq\n      tag_20\n      jumpi\n      jump(tag_2)\n    tag_22:\n      dup1\n      0x9e281a98\n      eq\n      tag_12\n      jumpi\n      dup1\n      0xa217fddf\n      eq\n      tag_13\n      jumpi\n      dup1\n      0xc1419def\n      eq\n      tag_14\n      jumpi\n      dup1\n      0xc23f001f\n      eq\n      tag_15\n      jumpi\n      jump(tag_2)\n    tag_21:\n      dup1\n      0x338b5dea\n      gt\n      tag_23\n      jumpi\n      dup1\n      0x338b5dea\n      eq\n      tag_7\n      jumpi\n      dup1\n      0x36568abe\n      eq\n      tag_8\n      jumpi\n      dup1\n      0x5151b68c\n      eq\n      tag_9\n      jumpi\n      dup1\n      0x741bef1a\n      eq\n      tag_10\n      jumpi\n      dup1\n      0x91d14854\n      eq\n      tag_11\n      jumpi\n      jump(tag_2)\n    tag_23:\n      dup1\n      0x01ffc9a7\n      eq\n      tag_3\n      jumpi\n      dup1\n      0x18c8cfbe\n      eq\n      tag_4\n      jumpi\n      dup1\n      0x248a9ca3\n      eq\n      tag_5\n      jumpi\n      dup1\n      0x2f2ff15d\n      eq\n      tag_6\n      jumpi\n      jump(tag_2)\n    tag_1:\n      jumpi(tag_2, calldatasize)\n        /* \"src/KipuBankV2.sol\":4236:4248  depositETH() */\n      tag_26\n        /* \"src/KipuBankV2.sol\":4236:4246  depositETH */\n      tag_27\n        /* \"src/KipuBankV2.sol\":4236:4248  depositETH() */\n      jump\t// in\n    tag_26:\n        /* \"src/KipuBankV2.sol\":553:4259  contract KipuBankV2 is AccessControl, ReentrancyGuard {... */\n      stop\n    tag_2:\n      revert(0x00, 0x00)\n        /* \"@openzeppelin/contracts/access/AccessControl.sol\":2541:2743  function supportsInterface(bytes4 interfaceId) public view virtual override returns (bool) {... */\n    tag_3:\n      callvalue\n      dup1\n      iszero\n      tag_28\n      jumpi\n      revert(0x00, 0x00)\n    tag_28:\n      pop\n      tag_29\n      0x04\n      dup1\n      calldatasize\n      sub\n      dup2\n      add\n      swap1\n      tag_30\n      swap2\n      swap1\n      tag_31\n      jump\t// in\n    tag_30:\n      tag_32\n      jump\t// in\n    tag_29:\n      mload(0x40)\n      tag_33\n      swap2\n      swap1\n      tag_34\n      jump\t// in\n    tag_33:\n      mload(0x40)\n      dup1\n      swap2\n      sub\n      swap1\n      return\n        /* \"src/KipuBankV2.sol\":924:949  uint256 public bankCapUSD */\n    tag_4:\n      callvalue\n      dup1\n      iszero\n      tag_35\n      jumpi\n      revert(0x00, 0x00)\n    tag_35:\n      pop\n      tag_36\n      tag_37\n      jump\t// in\n    tag_36:\n      mload(0x40)\n      tag_38\n      swap2\n      swap1\n      tag_39\n      jump\t// in\n    tag_38:\n      mload(0x40)\n      dup1\n      swap2\n      sub\n      swap1\n      return\n        /* \"@openzeppelin/contracts/access/AccessControl.sol\":3786:3906  function getRoleAdmin(bytes32 role) public view virtual returns (bytes32) {... */\n    tag_5:\n      callvalue\n      dup1\n      iszero\n      tag_40\n      jumpi\n      revert(0x00, 0x00)\n    tag_40:\n      pop\n      tag_41\n      0x04\n      dup1\n      calldatasize\n      sub\n      dup2\n      add\n      swap1\n      tag_42\n      swap2\n      swap1\n      tag_43\n      jump\t// in\n    tag_42:\n      tag_44\n      jump\t// in\n    tag_41:\n      mload(0x40)\n      tag_45\n      swap2\n      swap1\n      tag_46\n      jump\t// in\n    tag_45:\n      mload(0x40)\n      dup1\n      swap2\n      sub\n      swap1\n      return\n        /* \"@openzeppelin/contracts/access/AccessControl.sol\":4202:4338  function grantRole(bytes32 role, address account) public virtual onlyRole(getRoleAdmin(role)) {... */\n    tag_6:\n      callvalue\n      dup1\n      iszero\n      tag_47\n      jumpi\n      revert(0x00, 0x00)\n    tag_47:\n      pop\n      tag_48\n      0x04\n      dup1\n      calldatasize\n      sub\n      dup2\n      add\n      swap1\n      tag_49\n      swap2\n      swap1\n      tag_50\n      jump\t// in\n    tag_49:\n      tag_51\n      jump\t// in\n    tag_48:\n      stop\n        /* \"src/KipuBankV2.sol\":2168:2666  function depositToken(address token, uint256 amount) external nonReentrant {... */\n    tag_7:\n      callvalue\n      dup1\n      iszero\n      tag_52\n      jumpi\n      revert(0x00, 0x00)\n    tag_52:\n      pop\n      tag_53\n      0x04\n      dup1\n      calldatasize\n      sub\n      dup2\n      add\n      swap1\n      tag_54\n      swap2\n      swap1\n      tag_55\n      jump\t// in\n    tag_54:\n      tag_56\n      jump\t// in\n    tag_53:\n      stop\n        /* \"@openzeppelin/contracts/access/AccessControl.sol\":5304:5549  function renounceRole(bytes32 role, address callerConfirmation) public virtual {... */\n    tag_8:\n      callvalue\n      dup1\n      iszero\n      tag_57\n      jumpi\n      revert(0x00, 0x00)\n    tag_57:\n      pop\n      tag_58\n      0x04\n      dup1\n      calldatasize\n      sub\n      dup2\n      add\n      swap1\n      tag_59\n      swap2\n      swap1\n      tag_50\n      jump\t// in\n    tag_59:\n      tag_60\n      jump\t// in\n    tag_58:\n      stop\n        /* \"src/KipuBankV2.sol\":3393:3545  function updateBankCap(uint256 newCap) external onlyRole(BANK_MANAGER_ROLE) {... */\n    tag_9:\n      callvalue\n      dup1\n      iszero\n      tag_61\n      jumpi\n      revert(0x00, 0x00)\n    tag_61:\n      pop\n      tag_62\n      0x04\n      dup1\n      calldatasize\n      sub\n      dup2\n      add\n      swap1\n      tag_63\n      swap2\n      swap1\n      tag_64\n      jump\t// in\n    tag_63:\n      tag_65\n      jump\t// in\n    tag_62:\n      stop\n        /* \"src/KipuBankV2.sol\":762:810  AggregatorV3Interface public immutable priceFeed */\n    tag_10:\n      callvalue\n      dup1\n      iszero\n      tag_66\n      jumpi\n      revert(0x00, 0x00)\n    tag_66:\n      pop\n      tag_67\n      tag_68\n      jump\t// in\n    tag_67:\n      mload(0x40)\n      tag_69\n      swap2\n      swap1\n      tag_70\n      jump\t// in\n    tag_69:\n      mload(0x40)\n      dup1\n      swap2\n      sub\n      swap1\n      return\n        /* \"@openzeppelin/contracts/access/AccessControl.sol\":2830:2966  function hasRole(bytes32 role, address account) public view virtual returns (bool) {... */\n    tag_11:\n      callvalue\n      dup1\n      iszero\n      tag_71\n      jumpi\n      revert(0x00, 0x00)\n    tag_71:\n      pop\n      tag_72\n      0x04\n      dup1\n      calldatasize\n      sub\n      dup2\n      add\n      swap1\n      tag_73\n      swap2\n      swap1\n      tag_50\n      jump\t// in\n    tag_73:\n      tag_74\n      jump\t// in\n    tag_72:\n      mload(0x40)\n      tag_75\n      swap2\n      swap1\n      tag_34\n      jump\t// in\n    tag_75:\n      mload(0x40)\n      dup1\n      swap2\n      sub\n      swap1\n      return\n        /* \"src/KipuBankV2.sol\":3031:3353  function withdrawToken(address token, uint256 amount) external nonReentrant {... */\n    tag_12:\n      callvalue\n      dup1\n      iszero\n      tag_76\n      jumpi\n      revert(0x00, 0x00)\n    tag_76:\n      pop\n      tag_77\n      0x04\n      dup1\n      calldatasize\n      sub\n      dup2\n      add\n      swap1\n      tag_78\n      swap2\n      swap1\n      tag_55\n      jump\t// in\n    tag_78:\n      tag_79\n      jump\t// in\n    tag_77:\n      stop\n        /* \"@openzeppelin/contracts/access/AccessControl.sol\":2196:2245  bytes32 public constant DEFAULT_ADMIN_ROLE = 0x00 */\n    tag_13:\n      callvalue\n      dup1\n      iszero\n      tag_80\n      jumpi\n      revert(0x00, 0x00)\n    tag_80:\n      pop\n      tag_81\n      tag_82\n      jump\t// in\n    tag_81:\n      mload(0x40)\n      tag_83\n      swap2\n      swap1\n      tag_46\n      jump\t// in\n    tag_83:\n      mload(0x40)\n      dup1\n      swap2\n      sub\n      swap1\n      return\n        /* \"src/KipuBankV2.sol\":817:856  uint8 public constant USDC_DECIMALS = 6 */\n    tag_14:\n      callvalue\n      dup1\n      iszero\n      tag_84\n      jumpi\n      revert(0x00, 0x00)\n    tag_84:\n      pop\n      tag_85\n      tag_86\n      jump\t// in\n    tag_85:\n      mload(0x40)\n      tag_87\n      swap2\n      swap1\n      tag_88\n      jump\t// in\n    tag_87:\n      mload(0x40)\n      dup1\n      swap2\n      sub\n      swap1\n      return\n        /* \"src/KipuBankV2.sol\":1074:1137  mapping(address => mapping(address => uint256)) public balances */\n    tag_15:\n      callvalue\n      dup1\n      iszero\n      tag_89\n      jumpi\n      revert(0x00, 0x00)\n    tag_89:\n      pop\n      tag_90\n      0x04\n      dup1\n      calldatasize\n      sub\n      dup2\n      add\n      swap1\n      tag_91\n      swap2\n      swap1\n      tag_92\n      jump\t// in\n    tag_91:\n      tag_93\n      jump\t// in\n    tag_90:\n      mload(0x40)\n      tag_94\n      swap2\n      swap1\n      tag_39\n      jump\t// in\n    tag_94:\n      mload(0x40)\n      dup1\n      swap2\n      sub\n      swap1\n      return\n        /* \"@openzeppelin/contracts/access/AccessControl.sol\":4618:4756  function revokeRole(bytes32 role, address account) public virtual onlyRole(getRoleAdmin(role)) {... */\n    tag_16:\n      callvalue\n      dup1\n      iszero\n      tag_95\n      jumpi\n      revert(0x00, 0x00)\n    tag_95:\n      pop\n      tag_96\n      0x04\n      dup1\n      calldatasize\n      sub\n      dup2\n      add\n      swap1\n      tag_97\n      swap2\n      swap1\n      tag_50\n      jump\t// in\n    tag_97:\n      tag_98\n      jump\t// in\n    tag_96:\n      stop\n        /* \"src/KipuBankV2.sol\":997:1029  uint256 public totalDepositedUSD */\n    tag_17:\n      callvalue\n      dup1\n      iszero\n      tag_99\n      jumpi\n      revert(0x00, 0x00)\n    tag_99:\n      pop\n      tag_100\n      tag_101\n      jump\t// in\n    tag_100:\n      mload(0x40)\n      tag_102\n      swap2\n      swap1\n      tag_39\n      jump\t// in\n    tag_102:\n      mload(0x40)\n      dup1\n      swap2\n      sub\n      swap1\n      return\n        /* \"src/KipuBankV2.sol\":2709:3023  function withdrawETH(uint256 amount) external nonReentrant {... */\n    tag_18:\n      callvalue\n      dup1\n      iszero\n      tag_103\n      jumpi\n      revert(0x00, 0x00)\n    tag_103:\n      pop\n      tag_104\n      0x04\n      dup1\n      calldatasize\n      sub\n      dup2\n      add\n      swap1\n      tag_105\n      swap2\n      swap1\n      tag_64\n      jump\t// in\n    tag_105:\n      tag_106\n      jump\t// in\n    tag_104:\n      stop\n        /* \"src/KipuBankV2.sol\":636:710  bytes32 public constant BANK_MANAGER_ROLE = keccak256(\"BANK_MANAGER_ROLE\") */\n    tag_19:\n      callvalue\n      dup1\n      iszero\n      tag_107\n      jumpi\n      revert(0x00, 0x00)\n    tag_107:\n      pop\n      tag_108\n      tag_109\n      jump\t// in\n    tag_108:\n      mload(0x40)\n      tag_110\n      swap2\n      swap1\n      tag_46\n      jump\t// in\n    tag_110:\n      mload(0x40)\n      dup1\n      swap2\n      sub\n      swap1\n      return\n        /* \"src/KipuBankV2.sol\":1803:2160  function depositETH() public payable nonReentrant {... */\n    tag_20:\n      tag_111\n      tag_27\n      jump\t// in\n    tag_111:\n      stop\n    tag_27:\n        /* \"@openzeppelin/contracts/security/ReentrancyGuard.sol\":2261:2282  _nonReentrantBefore() */\n      tag_113\n        /* \"@openzeppelin/contracts/security/ReentrancyGuard.sol\":2261:2280  _nonReentrantBefore */\n      tag_114\n        /* \"@openzeppelin/contracts/security/ReentrancyGuard.sol\":2261:2282  _nonReentrantBefore() */\n      jump\t// in\n    tag_113:\n        /* \"src/KipuBankV2.sol\":1864:1880  uint256 valueUSD */\n      0x00\n        /* \"src/KipuBankV2.sol\":1883:1910  _convertETHToUSD(msg.value) */\n      tag_116\n        /* \"src/KipuBankV2.sol\":1900:1909  msg.value */\n      callvalue\n        /* \"src/KipuBankV2.sol\":1883:1899  _convertETHToUSD */\n      tag_117\n        /* \"src/KipuBankV2.sol\":1883:1910  _convertETHToUSD(msg.value) */\n      jump\t// in\n    tag_116:\n        /* \"src/KipuBankV2.sol\":1864:1910  uint256 valueUSD = _convertETHToUSD(msg.value) */\n      swap1\n      pop\n        /* \"src/KipuBankV2.sol\":1956:1966  bankCapUSD */\n      sload(0x02)\n        /* \"src/KipuBankV2.sol\":1945:1953  valueUSD */\n      dup2\n        /* \"src/KipuBankV2.sol\":1925:1942  totalDepositedUSD */\n      sload(0x03)\n        /* \"src/KipuBankV2.sol\":1925:1953  totalDepositedUSD + valueUSD */\n      tag_118\n      swap2\n      swap1\n      tag_119\n      jump\t// in\n    tag_118:\n        /* \"src/KipuBankV2.sol\":1925:1966  totalDepositedUSD + valueUSD > bankCapUSD */\n      gt\n        /* \"src/KipuBankV2.sol\":1921:1992  if (totalDepositedUSD + valueUSD > bankCapUSD) revert BankCapExceeded() */\n      iszero\n      tag_120\n      jumpi\n        /* \"src/KipuBankV2.sol\":1975:1992  BankCapExceeded() */\n      mload(0x40)\n      0x448f3ca800000000000000000000000000000000000000000000000000000000\n      dup2\n      mstore\n      0x04\n      add\n      mload(0x40)\n      dup1\n      swap2\n      sub\n      swap1\n      revert\n        /* \"src/KipuBankV2.sol\":1921:1992  if (totalDepositedUSD + valueUSD > bankCapUSD) revert BankCapExceeded() */\n    tag_120:\n        /* \"src/KipuBankV2.sol\":2041:2050  msg.value */\n      callvalue\n        /* \"src/KipuBankV2.sol\":2005:2013  balances */\n      0x04\n        /* \"src/KipuBankV2.sol\":2005:2025  balances[msg.sender] */\n      0x00\n        /* \"src/KipuBankV2.sol\":2014:2024  msg.sender */\n      caller\n        /* \"src/KipuBankV2.sol\":2005:2025  balances[msg.sender] */\n      0xffffffffffffffffffffffffffffffffffffffff\n      and\n      0xffffffffffffffffffffffffffffffffffffffff\n      and\n      dup2\n      mstore\n      0x20\n      add\n      swap1\n      dup2\n      mstore\n      0x20\n      add\n      0x00\n      keccak256\n        /* \"src/KipuBankV2.sol\":2005:2037  balances[msg.sender][address(0)] */\n      0x00\n        /* \"src/KipuBankV2.sol\":2034:2035  0 */\n      0x00\n        /* \"src/KipuBankV2.sol\":2005:2037  balances[msg.sender][address(0)] */\n      0xffffffffffffffffffffffffffffffffffffffff\n      and\n      0xffffffffffffffffffffffffffffffffffffffff\n      and\n      dup2\n      mstore\n      0x20\n      add\n      swap1\n      dup2\n      mstore\n      0x20\n      add\n      0x00\n      keccak256\n      0x00\n        /* \"src/KipuBankV2.sol\":2005:2050  balances[msg.sender][address(0)] += msg.value */\n      dup3\n      dup3\n      sload\n      tag_121\n      swap2\n      swap1\n      tag_119\n      jump\t// in\n    tag_121:\n      swap3\n      pop\n      pop\n      dup2\n      swap1\n      sstore\n      pop\n        /* \"src/KipuBankV2.sol\":2082:2090  valueUSD */\n      dup1\n        /* \"src/KipuBankV2.sol\":2061:2078  totalDepositedUSD */\n      0x03\n      0x00\n        /* \"src/KipuBankV2.sol\":2061:2090  totalDepositedUSD += valueUSD */\n      dup3\n      dup3\n      sload\n      tag_122\n      swap2\n      swap1\n      tag_119\n      jump\t// in\n    tag_122:\n      swap3\n      pop\n      pop\n      dup2\n      swap1\n      sstore\n      pop\n        /* \"src/KipuBankV2.sol\":2138:2139  0 */\n      0x00\n        /* \"src/KipuBankV2.sol\":2108:2152  Deposited(msg.sender, address(0), msg.value) */\n      0xffffffffffffffffffffffffffffffffffffffff\n      and\n        /* \"src/KipuBankV2.sol\":2118:2128  msg.sender */\n      caller\n        /* \"src/KipuBankV2.sol\":2108:2152  Deposited(msg.sender, address(0), msg.value) */\n      0xffffffffffffffffffffffffffffffffffffffff\n      and\n      0x8752a472e571a816aea92eec8dae9baf628e840f4929fbcc2d155e6233ff68a7\n        /* \"src/KipuBankV2.sol\":2142:2151  msg.value */\n      callvalue\n        /* \"src/KipuBankV2.sol\":2108:2152  Deposited(msg.sender, address(0), msg.value) */\n      mload(0x40)\n      tag_123\n      swap2\n      swap1\n      tag_39\n      jump\t// in\n    tag_123:\n      mload(0x40)\n      dup1\n      swap2\n      sub\n      swap1\n      log3\n        /* \"src/KipuBankV2.sol\":1853:2160  {... */\n      pop\n        /* \"@openzeppelin/contracts/security/ReentrancyGuard.sol\":2303:2323  _nonReentrantAfter() */\n      tag_124\n        /* \"@openzeppelin/contracts/security/ReentrancyGuard.sol\":2303:2321  _nonReentrantAfter */\n      tag_125\n        /* \"@openzeppelin/contracts/security/ReentrancyGuard.sol\":2303:2323  _nonReentrantAfter() */\n      jump\t// in\n    tag_124:\n        /* \"src/KipuBankV2.sol\":1803:2160  function depositETH() public payable nonReentrant {... */\n      jump\t// out\n        /* \"@openzeppelin/contracts/access/AccessControl.sol\":2541:2743  function supportsInterface(bytes4 interfaceId) public view virtual override returns (bool) {... */\n    tag_32:\n        /* \"@openzeppelin/contracts/access/AccessControl.sol\":2626:2630  bool */\n      0x00\n        /* \"@openzeppelin/contracts/access/AccessControl.sol\":2664:2696  type(IAccessControl).interfaceId */\n      0x7965db0b00000000000000000000000000000000000000000000000000000000\n        /* \"@openzeppelin/contracts/access/AccessControl.sol\":2649:2696  interfaceId == type(IAccessControl).interfaceId */\n      not(0xffffffffffffffffffffffffffffffffffffffffffffffffffffffff)\n      and\n        /* \"@openzeppelin/contracts/access/AccessControl.sol\":2649:2660  interfaceId */\n      dup3\n        /* \"@openzeppelin/contracts/access/AccessControl.sol\":2649:2696  interfaceId == type(IAccessControl).interfaceId */\n      not(0xffffffffffffffffffffffffffffffffffffffffffffffffffffffff)\n      and\n      eq\n        /* \"@openzeppelin/contracts/access/AccessControl.sol\":2649:2736  interfaceId == type(IAccessControl).interfaceId || super.supportsInterface(interfaceId) */\n      dup1\n      tag_127\n      jumpi\n      pop\n        /* \"@openzeppelin/contracts/access/AccessControl.sol\":2700:2736  super.supportsInterface(interfaceId) */\n      tag_128\n        /* \"@openzeppelin/contracts/access/AccessControl.sol\":2724:2735  interfaceId */\n      dup3\n        /* \"@openzeppelin/contracts/access/AccessControl.sol\":2700:2723  super.supportsInterface */\n      tag_129\n        /* \"@openzeppelin/contracts/access/AccessControl.sol\":2700:2736  super.supportsInterface(interfaceId) */\n      jump\t// in\n    tag_128:\n        /* \"@openzeppelin/contracts/access/AccessControl.sol\":2649:2736  interfaceId == type(IAccessControl).interfaceId || super.supportsInterface(interfaceId) */\n    tag_127:\n        /* \"@openzeppelin/contracts/access/AccessControl.sol\":2642:2736  return interfaceId == type(IAccessControl).interfaceId || super.supportsInterface(interfaceId) */\n      swap1\n      pop\n        /* \"@openzeppelin/contracts/access/AccessControl.sol\":2541:2743  function supportsInterface(bytes4 interfaceId) public view virtual override returns (bool) {... */\n      swap2\n      swap1\n      pop\n      jump\t// out\n        /* \"src/KipuBankV2.sol\":924:949  uint256 public bankCapUSD */\n    tag_37:\n      sload(0x02)\n      dup2\n      jump\t// out\n        /* \"@openzeppelin/contracts/access/AccessControl.sol\":3786:3906  function getRoleAdmin(bytes32 role) public view virtual returns (bytes32) {... */\n    tag_44:\n        /* \"@openzeppelin/contracts/access/AccessControl.sol\":3851:3858  bytes32 */\n      0x00\n        /* \"@openzeppelin/contracts/access/AccessControl.sol\":3877:3883  _roles */\n      0x00\n        /* \"@openzeppelin/contracts/access/AccessControl.sol\":3877:3889  _roles[role] */\n      0x00\n        /* \"@openzeppelin/contracts/access/AccessControl.sol\":3884:3888  role */\n      dup4\n        /* \"@openzeppelin/contracts/access/AccessControl.sol\":3877:3889  _roles[role] */\n      dup2\n      mstore\n      0x20\n      add\n      swap1\n      dup2\n      mstore\n      0x20\n      add\n      0x00\n      keccak256\n        /* \"@openzeppelin/contracts/access/AccessControl.sol\":3877:3899  _roles[role].adminRole */\n      0x01\n      add\n      sload\n        /* \"@openzeppelin/contracts/access/AccessControl.sol\":3870:3899  return _roles[role].adminRole */\n      swap1\n      pop\n        /* \"@openzeppelin/contracts/access/AccessControl.sol\":3786:3906  function getRoleAdmin(bytes32 role) public view virtual returns (bytes32) {... */\n      swap2\n      swap1\n      pop\n      jump\t// out\n        /* \"@openzeppelin/contracts/access/AccessControl.sol\":4202:4338  function grantRole(bytes32 role, address account) public virtual onlyRole(getRoleAdmin(role)) {... */\n    tag_51:\n        /* \"@openzeppelin/contracts/access/AccessControl.sol\":4276:4294  getRoleAdmin(role) */\n      tag_131\n        /* \"@openzeppelin/contracts/access/AccessControl.sol\":4289:4293  role */\n      dup3\n        /* \"@openzeppelin/contracts/access/AccessControl.sol\":4276:4288  getRoleAdmin */\n      tag_44\n        /* \"@openzeppelin/contracts/access/AccessControl.sol\":4276:4294  getRoleAdmin(role) */\n      jump\t// in\n    tag_131:\n        /* \"@openzeppelin/contracts/access/AccessControl.sol\":2473:2489  _checkRole(role) */\n      tag_133\n        /* \"@openzeppelin/contracts/access/AccessControl.sol\":2484:2488  role */\n      dup2\n        /* \"@openzeppelin/contracts/access/AccessControl.sol\":2473:2483  _checkRole */\n      tag_134\n        /* \"@openzeppelin/contracts/access/AccessControl.sol\":2473:2489  _checkRole(role) */\n      jump\t// in\n    tag_133:\n        /* \"@openzeppelin/contracts/access/AccessControl.sol\":4306:4331  _grantRole(role, account) */\n      tag_136\n        /* \"@openzeppelin/contracts/access/AccessControl.sol\":4317:4321  role */\n      dup4\n        /* \"@openzeppelin/contracts/access/AccessControl.sol\":4323:4330  account */\n      dup4\n        /* \"@openzeppelin/contracts/access/AccessControl.sol\":4306:4316  _grantRole */\n      tag_137\n        /* \"@openzeppelin/contracts/access/AccessControl.sol\":4306:4331  _grantRole(role, account) */\n      jump\t// in\n    tag_136:\n      pop\n        /* \"@openzeppelin/contracts/access/AccessControl.sol\":4202:4338  function grantRole(bytes32 role, address account) public virtual onlyRole(getRoleAdmin(role)) {... */\n      pop\n      pop\n      pop\n      jump\t// out\n        /* \"src/KipuBankV2.sol\":2168:2666  function depositToken(address token, uint256 amount) external nonReentrant {... */\n    tag_56:\n        /* \"@openzeppelin/contracts/security/ReentrancyGuard.sol\":2261:2282  _nonReentrantBefore() */\n      tag_139\n        /* \"@openzeppelin/contracts/security/ReentrancyGuard.sol\":2261:2280  _nonReentrantBefore */\n      tag_114\n        /* \"@openzeppelin/contracts/security/ReentrancyGuard.sol\":2261:2282  _nonReentrantBefore() */\n      jump\t// in\n    tag_139:\n        /* \"src/KipuBankV2.sol\":2271:2272  0 */\n      0x00\n        /* \"src/KipuBankV2.sol\":2262:2268  amount */\n      dup2\n        /* \"src/KipuBankV2.sol\":2262:2272  amount > 0 */\n      gt\n        /* \"src/KipuBankV2.sol\":2254:2291  require(amount > 0, \"Invalid amount\") */\n      tag_141\n      jumpi\n      mload(0x40)\n      0x08c379a000000000000000000000000000000000000000000000000000000000\n      dup2\n      mstore\n      0x04\n      add\n      tag_142\n      swap1\n      tag_143\n      jump\t// in\n    tag_142:\n      mload(0x40)\n      dup1\n      swap2\n      sub\n      swap1\n      revert\n    tag_141:\n        /* \"src/KipuBankV2.sol\":2309:2314  token */\n      dup2\n        /* \"src/KipuBankV2.sol\":2302:2328  IERC20(token).transferFrom */\n      0xffffffffffffffffffffffffffffffffffffffff\n      and\n      0x23b872dd\n        /* \"src/KipuBankV2.sol\":2329:2339  msg.sender */\n      caller\n        /* \"src/KipuBankV2.sol\":2349:2353  this */\n      address\n        /* \"src/KipuBankV2.sol\":2356:2362  amount */\n      dup5\n        /* \"src/KipuBankV2.sol\":2302:2363  IERC20(token).transferFrom(msg.sender, address(this), amount) */\n      mload(0x40)\n      dup5\n      0xffffffff\n      and\n      0xe0\n      shl\n      dup2\n      mstore\n      0x04\n      add\n      tag_144\n      swap4\n      swap3\n      swap2\n      swap1\n      tag_145\n      jump\t// in\n    tag_144:\n      0x20\n      mload(0x40)\n      dup1\n      dup4\n      sub\n      dup2\n      0x00\n      dup8\n      gas\n      call\n      iszero\n      dup1\n      iszero\n      tag_147\n      jumpi\n      returndatacopy(0x00, 0x00, returndatasize)\n      revert(0x00, returndatasize)\n    tag_147:\n      pop\n      pop\n      pop\n      pop\n      mload(0x40)\n      returndatasize\n      not(0x1f)\n      0x1f\n      dup3\n      add\n      and\n      dup3\n      add\n      dup1\n      0x40\n      mstore\n      pop\n      dup2\n      add\n      swap1\n      tag_148\n      swap2\n      swap1\n      tag_149\n      jump\t// in\n    tag_148:\n      pop\n        /* \"src/KipuBankV2.sol\":2376:2392  uint256 valueUSD */\n      0x00\n        /* \"src/KipuBankV2.sol\":2395:2432  _convertToUSDCDecimals(token, amount) */\n      tag_150\n        /* \"src/KipuBankV2.sol\":2418:2423  token */\n      dup4\n        /* \"src/KipuBankV2.sol\":2425:2431  amount */\n      dup4\n        /* \"src/KipuBankV2.sol\":2395:2417  _convertToUSDCDecimals */\n      tag_151\n        /* \"src/KipuBankV2.sol\":2395:2432  _convertToUSDCDecimals(token, amount) */\n      jump\t// in\n    tag_150:\n        /* \"src/KipuBankV2.sol\":2376:2432  uint256 valueUSD = _convertToUSDCDecimals(token, amount) */\n      swap1\n      pop\n        /* \"src/KipuBankV2.sol\":2478:2488  bankCapUSD */\n      sload(0x02)\n        /* \"src/KipuBankV2.sol\":2467:2475  valueUSD */\n      dup2\n        /* \"src/KipuBankV2.sol\":2447:2464  totalDepositedUSD */\n      sload(0x03)\n        /* \"src/KipuBankV2.sol\":2447:2475  totalDepositedUSD + valueUSD */\n      tag_152\n      swap2\n      swap1\n      tag_119\n      jump\t// in\n    tag_152:\n        /* \"src/KipuBankV2.sol\":2447:2488  totalDepositedUSD + valueUSD > bankCapUSD */\n      gt\n        /* \"src/KipuBankV2.sol\":2443:2514  if (totalDepositedUSD + valueUSD > bankCapUSD) revert BankCapExceeded() */\n      iszero\n      tag_153\n      jumpi\n        /* \"src/KipuBankV2.sol\":2497:2514  BankCapExceeded() */\n      mload(0x40)\n      0x448f3ca800000000000000000000000000000000000000000000000000000000\n      dup2\n      mstore\n      0x04\n      add\n      mload(0x40)\n      dup1\n      swap2\n      sub\n      swap1\n      revert\n        /* \"src/KipuBankV2.sol\":2443:2514  if (totalDepositedUSD + valueUSD > bankCapUSD) revert BankCapExceeded() */\n    tag_153:\n        /* \"src/KipuBankV2.sol\":2558:2564  amount */\n      dup2\n        /* \"src/KipuBankV2.sol\":2527:2535  balances */\n      0x04\n        /* \"src/KipuBankV2.sol\":2527:2547  balances[msg.sender] */\n      0x00\n        /* \"src/KipuBankV2.sol\":2536:2546  msg.sender */\n      caller\n        /* \"src/KipuBankV2.sol\":2527:2547  balances[msg.sender] */\n      0xffffffffffffffffffffffffffffffffffffffff\n      and\n      0xffffffffffffffffffffffffffffffffffffffff\n      and\n      dup2\n      mstore\n      0x20\n      add\n      swap1\n      dup2\n      mstore\n      0x20\n      add\n      0x00\n      keccak256\n        /* \"src/KipuBankV2.sol\":2527:2554  balances[msg.sender][token] */\n      0x00\n        /* \"src/KipuBankV2.sol\":2548:2553  token */\n      dup6\n        /* \"src/KipuBankV2.sol\":2527:2554  balances[msg.sender][token] */\n      0xffffffffffffffffffffffffffffffffffffffff\n      and\n      0xffffffffffffffffffffffffffffffffffffffff\n      and\n      dup2\n      mstore\n      0x20\n      add\n      swap1\n      dup2\n      mstore\n      0x20\n      add\n      0x00\n      keccak256\n      0x00\n        /* \"src/KipuBankV2.sol\":2527:2564  balances[msg.sender][token] += amount */\n      dup3\n      dup3\n      sload\n      tag_154\n      swap2\n      swap1\n      tag_119\n      jump\t// in\n    tag_154:\n      swap3\n      pop\n      pop\n      dup2\n      swap1\n      sstore\n      pop\n        /* \"src/KipuBankV2.sol\":2596:2604  valueUSD */\n      dup1\n        /* \"src/KipuBankV2.sol\":2575:2592  totalDepositedUSD */\n      0x03\n      0x00\n        /* \"src/KipuBankV2.sol\":2575:2604  totalDepositedUSD += valueUSD */\n      dup3\n      dup3\n      sload\n      tag_155\n      swap2\n      swap1\n      tag_119\n      jump\t// in\n    tag_155:\n      swap3\n      pop\n      pop\n      dup2\n      swap1\n      sstore\n      pop\n        /* \"src/KipuBankV2.sol\":2644:2649  token */\n      dup3\n        /* \"src/KipuBankV2.sol\":2622:2658  Deposited(msg.sender, token, amount) */\n      0xffffffffffffffffffffffffffffffffffffffff\n      and\n        /* \"src/KipuBankV2.sol\":2632:2642  msg.sender */\n      caller\n        /* \"src/KipuBankV2.sol\":2622:2658  Deposited(msg.sender, token, amount) */\n      0xffffffffffffffffffffffffffffffffffffffff\n      and\n      0x8752a472e571a816aea92eec8dae9baf628e840f4929fbcc2d155e6233ff68a7\n        /* \"src/KipuBankV2.sol\":2651:2657  amount */\n      dup5\n        /* \"src/KipuBankV2.sol\":2622:2658  Deposited(msg.sender, token, amount) */\n      mload(0x40)\n      tag_156\n      swap2\n      swap1\n      tag_39\n      jump\t// in\n    tag_156:\n      mload(0x40)\n      dup1\n      swap2\n      sub\n      swap1\n      log3\n        /* \"src/KipuBankV2.sol\":2243:2666  {... */\n      pop\n        /* \"@openzeppelin/contracts/security/ReentrancyGuard.sol\":2303:2323  _nonReentrantAfter() */\n      tag_157\n        /* \"@openzeppelin/contracts/security/ReentrancyGuard.sol\":2303:2321  _nonReentrantAfter */\n      tag_125\n        /* \"@openzeppelin/contracts/security/ReentrancyGuard.sol\":2303:2323  _nonReentrantAfter() */\n      jump\t// in\n    tag_157:\n        /* \"src/KipuBankV2.sol\":2168:2666  function depositToken(address token, uint256 amount) external nonReentrant {... */\n      pop\n      pop\n      jump\t// out\n        /* \"@openzeppelin/contracts/access/AccessControl.sol\":5304:5549  function renounceRole(bytes32 role, address callerConfirmation) public virtual {... */\n    tag_60:\n        /* \"@openzeppelin/contracts/access/AccessControl.sol\":5419:5431  _msgSender() */\n      tag_159\n        /* \"@openzeppelin/contracts/access/AccessControl.sol\":5419:5429  _msgSender */\n      tag_160\n        /* \"@openzeppelin/contracts/access/AccessControl.sol\":5419:5431  _msgSender() */\n      jump\t// in\n    tag_159:\n        /* \"@openzeppelin/contracts/access/AccessControl.sol\":5397:5431  callerConfirmation != _msgSender() */\n      0xffffffffffffffffffffffffffffffffffffffff\n      and\n        /* \"@openzeppelin/contracts/access/AccessControl.sol\":5397:5415  callerConfirmation */\n      dup2\n        /* \"@openzeppelin/contracts/access/AccessControl.sol\":5397:5431  callerConfirmation != _msgSender() */\n      0xffffffffffffffffffffffffffffffffffffffff\n      and\n      eq\n        /* \"@openzeppelin/contracts/access/AccessControl.sol\":5393:5495  if (callerConfirmation != _msgSender()) {... */\n      tag_161\n      jumpi\n        /* \"@openzeppelin/contracts/access/AccessControl.sol\":5454:5484  AccessControlBadConfirmation() */\n      mload(0x40)\n      0x6697b23200000000000000000000000000000000000000000000000000000000\n      dup2\n      mstore\n      0x04\n      add\n      mload(0x40)\n      dup1\n      swap2\n      sub\n      swap1\n      revert\n        /* \"@openzeppelin/contracts/access/AccessControl.sol\":5393:5495  if (callerConfirmation != _msgSender()) {... */\n    tag_161:\n        /* \"@openzeppelin/contracts/access/AccessControl.sol\":5505:5542  _revokeRole(role, callerConfirmation) */\n      tag_162\n        /* \"@openzeppelin/contracts/access/AccessControl.sol\":5517:5521  role */\n      dup3\n        /* \"@openzeppelin/contracts/access/AccessControl.sol\":5523:5541  callerConfirmation */\n      dup3\n        /* \"@openzeppelin/contracts/access/AccessControl.sol\":5505:5516  _revokeRole */\n      tag_163\n        /* \"@openzeppelin/contracts/access/AccessControl.sol\":5505:5542  _revokeRole(role, callerConfirmation) */\n      jump\t// in\n    tag_162:\n      pop\n        /* \"@openzeppelin/contracts/access/AccessControl.sol\":5304:5549  function renounceRole(bytes32 role, address callerConfirmation) public virtual {... */\n      pop\n      pop\n      jump\t// out\n        /* \"src/KipuBankV2.sol\":3393:3545  function updateBankCap(uint256 newCap) external onlyRole(BANK_MANAGER_ROLE) {... */\n    tag_65:\n        /* \"src/KipuBankV2.sol\":680:710  keccak256(\"BANK_MANAGER_ROLE\") */\n      0x2d95a8186db49da8bd2356c70cf02038f7de0d6ed39f6766fe2d93d5e7785616\n        /* \"@openzeppelin/contracts/access/AccessControl.sol\":2473:2489  _checkRole(role) */\n      tag_165\n        /* \"@openzeppelin/contracts/access/AccessControl.sol\":2484:2488  role */\n      dup2\n        /* \"@openzeppelin/contracts/access/AccessControl.sol\":2473:2483  _checkRole */\n      tag_134\n        /* \"@openzeppelin/contracts/access/AccessControl.sol\":2473:2489  _checkRole(role) */\n      jump\t// in\n    tag_165:\n        /* \"src/KipuBankV2.sol\":3493:3499  newCap */\n      dup2\n        /* \"src/KipuBankV2.sol\":3480:3490  bankCapUSD */\n      0x02\n        /* \"src/KipuBankV2.sol\":3480:3499  bankCapUSD = newCap */\n      dup2\n      swap1\n      sstore\n      pop\n        /* \"src/KipuBankV2.sol\":3515:3537  BankCapUpdated(newCap) */\n      0xbb1d6466d6b9cb3ce29a9dcd7cc2e51ee7e921992290f96d813b174787857a8c\n        /* \"src/KipuBankV2.sol\":3530:3536  newCap */\n      dup3\n        /* \"src/KipuBankV2.sol\":3515:3537  BankCapUpdated(newCap) */\n      mload(0x40)\n      tag_167\n      swap2\n      swap1\n      tag_39\n      jump\t// in\n    tag_167:\n      mload(0x40)\n      dup1\n      swap2\n      sub\n      swap1\n      log1\n        /* \"src/KipuBankV2.sol\":3393:3545  function updateBankCap(uint256 newCap) external onlyRole(BANK_MANAGER_ROLE) {... */\n      pop\n      pop\n      jump\t// out\n        /* \"src/KipuBankV2.sol\":762:810  AggregatorV3Interface public immutable priceFeed */\n    tag_68:\n      immutable(\"0x93dd292f7ee8601da84dba340760745f2077401121920485992373f69e034950\")\n      dup2\n      jump\t// out\n        /* \"@openzeppelin/contracts/access/AccessControl.sol\":2830:2966  function hasRole(bytes32 role, address account) public view virtual returns (bool) {... */\n    tag_74:\n        /* \"@openzeppelin/contracts/access/AccessControl.sol\":2907:2911  bool */\n      0x00\n        /* \"@openzeppelin/contracts/access/AccessControl.sol\":2930:2936  _roles */\n      0x00\n        /* \"@openzeppelin/contracts/access/AccessControl.sol\":2930:2942  _roles[role] */\n      0x00\n        /* \"@openzeppelin/contracts/access/AccessControl.sol\":2937:2941  role */\n      dup5\n        /* \"@openzeppelin/contracts/access/AccessControl.sol\":2930:2942  _roles[role] */\n      dup2\n      mstore\n      0x20\n      add\n      swap1\n      dup2\n      mstore\n      0x20\n      add\n      0x00\n      keccak256\n        /* \"@openzeppelin/contracts/access/AccessControl.sol\":2930:2950  _roles[role].hasRole */\n      0x00\n      add\n        /* \"@openzeppelin/contracts/access/AccessControl.sol\":2930:2959  _roles[role].hasRole[account] */\n      0x00\n        /* \"@openzeppelin/contracts/access/AccessControl.sol\":2951:2958  account */\n      dup4\n        /* \"@openzeppelin/contracts/access/AccessControl.sol\":2930:2959  _roles[role].hasRole[account] */\n      0xffffffffffffffffffffffffffffffffffffffff\n      and\n      0xffffffffffffffffffffffffffffffffffffffff\n      and\n      dup2\n      mstore\n      0x20\n      add\n      swap1\n      dup2\n      mstore\n      0x20\n      add\n      0x00\n      keccak256\n      0x00\n      swap1\n      sload\n      swap1\n      0x0100\n      exp\n      swap1\n      div\n      0xff\n      and\n        /* \"@openzeppelin/contracts/access/AccessControl.sol\":2923:2959  return _roles[role].hasRole[account] */\n      swap1\n      pop\n        /* \"@openzeppelin/contracts/access/AccessControl.sol\":2830:2966  function hasRole(bytes32 role, address account) public view virtual returns (bool) {... */\n      swap3\n      swap2\n      pop\n      pop\n      jump\t// out\n        /* \"src/KipuBankV2.sol\":3031:3353  function withdrawToken(address token, uint256 amount) external nonReentrant {... */\n    tag_79:\n        /* \"@openzeppelin/contracts/security/ReentrancyGuard.sol\":2261:2282  _nonReentrantBefore() */\n      tag_170\n        /* \"@openzeppelin/contracts/security/ReentrancyGuard.sol\":2261:2280  _nonReentrantBefore */\n      tag_114\n        /* \"@openzeppelin/contracts/security/ReentrancyGuard.sol\":2261:2282  _nonReentrantBefore() */\n      jump\t// in\n    tag_170:\n        /* \"src/KipuBankV2.sol\":3152:3158  amount */\n      dup1\n        /* \"src/KipuBankV2.sol\":3122:3130  balances */\n      0x04\n        /* \"src/KipuBankV2.sol\":3122:3142  balances[msg.sender] */\n      0x00\n        /* \"src/KipuBankV2.sol\":3131:3141  msg.sender */\n      caller\n        /* \"src/KipuBankV2.sol\":3122:3142  balances[msg.sender] */\n      0xffffffffffffffffffffffffffffffffffffffff\n      and\n      0xffffffffffffffffffffffffffffffffffffffff\n      and\n      dup2\n      mstore\n      0x20\n      add\n      swap1\n      dup2\n      mstore\n      0x20\n      add\n      0x00\n      keccak256\n        /* \"src/KipuBankV2.sol\":3122:3149  balances[msg.sender][token] */\n      0x00\n        /* \"src/KipuBankV2.sol\":3143:3148  token */\n      dup5\n        /* \"src/KipuBankV2.sol\":3122:3149  balances[msg.sender][token] */\n      0xffffffffffffffffffffffffffffffffffffffff\n      and\n      0xffffffffffffffffffffffffffffffffffffffff\n      and\n      dup2\n      mstore\n      0x20\n      add\n      swap1\n      dup2\n      mstore\n      0x20\n      add\n      0x00\n      keccak256\n      sload\n        /* \"src/KipuBankV2.sol\":3122:3158  balances[msg.sender][token] < amount */\n      lt\n        /* \"src/KipuBankV2.sol\":3118:3188  if (balances[msg.sender][token] < amount) revert InsufficientBalance() */\n      iszero\n      tag_172\n      jumpi\n        /* \"src/KipuBankV2.sol\":3167:3188  InsufficientBalance() */\n      mload(0x40)\n      0xf4d678b800000000000000000000000000000000000000000000000000000000\n      dup2\n      mstore\n      0x04\n      add\n      mload(0x40)\n      dup1\n      swap2\n      sub\n      swap1\n      revert\n        /* \"src/KipuBankV2.sol\":3118:3188  if (balances[msg.sender][token] < amount) revert InsufficientBalance() */\n    tag_172:\n        /* \"src/KipuBankV2.sol\":3232:3238  amount */\n      dup1\n        /* \"src/KipuBankV2.sol\":3201:3209  balances */\n      0x04\n        /* \"src/KipuBankV2.sol\":3201:3221  balances[msg.sender] */\n      0x00\n        /* \"src/KipuBankV2.sol\":3210:3220  msg.sender */\n      caller\n        /* \"src/KipuBankV2.sol\":3201:3221  balances[msg.sender] */\n      0xffffffffffffffffffffffffffffffffffffffff\n      and\n      0xffffffffffffffffffffffffffffffffffffffff\n      and\n      dup2\n      mstore\n      0x20\n      add\n      swap1\n      dup2\n      mstore\n      0x20\n      add\n      0x00\n      keccak256\n        /* \"src/KipuBankV2.sol\":3201:3228  balances[msg.sender][token] */\n      0x00\n        /* \"src/KipuBankV2.sol\":3222:3227  token */\n      dup5\n        /* \"src/KipuBankV2.sol\":3201:3228  balances[msg.sender][token] */\n      0xffffffffffffffffffffffffffffffffffffffff\n      and\n      0xffffffffffffffffffffffffffffffffffffffff\n      and\n      dup2\n      mstore\n      0x20\n      add\n      swap1\n      dup2\n      mstore\n      0x20\n      add\n      0x00\n      keccak256\n      0x00\n        /* \"src/KipuBankV2.sol\":3201:3238  balances[msg.sender][token] -= amount */\n      dup3\n      dup3\n      sload\n      tag_173\n      swap2\n      swap1\n      tag_174\n      jump\t// in\n    tag_173:\n      swap3\n      pop\n      pop\n      dup2\n      swap1\n      sstore\n      pop\n        /* \"src/KipuBankV2.sol\":3256:3261  token */\n      dup2\n        /* \"src/KipuBankV2.sol\":3249:3271  IERC20(token).transfer */\n      0xffffffffffffffffffffffffffffffffffffffff\n      and\n      0xa9059cbb\n        /* \"src/KipuBankV2.sol\":3272:3282  msg.sender */\n      caller\n        /* \"src/KipuBankV2.sol\":3284:3290  amount */\n      dup4\n        /* \"src/KipuBankV2.sol\":3249:3291  IERC20(token).transfer(msg.sender, amount) */\n      mload(0x40)\n      dup4\n      0xffffffff\n      and\n      0xe0\n      shl\n      dup2\n      mstore\n      0x04\n      add\n      tag_175\n      swap3\n      swap2\n      swap1\n      tag_176\n      jump\t// in\n    tag_175:\n      0x20\n      mload(0x40)\n      dup1\n      dup4\n      sub\n      dup2\n      0x00\n      dup8\n      gas\n      call\n      iszero\n      dup1\n      iszero\n      tag_178\n      jumpi\n      returndatacopy(0x00, 0x00, returndatasize)\n      revert(0x00, returndatasize)\n    tag_178:\n      pop\n      pop\n      pop\n      pop\n      mload(0x40)\n      returndatasize\n      not(0x1f)\n      0x1f\n      dup3\n      add\n      and\n      dup3\n      add\n      dup1\n      0x40\n      mstore\n      pop\n      dup2\n      add\n      swap1\n      tag_179\n      swap2\n      swap1\n      tag_149\n      jump\t// in\n    tag_179:\n      pop\n        /* \"src/KipuBankV2.sol\":3331:3336  token */\n      dup2\n        /* \"src/KipuBankV2.sol\":3309:3345  Withdrawn(msg.sender, token, amount) */\n      0xffffffffffffffffffffffffffffffffffffffff\n      and\n        /* \"src/KipuBankV2.sol\":3319:3329  msg.sender */\n      caller\n        /* \"src/KipuBankV2.sol\":3309:3345  Withdrawn(msg.sender, token, amount) */\n      0xffffffffffffffffffffffffffffffffffffffff\n      and\n      0xd1c19fbcd4551a5edfb66d43d2e337c04837afda3482b42bdf569a8fccdae5fb\n        /* \"src/KipuBankV2.sol\":3338:3344  amount */\n      dup4\n        /* \"src/KipuBankV2.sol\":3309:3345  Withdrawn(msg.sender, token, amount) */\n      mload(0x40)\n      tag_180\n      swap2\n      swap1\n      tag_39\n      jump\t// in\n    tag_180:\n      mload(0x40)\n      dup1\n      swap2\n      sub\n      swap1\n      log3\n        /* \"@openzeppelin/contracts/security/ReentrancyGuard.sol\":2303:2323  _nonReentrantAfter() */\n      tag_181\n        /* \"@openzeppelin/contracts/security/ReentrancyGuard.sol\":2303:2321  _nonReentrantAfter */\n      tag_125\n        /* \"@openzeppelin/contracts/security/ReentrancyGuard.sol\":2303:2323  _nonReentrantAfter() */\n      jump\t// in\n    tag_181:\n        /* \"src/KipuBankV2.sol\":3031:3353  function withdrawToken(address token, uint256 amount) external nonReentrant {... */\n      pop\n      pop\n      jump\t// out\n        /* \"@openzeppelin/contracts/access/AccessControl.sol\":2196:2245  bytes32 public constant DEFAULT_ADMIN_ROLE = 0x00 */\n    tag_82:\n        /* \"@openzeppelin/contracts/access/AccessControl.sol\":2241:2245  0x00 */\n      0x00\n        /* \"@openzeppelin/contracts/access/AccessControl.sol\":2196:2245  bytes32 public constant DEFAULT_ADMIN_ROLE = 0x00 */\n      0x00\n      shl\n      dup2\n      jump\t// out\n        /* \"src/KipuBankV2.sol\":817:856  uint8 public constant USDC_DECIMALS = 6 */\n    tag_86:\n        /* \"src/KipuBankV2.sol\":855:856  6 */\n      0x06\n        /* \"src/KipuBankV2.sol\":817:856  uint8 public constant USDC_DECIMALS = 6 */\n      dup2\n      jump\t// out\n        /* \"src/KipuBankV2.sol\":1074:1137  mapping(address => mapping(address => uint256)) public balances */\n    tag_93:\n      mstore(0x20, 0x04)\n      dup2\n      0x00\n      mstore\n      mstore(0x20, keccak256(0x00, 0x40))\n      dup1\n      0x00\n      mstore\n      keccak256(0x00, 0x40)\n      0x00\n      swap2\n      pop\n      swap2\n      pop\n      pop\n      sload\n      dup2\n      jump\t// out\n        /* \"@openzeppelin/contracts/access/AccessControl.sol\":4618:4756  function revokeRole(bytes32 role, address account) public virtual onlyRole(getRoleAdmin(role)) {... */\n    tag_98:\n        /* \"@openzeppelin/contracts/access/AccessControl.sol\":4693:4711  getRoleAdmin(role) */\n      tag_182\n        /* \"@openzeppelin/contracts/access/AccessControl.sol\":4706:4710  role */\n      dup3\n        /* \"@openzeppelin/contracts/access/AccessControl.sol\":4693:4705  getRoleAdmin */\n      tag_44\n        /* \"@openzeppelin/contracts/access/AccessControl.sol\":4693:4711  getRoleAdmin(role) */\n      jump\t// in\n    tag_182:\n        /* \"@openzeppelin/contracts/access/AccessControl.sol\":2473:2489  _checkRole(role) */\n      tag_184\n        /* \"@openzeppelin/contracts/access/AccessControl.sol\":2484:2488  role */\n      dup2\n        /* \"@openzeppelin/contracts/access/AccessControl.sol\":2473:2483  _checkRole */\n      tag_134\n        /* \"@openzeppelin/contracts/access/AccessControl.sol\":2473:2489  _checkRole(role) */\n      jump\t// in\n    tag_184:\n        /* \"@openzeppelin/contracts/access/AccessControl.sol\":4723:4749  _revokeRole(role, account) */\n      tag_186\n        /* \"@openzeppelin/contracts/access/AccessControl.sol\":4735:4739  role */\n      dup4\n        /* \"@openzeppelin/contracts/access/AccessControl.sol\":4741:4748  account */\n      dup4\n        /* \"@openzeppelin/contracts/access/AccessControl.sol\":4723:4734  _revokeRole */\n      tag_163\n        /* \"@openzeppelin/contracts/access/AccessControl.sol\":4723:4749  _revokeRole(role, account) */\n      jump\t// in\n    tag_186:\n      pop\n        /* \"@openzeppelin/contracts/access/AccessControl.sol\":4618:4756  function revokeRole(bytes32 role, address account) public virtual onlyRole(getRoleAdmin(role)) {... */\n      pop\n      pop\n      pop\n      jump\t// out\n        /* \"src/KipuBankV2.sol\":997:1029  uint256 public totalDepositedUSD */\n    tag_101:\n      sload(0x03)\n      dup2\n      jump\t// out\n        /* \"src/KipuBankV2.sol\":2709:3023  function withdrawETH(uint256 amount) external nonReentrant {... */\n    tag_106:\n        /* \"@openzeppelin/contracts/security/ReentrancyGuard.sol\":2261:2282  _nonReentrantBefore() */\n      tag_188\n        /* \"@openzeppelin/contracts/security/ReentrancyGuard.sol\":2261:2280  _nonReentrantBefore */\n      tag_114\n        /* \"@openzeppelin/contracts/security/ReentrancyGuard.sol\":2261:2282  _nonReentrantBefore() */\n      jump\t// in\n    tag_188:\n        /* \"src/KipuBankV2.sol\":2818:2824  amount */\n      dup1\n        /* \"src/KipuBankV2.sol\":2783:2791  balances */\n      0x04\n        /* \"src/KipuBankV2.sol\":2783:2803  balances[msg.sender] */\n      0x00\n        /* \"src/KipuBankV2.sol\":2792:2802  msg.sender */\n      caller\n        /* \"src/KipuBankV2.sol\":2783:2803  balances[msg.sender] */\n      0xffffffffffffffffffffffffffffffffffffffff\n      and\n      0xffffffffffffffffffffffffffffffffffffffff\n      and\n      dup2\n      mstore\n      0x20\n      add\n      swap1\n      dup2\n      mstore\n      0x20\n      add\n      0x00\n      keccak256\n        /* \"src/KipuBankV2.sol\":2783:2815  balances[msg.sender][address(0)] */\n      0x00\n        /* \"src/KipuBankV2.sol\":2812:2813  0 */\n      0x00\n        /* \"src/KipuBankV2.sol\":2783:2815  balances[msg.sender][address(0)] */\n      0xffffffffffffffffffffffffffffffffffffffff\n      and\n      0xffffffffffffffffffffffffffffffffffffffff\n      and\n      dup2\n      mstore\n      0x20\n      add\n      swap1\n      dup2\n      mstore\n      0x20\n      add\n      0x00\n      keccak256\n      sload\n        /* \"src/KipuBankV2.sol\":2783:2824  balances[msg.sender][address(0)] < amount */\n      lt\n        /* \"src/KipuBankV2.sol\":2779:2854  if (balances[msg.sender][address(0)] < amount) revert InsufficientBalance() */\n      iszero\n      tag_190\n      jumpi\n        /* \"src/KipuBankV2.sol\":2833:2854  InsufficientBalance() */\n      mload(0x40)\n      0xf4d678b800000000000000000000000000000000000000000000000000000000\n      dup2\n      mstore\n      0x04\n      add\n      mload(0x40)\n      dup1\n      swap2\n      sub\n      swap1\n      revert\n        /* \"src/KipuBankV2.sol\":2779:2854  if (balances[msg.sender][address(0)] < amount) revert InsufficientBalance() */\n    tag_190:\n        /* \"src/KipuBankV2.sol\":2903:2909  amount */\n      dup1\n        /* \"src/KipuBankV2.sol\":2867:2875  balances */\n      0x04\n        /* \"src/KipuBankV2.sol\":2867:2887  balances[msg.sender] */\n      0x00\n        /* \"src/KipuBankV2.sol\":2876:2886  msg.sender */\n      caller\n        /* \"src/KipuBankV2.sol\":2867:2887  balances[msg.sender] */\n      0xffffffffffffffffffffffffffffffffffffffff\n      and\n      0xffffffffffffffffffffffffffffffffffffffff\n      and\n      dup2\n      mstore\n      0x20\n      add\n      swap1\n      dup2\n      mstore\n      0x20\n      add\n      0x00\n      keccak256\n        /* \"src/KipuBankV2.sol\":2867:2899  balances[msg.sender][address(0)] */\n      0x00\n        /* \"src/KipuBankV2.sol\":2896:2897  0 */\n      0x00\n        /* \"src/KipuBankV2.sol\":2867:2899  balances[msg.sender][address(0)] */\n      0xffffffffffffffffffffffffffffffffffffffff\n      and\n      0xffffffffffffffffffffffffffffffffffffffff\n      and\n      dup2\n      mstore\n      0x20\n      add\n      swap1\n      dup2\n      mstore\n      0x20\n      add\n      0x00\n      keccak256\n      0x00\n        /* \"src/KipuBankV2.sol\":2867:2909  balances[msg.sender][address(0)] -= amount */\n      dup3\n      dup3\n      sload\n      tag_191\n      swap2\n      swap1\n      tag_174\n      jump\t// in\n    tag_191:\n      swap3\n      pop\n      pop\n      dup2\n      swap1\n      sstore\n      pop\n        /* \"src/KipuBankV2.sol\":2928:2938  msg.sender */\n      caller\n        /* \"src/KipuBankV2.sol\":2920:2948  payable(msg.sender).transfer */\n      0xffffffffffffffffffffffffffffffffffffffff\n      and\n        /* \"src/KipuBankV2.sol\":2920:2956  payable(msg.sender).transfer(amount) */\n      0x08fc\n        /* \"src/KipuBankV2.sol\":2949:2955  amount */\n      dup3\n        /* \"src/KipuBankV2.sol\":2920:2956  payable(msg.sender).transfer(amount) */\n      swap1\n      dup2\n      iszero\n      mul\n      swap1\n      mload(0x40)\n      0x00\n      mload(0x40)\n      dup1\n      dup4\n      sub\n      dup2\n      dup6\n      dup9\n      dup9\n      call\n      swap4\n      pop\n      pop\n      pop\n      pop\n      iszero\n      dup1\n      iszero\n      tag_193\n      jumpi\n      returndatacopy(0x00, 0x00, returndatasize)\n      revert(0x00, returndatasize)\n    tag_193:\n      pop\n        /* \"src/KipuBankV2.sol\":3004:3005  0 */\n      0x00\n        /* \"src/KipuBankV2.sol\":2974:3015  Withdrawn(msg.sender, address(0), amount) */\n      0xffffffffffffffffffffffffffffffffffffffff\n      and\n        /* \"src/KipuBankV2.sol\":2984:2994  msg.sender */\n      caller\n        /* \"src/KipuBankV2.sol\":2974:3015  Withdrawn(msg.sender, address(0), amount) */\n      0xffffffffffffffffffffffffffffffffffffffff\n      and\n      0xd1c19fbcd4551a5edfb66d43d2e337c04837afda3482b42bdf569a8fccdae5fb\n        /* \"src/KipuBankV2.sol\":3008:3014  amount */\n      dup4\n        /* \"src/KipuBankV2.sol\":2974:3015  Withdrawn(msg.sender, address(0), amount) */\n      mload(0x40)\n      tag_194\n      swap2\n      swap1\n      tag_39\n      jump\t// in\n    tag_194:\n      mload(0x40)\n      dup1\n      swap2\n      sub\n      swap1\n      log3\n        /* \"@openzeppelin/contracts/security/ReentrancyGuard.sol\":2303:2323  _nonReentrantAfter() */\n      tag_195\n        /* \"@openzeppelin/contracts/security/ReentrancyGuard.sol\":2303:2321  _nonReentrantAfter */\n      tag_125\n        /* \"@openzeppelin/contracts/security/ReentrancyGuard.sol\":2303:2323  _nonReentrantAfter() */\n      jump\t// in\n    tag_195:\n        /* \"src/KipuBankV2.sol\":2709:3023  function withdrawETH(uint256 amount) external nonReentrant {... */\n      pop\n      jump\t// out\n        /* \"src/KipuBankV2.sol\":636:710  bytes32 public constant BANK_MANAGER_ROLE = keccak256(\"BANK_MANAGER_ROLE\") */\n    tag_109:\n        /* \"src/KipuBankV2.sol\":680:710  keccak256(\"BANK_MANAGER_ROLE\") */\n      0x2d95a8186db49da8bd2356c70cf02038f7de0d6ed39f6766fe2d93d5e7785616\n        /* \"src/KipuBankV2.sol\":636:710  bytes32 public constant BANK_MANAGER_ROLE = keccak256(\"BANK_MANAGER_ROLE\") */\n      dup2\n      jump\t// out\n        /* \"@openzeppelin/contracts/security/ReentrancyGuard.sol\":2336:2623  function _nonReentrantBefore() private {... */\n    tag_114:\n        /* \"@openzeppelin/contracts/security/ReentrancyGuard.sol\":1759:1760  2 */\n      0x02\n        /* \"@openzeppelin/contracts/security/ReentrancyGuard.sol\":2468:2475  _status */\n      sload(0x01)\n        /* \"@openzeppelin/contracts/security/ReentrancyGuard.sol\":2468:2487  _status != _ENTERED */\n      sub\n        /* \"@openzeppelin/contracts/security/ReentrancyGuard.sol\":2460:2523  require(_status != _ENTERED, \"ReentrancyGuard: reentrant call\") */\n      tag_197\n      jumpi\n      mload(0x40)\n      0x08c379a000000000000000000000000000000000000000000000000000000000\n      dup2\n      mstore\n      0x04\n      add\n      tag_198\n      swap1\n      tag_199\n      jump\t// in\n    tag_198:\n      mload(0x40)\n      dup1\n      swap2\n      sub\n      swap1\n      revert\n    tag_197:\n        /* \"@openzeppelin/contracts/security/ReentrancyGuard.sol\":1759:1760  2 */\n      0x02\n        /* \"@openzeppelin/contracts/security/ReentrancyGuard.sol\":2598:2605  _status */\n      0x01\n        /* \"@openzeppelin/contracts/security/ReentrancyGuard.sol\":2598:2616  _status = _ENTERED */\n      dup2\n      swap1\n      sstore\n      pop\n        /* \"@openzeppelin/contracts/security/ReentrancyGuard.sol\":2336:2623  function _nonReentrantBefore() private {... */\n      jump\t// out\n        /* \"src/KipuBankV2.sol\":3596:3936  function _convertETHToUSD(uint256 ethAmount) internal view returns (uint256) {... */\n    tag_117:\n        /* \"src/KipuBankV2.sol\":3664:3671  uint256 */\n      0x00\n        /* \"src/KipuBankV2.sol\":3687:3699  int256 price */\n      0x00\n        /* \"src/KipuBankV2.sol\":3706:3715  priceFeed */\n      immutable(\"0x93dd292f7ee8601da84dba340760745f2077401121920485992373f69e034950\")\n        /* \"src/KipuBankV2.sol\":3706:3731  priceFeed.latestRoundData */\n      0xffffffffffffffffffffffffffffffffffffffff\n      and\n      0xfeaf968c\n        /* \"src/KipuBankV2.sol\":3706:3733  priceFeed.latestRoundData() */\n      mload(0x40)\n      dup2\n      0xffffffff\n      and\n      0xe0\n      shl\n      dup2\n      mstore\n      0x04\n      add\n      0xa0\n      mload(0x40)\n      dup1\n      dup4\n      sub\n      dup2\n      dup7\n      gas\n      staticcall\n      iszero\n      dup1\n      iszero\n      tag_202\n      jumpi\n      returndatacopy(0x00, 0x00, returndatasize)\n      revert(0x00, returndatasize)\n    tag_202:\n      pop\n      pop\n      pop\n      pop\n      mload(0x40)\n      returndatasize\n      not(0x1f)\n      0x1f\n      dup3\n      add\n      and\n      dup3\n      add\n      dup1\n      0x40\n      mstore\n      pop\n      dup2\n      add\n      swap1\n      tag_203\n      swap2\n      swap1\n      tag_204\n      jump\t// in\n    tag_203:\n        /* \"src/KipuBankV2.sol\":3684:3733  (, int256 price,,,) = priceFeed.latestRoundData() */\n      pop\n      pop\n      pop\n      swap2\n      pop\n      pop\n        /* \"src/KipuBankV2.sol\":3787:3788  0 */\n      0x00\n        /* \"src/KipuBankV2.sol\":3779:3784  price */\n      dup2\n        /* \"src/KipuBankV2.sol\":3779:3788  price > 0 */\n      sgt\n        /* \"src/KipuBankV2.sol\":3771:3811  require(price > 0, \"Invalid price feed\") */\n      tag_205\n      jumpi\n      mload(0x40)\n      0x08c379a000000000000000000000000000000000000000000000000000000000\n      dup2\n      mstore\n      0x04\n      add\n      tag_206\n      swap1\n      tag_207\n      jump\t// in\n    tag_206:\n      mload(0x40)\n      dup1\n      swap2\n      sub\n      swap1\n      revert\n    tag_205:\n        /* \"src/KipuBankV2.sol\":3822:3836  uint256 ethUSD */\n      0x00\n        /* \"src/KipuBankV2.sol\":3870:3873  1e8 */\n      0x05f5e100\n        /* \"src/KipuBankV2.sol\":3860:3865  price */\n      dup3\n        /* \"src/KipuBankV2.sol\":3840:3849  ethAmount */\n      dup6\n        /* \"src/KipuBankV2.sol\":3840:3866  ethAmount * uint256(price) */\n      tag_208\n      swap2\n      swap1\n      tag_209\n      jump\t// in\n    tag_208:\n        /* \"src/KipuBankV2.sol\":3839:3873  (ethAmount * uint256(price)) / 1e8 */\n      tag_210\n      swap2\n      swap1\n      tag_211\n      jump\t// in\n    tag_210:\n        /* \"src/KipuBankV2.sol\":3822:3873  uint256 ethUSD = (ethAmount * uint256(price)) / 1e8 */\n      swap1\n      pop\n        /* \"src/KipuBankV2.sol\":855:856  6 */\n      0x06\n        /* \"src/KipuBankV2.sol\":3908:3910  18 */\n      0x12\n        /* \"src/KipuBankV2.sol\":3908:3926  18 - USDC_DECIMALS */\n      tag_212\n      swap2\n      swap1\n      tag_213\n      jump\t// in\n    tag_212:\n        /* \"src/KipuBankV2.sol\":3901:3903  10 */\n      0x0a\n        /* \"src/KipuBankV2.sol\":3901:3927  10 ** (18 - USDC_DECIMALS) */\n      tag_214\n      swap2\n      swap1\n      tag_215\n      jump\t// in\n    tag_214:\n        /* \"src/KipuBankV2.sol\":3891:3897  ethUSD */\n      dup2\n        /* \"src/KipuBankV2.sol\":3891:3928  ethUSD / (10 ** (18 - USDC_DECIMALS)) */\n      tag_216\n      swap2\n      swap1\n      tag_211\n      jump\t// in\n    tag_216:\n        /* \"src/KipuBankV2.sol\":3884:3928  return ethUSD / (10 ** (18 - USDC_DECIMALS)) */\n      swap3\n      pop\n      pop\n      pop\n        /* \"src/KipuBankV2.sol\":3596:3936  function _convertETHToUSD(uint256 ethAmount) internal view returns (uint256) {... */\n      swap2\n      swap1\n      pop\n      jump\t// out\n        /* \"@openzeppelin/contracts/security/ReentrancyGuard.sol\":2629:2838  function _nonReentrantAfter() private {... */\n    tag_125:\n        /* \"@openzeppelin/contracts/security/ReentrancyGuard.sol\":1716:1717  1 */\n      0x01\n        /* \"@openzeppelin/contracts/security/ReentrancyGuard.sol\":2809:2816  _status */\n      dup1\n        /* \"@openzeppelin/contracts/security/ReentrancyGuard.sol\":2809:2831  _status = _NOT_ENTERED */\n      dup2\n      swap1\n      sstore\n      pop\n        /* \"@openzeppelin/contracts/security/ReentrancyGuard.sol\":2629:2838  function _nonReentrantAfter() private {... */\n      jump\t// out\n        /* \"@openzeppelin/contracts/utils/introspection/ERC165.sol\":730:876  function supportsInterface(bytes4 interfaceId) public view virtual returns (bool) {... */\n    tag_129:\n        /* \"@openzeppelin/contracts/utils/introspection/ERC165.sol\":806:810  bool */\n      0x00\n        /* \"@openzeppelin/contracts/utils/introspection/ERC165.sol\":844:869  type(IERC165).interfaceId */\n      0x01ffc9a700000000000000000000000000000000000000000000000000000000\n        /* \"@openzeppelin/contracts/utils/introspection/ERC165.sol\":829:869  interfaceId == type(IERC165).interfaceId */\n      not(0xffffffffffffffffffffffffffffffffffffffffffffffffffffffff)\n      and\n        /* \"@openzeppelin/contracts/utils/introspection/ERC165.sol\":829:840  interfaceId */\n      dup3\n        /* \"@openzeppelin/contracts/utils/introspection/ERC165.sol\":829:869  interfaceId == type(IERC165).interfaceId */\n      not(0xffffffffffffffffffffffffffffffffffffffffffffffffffffffff)\n      and\n      eq\n        /* \"@openzeppelin/contracts/utils/introspection/ERC165.sol\":822:869  return interfaceId == type(IERC165).interfaceId */\n      swap1\n      pop\n        /* \"@openzeppelin/contracts/utils/introspection/ERC165.sol\":730:876  function supportsInterface(bytes4 interfaceId) public view virtual returns (bool) {... */\n      swap2\n      swap1\n      pop\n      jump\t// out\n        /* \"@openzeppelin/contracts/access/AccessControl.sol\":3175:3278  function _checkRole(bytes32 role) internal view virtual {... */\n    tag_134:\n        /* \"@openzeppelin/contracts/access/AccessControl.sol\":3241:3271  _checkRole(role, _msgSender()) */\n      tag_220\n        /* \"@openzeppelin/contracts/access/AccessControl.sol\":3252:3256  role */\n      dup2\n        /* \"@openzeppelin/contracts/access/AccessControl.sol\":3258:3270  _msgSender() */\n      tag_221\n        /* \"@openzeppelin/contracts/access/AccessControl.sol\":3258:3268  _msgSender */\n      tag_160\n        /* \"@openzeppelin/contracts/access/AccessControl.sol\":3258:3270  _msgSender() */\n      jump\t// in\n    tag_221:\n        /* \"@openzeppelin/contracts/access/AccessControl.sol\":3241:3251  _checkRole */\n      tag_222\n        /* \"@openzeppelin/contracts/access/AccessControl.sol\":3241:3271  _checkRole(role, _msgSender()) */\n      jump\t// in\n    tag_220:\n        /* \"@openzeppelin/contracts/access/AccessControl.sol\":3175:3278  function _checkRole(bytes32 role) internal view virtual {... */\n      pop\n      jump\t// out\n        /* \"@openzeppelin/contracts/access/AccessControl.sol\":6155:6471  function _grantRole(bytes32 role, address account) internal virtual returns (bool) {... */\n    tag_137:\n        /* \"@openzeppelin/contracts/access/AccessControl.sol\":6232:6236  bool */\n      0x00\n        /* \"@openzeppelin/contracts/access/AccessControl.sol\":6253:6275  hasRole(role, account) */\n      tag_224\n        /* \"@openzeppelin/contracts/access/AccessControl.sol\":6261:6265  role */\n      dup4\n        /* \"@openzeppelin/contracts/access/AccessControl.sol\":6267:6274  account */\n      dup4\n        /* \"@openzeppelin/contracts/access/AccessControl.sol\":6253:6260  hasRole */\n      tag_74\n        /* \"@openzeppelin/contracts/access/AccessControl.sol\":6253:6275  hasRole(role, account) */\n      jump\t// in\n    tag_224:\n        /* \"@openzeppelin/contracts/access/AccessControl.sol\":6248:6465  if (!hasRole(role, account)) {... */\n      tag_225\n      jumpi\n        /* \"@openzeppelin/contracts/access/AccessControl.sol\":6323:6327  true */\n      0x01\n        /* \"@openzeppelin/contracts/access/AccessControl.sol\":6291:6297  _roles */\n      0x00\n        /* \"@openzeppelin/contracts/access/AccessControl.sol\":6291:6303  _roles[role] */\n      0x00\n        /* \"@openzeppelin/contracts/access/AccessControl.sol\":6298:6302  role */\n      dup6\n        /* \"@openzeppelin/contracts/access/AccessControl.sol\":6291:6303  _roles[role] */\n      dup2\n      mstore\n      0x20\n      add\n      swap1\n      dup2\n      mstore\n      0x20\n      add\n      0x00\n      keccak256\n        /* \"@openzeppelin/contracts/access/AccessControl.sol\":6291:6311  _roles[role].hasRole */\n      0x00\n      add\n        /* \"@openzeppelin/contracts/access/AccessControl.sol\":6291:6320  _roles[role].hasRole[account] */\n      0x00\n        /* \"@openzeppelin/contracts/access/AccessControl.sol\":6312:6319  account */\n      dup5\n        /* \"@openzeppelin/contracts/access/AccessControl.sol\":6291:6320  _roles[role].hasRole[account] */\n      0xffffffffffffffffffffffffffffffffffffffff\n      and\n      0xffffffffffffffffffffffffffffffffffffffff\n      and\n      dup2\n      mstore\n      0x20\n      add\n      swap1\n      dup2\n      mstore\n      0x20\n      add\n      0x00\n      keccak256\n      0x00\n        /* \"@openzeppelin/contracts/access/AccessControl.sol\":6291:6327  _roles[role].hasRole[account] = true */\n      0x0100\n      exp\n      dup2\n      sload\n      dup2\n      0xff\n      mul\n      not\n      and\n      swap1\n      dup4\n      iszero\n      iszero\n      mul\n      or\n      swap1\n      sstore\n      pop\n        /* \"@openzeppelin/contracts/access/AccessControl.sol\":6373:6385  _msgSender() */\n      tag_226\n        /* \"@openzeppelin/contracts/access/AccessControl.sol\":6373:6383  _msgSender */\n      tag_160\n        /* \"@openzeppelin/contracts/access/AccessControl.sol\":6373:6385  _msgSender() */\n      jump\t// in\n    tag_226:\n        /* \"@openzeppelin/contracts/access/AccessControl.sol\":6346:6386  RoleGranted(role, account, _msgSender()) */\n      0xffffffffffffffffffffffffffffffffffffffff\n      and\n        /* \"@openzeppelin/contracts/access/AccessControl.sol\":6364:6371  account */\n      dup3\n        /* \"@openzeppelin/contracts/access/AccessControl.sol\":6346:6386  RoleGranted(role, account, _msgSender()) */\n      0xffffffffffffffffffffffffffffffffffffffff\n      and\n        /* \"@openzeppelin/contracts/access/AccessControl.sol\":6358:6362  role */\n      dup5\n        /* \"@openzeppelin/contracts/access/AccessControl.sol\":6346:6386  RoleGranted(role, account, _msgSender()) */\n      0x2f8788117e7eff1d82e926ec794901d17c78024a50270940304540a733656f0d\n      mload(0x40)\n      mload(0x40)\n      dup1\n      swap2\n      sub\n      swap1\n      log4\n        /* \"@openzeppelin/contracts/access/AccessControl.sol\":6407:6411  true */\n      0x01\n        /* \"@openzeppelin/contracts/access/AccessControl.sol\":6400:6411  return true */\n      swap1\n      pop\n      jump(tag_223)\n        /* \"@openzeppelin/contracts/access/AccessControl.sol\":6248:6465  if (!hasRole(role, account)) {... */\n    tag_225:\n        /* \"@openzeppelin/contracts/access/AccessControl.sol\":6449:6454  false */\n      0x00\n        /* \"@openzeppelin/contracts/access/AccessControl.sol\":6442:6454  return false */\n      swap1\n      pop\n        /* \"@openzeppelin/contracts/access/AccessControl.sol\":6155:6471  function _grantRole(bytes32 role, address account) internal virtual returns (bool) {... */\n    tag_223:\n      swap3\n      swap2\n      pop\n      pop\n      jump\t// out\n        /* \"src/KipuBankV2.sol\":3944:4165  function _convertToUSDCDecimals(address, uint256 tokenAmount) internal pure returns (uint256) {... */\n    tag_151:\n        /* \"src/KipuBankV2.sol\":4029:4036  uint256 */\n      0x00\n        /* \"src/KipuBankV2.sol\":855:856  6 */\n      0x06\n        /* \"src/KipuBankV2.sol\":4137:4139  18 */\n      0x12\n        /* \"src/KipuBankV2.sol\":4137:4155  18 - USDC_DECIMALS */\n      tag_229\n      swap2\n      swap1\n      tag_213\n      jump\t// in\n    tag_229:\n        /* \"src/KipuBankV2.sol\":4130:4132  10 */\n      0x0a\n        /* \"src/KipuBankV2.sol\":4130:4156  10 ** (18 - USDC_DECIMALS) */\n      tag_230\n      swap2\n      swap1\n      tag_215\n      jump\t// in\n    tag_230:\n        /* \"src/KipuBankV2.sol\":4115:4126  tokenAmount */\n      dup3\n        /* \"src/KipuBankV2.sol\":4115:4157  tokenAmount / (10 ** (18 - USDC_DECIMALS)) */\n      tag_231\n      swap2\n      swap1\n      tag_211\n      jump\t// in\n    tag_231:\n        /* \"src/KipuBankV2.sol\":4108:4157  return tokenAmount / (10 ** (18 - USDC_DECIMALS)) */\n      swap1\n      pop\n        /* \"src/KipuBankV2.sol\":3944:4165  function _convertToUSDCDecimals(address, uint256 tokenAmount) internal pure returns (uint256) {... */\n      swap3\n      swap2\n      pop\n      pop\n      jump\t// out\n        /* \"@openzeppelin/contracts/utils/Context.sol\":656:752  function _msgSender() internal view virtual returns (address) {... */\n    tag_160:\n        /* \"@openzeppelin/contracts/utils/Context.sol\":709:716  address */\n      0x00\n        /* \"@openzeppelin/contracts/utils/Context.sol\":735:745  msg.sender */\n      caller\n        /* \"@openzeppelin/contracts/utils/Context.sol\":728:745  return msg.sender */\n      swap1\n      pop\n        /* \"@openzeppelin/contracts/utils/Context.sol\":656:752  function _msgSender() internal view virtual returns (address) {... */\n      swap1\n      jump\t// out\n        /* \"@openzeppelin/contracts/access/AccessControl.sol\":6708:7025  function _revokeRole(bytes32 role, address account) internal virtual returns (bool) {... */\n    tag_163:\n        /* \"@openzeppelin/contracts/access/AccessControl.sol\":6786:6790  bool */\n      0x00\n        /* \"@openzeppelin/contracts/access/AccessControl.sol\":6806:6828  hasRole(role, account) */\n      tag_234\n        /* \"@openzeppelin/contracts/access/AccessControl.sol\":6814:6818  role */\n      dup4\n        /* \"@openzeppelin/contracts/access/AccessControl.sol\":6820:6827  account */\n      dup4\n        /* \"@openzeppelin/contracts/access/AccessControl.sol\":6806:6813  hasRole */\n      tag_74\n        /* \"@openzeppelin/contracts/access/AccessControl.sol\":6806:6828  hasRole(role, account) */\n      jump\t// in\n    tag_234:\n        /* \"@openzeppelin/contracts/access/AccessControl.sol\":6802:7019  if (hasRole(role, account)) {... */\n      iszero\n      tag_235\n      jumpi\n        /* \"@openzeppelin/contracts/access/AccessControl.sol\":6876:6881  false */\n      0x00\n        /* \"@openzeppelin/contracts/access/AccessControl.sol\":6844:6850  _roles */\n      0x00\n        /* \"@openzeppelin/contracts/access/AccessControl.sol\":6844:6856  _roles[role] */\n      0x00\n        /* \"@openzeppelin/contracts/access/AccessControl.sol\":6851:6855  role */\n      dup6\n        /* \"@openzeppelin/contracts/access/AccessControl.sol\":6844:6856  _roles[role] */\n      dup2\n      mstore\n      0x20\n      add\n      swap1\n      dup2\n      mstore\n      0x20\n      add\n      0x00\n      keccak256\n        /* \"@openzeppelin/contracts/access/AccessControl.sol\":6844:6864  _roles[role].hasRole */\n      0x00\n      add\n        /* \"@openzeppelin/contracts/access/AccessControl.sol\":6844:6873  _roles[role].hasRole[account] */\n      0x00\n        /* \"@openzeppelin/contracts/access/AccessControl.sol\":6865:6872  account */\n      dup5\n        /* \"@openzeppelin/contracts/access/AccessControl.sol\":6844:6873  _roles[role].hasRole[account] */\n      0xffffffffffffffffffffffffffffffffffffffff\n      and\n      0xffffffffffffffffffffffffffffffffffffffff\n      and\n      dup2\n      mstore\n      0x20\n      add\n      swap1\n      dup2\n      mstore\n      0x20\n      add\n      0x00\n      keccak256\n      0x00\n        /* \"@openzeppelin/contracts/access/AccessControl.sol\":6844:6881  _roles[role].hasRole[account] = false */\n      0x0100\n      exp\n      dup2\n      sload\n      dup2\n      0xff\n      mul\n      not\n      and\n      swap1\n      dup4\n      iszero\n      iszero\n      mul\n      or\n      swap1\n      sstore\n      pop\n        /* \"@openzeppelin/contracts/access/AccessControl.sol\":6927:6939  _msgSender() */\n      tag_236\n        /* \"@openzeppelin/contracts/access/AccessControl.sol\":6927:6937  _msgSender */\n      tag_160\n        /* \"@openzeppelin/contracts/access/AccessControl.sol\":6927:6939  _msgSender() */\n      jump\t// in\n    tag_236:\n        /* \"@openzeppelin/contracts/access/AccessControl.sol\":6900:6940  RoleRevoked(role, account, _msgSender()) */\n      0xffffffffffffffffffffffffffffffffffffffff\n      and\n        /* \"@openzeppelin/contracts/access/AccessControl.sol\":6918:6925  account */\n      dup3\n        /* \"@openzeppelin/contracts/access/AccessControl.sol\":6900:6940  RoleRevoked(role, account, _msgSender()) */\n      0xffffffffffffffffffffffffffffffffffffffff\n      and\n        /* \"@openzeppelin/contracts/access/AccessControl.sol\":6912:6916  role */\n      dup5\n        /* \"@openzeppelin/contracts/access/AccessControl.sol\":6900:6940  RoleRevoked(role, account, _msgSender()) */\n      0xf6391f5c32d9c69d2a47ea670b442974b53935d1edc7fd64eb21e047a839171b\n      mload(0x40)\n      mload(0x40)\n      dup1\n      swap2\n      sub\n      swap1\n      log4\n        /* \"@openzeppelin/contracts/access/AccessControl.sol\":6961:6965  true */\n      0x01\n        /* \"@openzeppelin/contracts/access/AccessControl.sol\":6954:6965  return true */\n      swap1\n      pop\n      jump(tag_233)\n        /* \"@openzeppelin/contracts/access/AccessControl.sol\":6802:7019  if (hasRole(role, account)) {... */\n    tag_235:\n        /* \"@openzeppelin/contracts/access/AccessControl.sol\":7003:7008  false */\n      0x00\n        /* \"@openzeppelin/contracts/access/AccessControl.sol\":6996:7008  return false */\n      swap1\n      pop\n        /* \"@openzeppelin/contracts/access/AccessControl.sol\":6708:7025  function _revokeRole(bytes32 role, address account) internal virtual returns (bool) {... */\n    tag_233:\n      swap3\n      swap2\n      pop\n      pop\n      jump\t// out\n        /* \"@openzeppelin/contracts/access/AccessControl.sol\":3408:3605  function _checkRole(bytes32 role, address account) internal view virtual {... */\n    tag_222:\n        /* \"@openzeppelin/contracts/access/AccessControl.sol\":3496:3518  hasRole(role, account) */\n      tag_239\n        /* \"@openzeppelin/contracts/access/AccessControl.sol\":3504:3508  role */\n      dup3\n        /* \"@openzeppelin/contracts/access/AccessControl.sol\":3510:3517  account */\n      dup3\n        /* \"@openzeppelin/contracts/access/AccessControl.sol\":3496:3503  hasRole */\n      tag_74\n        /* \"@openzeppelin/contracts/access/AccessControl.sol\":3496:3518  hasRole(role, account) */\n      jump\t// in\n    tag_239:\n        /* \"@openzeppelin/contracts/access/AccessControl.sol\":3491:3599  if (!hasRole(role, account)) {... */\n      tag_240\n      jumpi\n        /* \"@openzeppelin/contracts/access/AccessControl.sol\":3574:3581  account */\n      dup1\n        /* \"@openzeppelin/contracts/access/AccessControl.sol\":3583:3587  role */\n      dup3\n        /* \"@openzeppelin/contracts/access/AccessControl.sol\":3541:3588  AccessControlUnauthorizedAccount(account, role) */\n      mload(0x40)\n      0xe2517d3f00000000000000000000000000000000000000000000000000000000\n      dup2\n      mstore\n      0x04\n      add\n      tag_241\n      swap3\n      swap2\n      swap1\n      tag_242\n      jump\t// in\n    tag_241:\n      mload(0x40)\n      dup1\n      swap2\n      sub\n      swap1\n      revert\n        /* \"@openzeppelin/contracts/access/AccessControl.sol\":3491:3599  if (!hasRole(role, account)) {... */\n    tag_240:\n        /* \"@openzeppelin/contracts/access/AccessControl.sol\":3408:3605  function _checkRole(bytes32 role, address account) internal view virtual {... */\n      pop\n      pop\n      jump\t// out\n        /* \"#utility.yul\":88:205   */\n    tag_244:\n        /* \"#utility.yul\":197:198   */\n      0x00\n        /* \"#utility.yul\":194:195   */\n      0x00\n        /* \"#utility.yul\":187:199   */\n      revert\n        /* \"#utility.yul\":334:483   */\n    tag_246:\n        /* \"#utility.yul\":370:377   */\n      0x00\n        /* \"#utility.yul\":410:476   */\n      0xffffffff00000000000000000000000000000000000000000000000000000000\n        /* \"#utility.yul\":403:408   */\n      dup3\n        /* \"#utility.yul\":399:477   */\n      and\n        /* \"#utility.yul\":388:477   */\n      swap1\n      pop\n        /* \"#utility.yul\":334:483   */\n      swap2\n      swap1\n      pop\n      jump\t// out\n        /* \"#utility.yul\":489:609   */\n    tag_247:\n        /* \"#utility.yul\":561:584   */\n      tag_298\n        /* \"#utility.yul\":578:583   */\n      dup2\n        /* \"#utility.yul\":561:584   */\n      tag_246\n      jump\t// in\n    tag_298:\n        /* \"#utility.yul\":554:559   */\n      dup2\n        /* \"#utility.yul\":551:585   */\n      eq\n        /* \"#utility.yul\":541:603   */\n      tag_299\n      jumpi\n        /* \"#utility.yul\":599:600   */\n      0x00\n        /* \"#utility.yul\":596:597   */\n      0x00\n        /* \"#utility.yul\":589:601   */\n      revert\n        /* \"#utility.yul\":541:603   */\n    tag_299:\n        /* \"#utility.yul\":489:609   */\n      pop\n      jump\t// out\n        /* \"#utility.yul\":615:752   */\n    tag_248:\n        /* \"#utility.yul\":660:665   */\n      0x00\n        /* \"#utility.yul\":698:704   */\n      dup2\n        /* \"#utility.yul\":685:705   */\n      calldataload\n        /* \"#utility.yul\":676:705   */\n      swap1\n      pop\n        /* \"#utility.yul\":714:746   */\n      tag_301\n        /* \"#utility.yul\":740:745   */\n      dup2\n        /* \"#utility.yul\":714:746   */\n      tag_247\n      jump\t// in\n    tag_301:\n        /* \"#utility.yul\":615:752   */\n      swap3\n      swap2\n      pop\n      pop\n      jump\t// out\n        /* \"#utility.yul\":758:1085   */\n    tag_31:\n        /* \"#utility.yul\":816:822   */\n      0x00\n        /* \"#utility.yul\":865:867   */\n      0x20\n        /* \"#utility.yul\":853:862   */\n      dup3\n        /* \"#utility.yul\":844:851   */\n      dup5\n        /* \"#utility.yul\":840:863   */\n      sub\n        /* \"#utility.yul\":836:868   */\n      slt\n        /* \"#utility.yul\":833:952   */\n      iszero\n      tag_303\n      jumpi\n        /* \"#utility.yul\":871:950   */\n      tag_304\n      tag_244\n      jump\t// in\n    tag_304:\n        /* \"#utility.yul\":833:952   */\n    tag_303:\n        /* \"#utility.yul\":991:992   */\n      0x00\n        /* \"#utility.yul\":1016:1068   */\n      tag_305\n        /* \"#utility.yul\":1060:1067   */\n      dup5\n        /* \"#utility.yul\":1051:1057   */\n      dup3\n        /* \"#utility.yul\":1040:1049   */\n      dup6\n        /* \"#utility.yul\":1036:1058   */\n      add\n        /* \"#utility.yul\":1016:1068   */\n      tag_248\n      jump\t// in\n    tag_305:\n        /* \"#utility.yul\":1006:1068   */\n      swap2\n      pop\n        /* \"#utility.yul\":962:1078   */\n      pop\n        /* \"#utility.yul\":758:1085   */\n      swap3\n      swap2\n      pop\n      pop\n      jump\t// out\n        /* \"#utility.yul\":1091:1181   */\n    tag_249:\n        /* \"#utility.yul\":1125:1132   */\n      0x00\n        /* \"#utility.yul\":1168:1173   */\n      dup2\n        /* \"#utility.yul\":1161:1174   */\n      iszero\n        /* \"#utility.yul\":1154:1175   */\n      iszero\n        /* \"#utility.yul\":1143:1175   */\n      swap1\n      pop\n        /* \"#utility.yul\":1091:1181   */\n      swap2\n      swap1\n      pop\n      jump\t// out\n        /* \"#utility.yul\":1187:1296   */\n    tag_250:\n        /* \"#utility.yul\":1268:1289   */\n      tag_308\n        /* \"#utility.yul\":1283:1288   */\n      dup2\n        /* \"#utility.yul\":1268:1289   */\n      tag_249\n      jump\t// in\n    tag_308:\n        /* \"#utility.yul\":1263:1266   */\n      dup3\n        /* \"#utility.yul\":1256:1290   */\n      mstore\n        /* \"#utility.yul\":1187:1296   */\n      pop\n      pop\n      jump\t// out\n        /* \"#utility.yul\":1302:1512   */\n    tag_34:\n        /* \"#utility.yul\":1389:1393   */\n      0x00\n        /* \"#utility.yul\":1427:1429   */\n      0x20\n        /* \"#utility.yul\":1416:1425   */\n      dup3\n        /* \"#utility.yul\":1412:1430   */\n      add\n        /* \"#utility.yul\":1404:1430   */\n      swap1\n      pop\n        /* \"#utility.yul\":1440:1505   */\n      tag_310\n        /* \"#utility.yul\":1502:1503   */\n      0x00\n        /* \"#utility.yul\":1491:1500   */\n      dup4\n        /* \"#utility.yul\":1487:1504   */\n      add\n        /* \"#utility.yul\":1478:1484   */\n      dup5\n        /* \"#utility.yul\":1440:1505   */\n      tag_250\n      jump\t// in\n    tag_310:\n        /* \"#utility.yul\":1302:1512   */\n      swap3\n      swap2\n      pop\n      pop\n      jump\t// out\n        /* \"#utility.yul\":1518:1595   */\n    tag_251:\n        /* \"#utility.yul\":1555:1562   */\n      0x00\n        /* \"#utility.yul\":1584:1589   */\n      dup2\n        /* \"#utility.yul\":1573:1589   */\n      swap1\n      pop\n        /* \"#utility.yul\":1518:1595   */\n      swap2\n      swap1\n      pop\n      jump\t// out\n        /* \"#utility.yul\":1601:1719   */\n    tag_252:\n        /* \"#utility.yul\":1688:1712   */\n      tag_313\n        /* \"#utility.yul\":1706:1711   */\n      dup2\n        /* \"#utility.yul\":1688:1712   */\n      tag_251\n      jump\t// in\n    tag_313:\n        /* \"#utility.yul\":1683:1686   */\n      dup3\n        /* \"#utility.yul\":1676:1713   */\n      mstore\n        /* \"#utility.yul\":1601:1719   */\n      pop\n      pop\n      jump\t// out\n        /* \"#utility.yul\":1725:1947   */\n    tag_39:\n        /* \"#utility.yul\":1818:1822   */\n      0x00\n        /* \"#utility.yul\":1856:1858   */\n      0x20\n        /* \"#utility.yul\":1845:1854   */\n      dup3\n        /* \"#utility.yul\":1841:1859   */\n      add\n        /* \"#utility.yul\":1833:1859   */\n      swap1\n      pop\n        /* \"#utility.yul\":1869:1940   */\n      tag_315\n        /* \"#utility.yul\":1937:1938   */\n      0x00\n        /* \"#utility.yul\":1926:1935   */\n      dup4\n        /* \"#utility.yul\":1922:1939   */\n      add\n        /* \"#utility.yul\":1913:1919   */\n      dup5\n        /* \"#utility.yul\":1869:1940   */\n      tag_252\n      jump\t// in\n    tag_315:\n        /* \"#utility.yul\":1725:1947   */\n      swap3\n      swap2\n      pop\n      pop\n      jump\t// out\n        /* \"#utility.yul\":1953:2030   */\n    tag_253:\n        /* \"#utility.yul\":1990:1997   */\n      0x00\n        /* \"#utility.yul\":2019:2024   */\n      dup2\n        /* \"#utility.yul\":2008:2024   */\n      swap1\n      pop\n        /* \"#utility.yul\":1953:2030   */\n      swap2\n      swap1\n      pop\n      jump\t// out\n        /* \"#utility.yul\":2036:2158   */\n    tag_254:\n        /* \"#utility.yul\":2109:2133   */\n      tag_318\n        /* \"#utility.yul\":2127:2132   */\n      dup2\n        /* \"#utility.yul\":2109:2133   */\n      tag_253\n      jump\t// in\n    tag_318:\n        /* \"#utility.yul\":2102:2107   */\n      dup2\n        /* \"#utility.yul\":2099:2134   */\n      eq\n        /* \"#utility.yul\":2089:2152   */\n      tag_319\n      jumpi\n        /* \"#utility.yul\":2148:2149   */\n      0x00\n        /* \"#utility.yul\":2145:2146   */\n      0x00\n        /* \"#utility.yul\":2138:2150   */\n      revert\n        /* \"#utility.yul\":2089:2152   */\n    tag_319:\n        /* \"#utility.yul\":2036:2158   */\n      pop\n      jump\t// out\n        /* \"#utility.yul\":2164:2303   */\n    tag_255:\n        /* \"#utility.yul\":2210:2215   */\n      0x00\n        /* \"#utility.yul\":2248:2254   */\n      dup2\n        /* \"#utility.yul\":2235:2255   */\n      calldataload\n        /* \"#utility.yul\":2226:2255   */\n      swap1\n      pop\n        /* \"#utility.yul\":2264:2297   */\n      tag_321\n        /* \"#utility.yul\":2291:2296   */\n      dup2\n        /* \"#utility.yul\":2264:2297   */\n      tag_254\n      jump\t// in\n    tag_321:\n        /* \"#utility.yul\":2164:2303   */\n      swap3\n      swap2\n      pop\n      pop\n      jump\t// out\n        /* \"#utility.yul\":2309:2638   */\n    tag_43:\n        /* \"#utility.yul\":2368:2374   */\n      0x00\n        /* \"#utility.yul\":2417:2419   */\n      0x20\n        /* \"#utility.yul\":2405:2414   */\n      dup3\n        /* \"#utility.yul\":2396:2403   */\n      dup5\n        /* \"#utility.yul\":2392:2415   */\n      sub\n        /* \"#utility.yul\":2388:2420   */\n      slt\n        /* \"#utility.yul\":2385:2504   */\n      iszero\n      tag_323\n      jumpi\n        /* \"#utility.yul\":2423:2502   */\n      tag_324\n      tag_244\n      jump\t// in\n    tag_324:\n        /* \"#utility.yul\":2385:2504   */\n    tag_323:\n        /* \"#utility.yul\":2543:2544   */\n      0x00\n        /* \"#utility.yul\":2568:2621   */\n      tag_325\n        /* \"#utility.yul\":2613:2620   */\n      dup5\n        /* \"#utility.yul\":2604:2610   */\n      dup3\n        /* \"#utility.yul\":2593:2602   */\n      dup6\n        /* \"#utility.yul\":2589:2611   */\n      add\n        /* \"#utility.yul\":2568:2621   */\n      tag_255\n      jump\t// in\n    tag_325:\n        /* \"#utility.yul\":2558:2621   */\n      swap2\n      pop\n        /* \"#utility.yul\":2514:2631   */\n      pop\n        /* \"#utility.yul\":2309:2638   */\n      swap3\n      swap2\n      pop\n      pop\n      jump\t// out\n        /* \"#utility.yul\":2644:2762   */\n    tag_256:\n        /* \"#utility.yul\":2731:2755   */\n      tag_327\n        /* \"#utility.yul\":2749:2754   */\n      dup2\n        /* \"#utility.yul\":2731:2755   */\n      tag_253\n      jump\t// in\n    tag_327:\n        /* \"#utility.yul\":2726:2729   */\n      dup3\n        /* \"#utility.yul\":2719:2756   */\n      mstore\n        /* \"#utility.yul\":2644:2762   */\n      pop\n      pop\n      jump\t// out\n        /* \"#utility.yul\":2768:2990   */\n    tag_46:\n        /* \"#utility.yul\":2861:2865   */\n      0x00\n        /* \"#utility.yul\":2899:2901   */\n      0x20\n        /* \"#utility.yul\":2888:2897   */\n      dup3\n        /* \"#utility.yul\":2884:2902   */\n      add\n        /* \"#utility.yul\":2876:2902   */\n      swap1\n      pop\n        /* \"#utility.yul\":2912:2983   */\n      tag_329\n        /* \"#utility.yul\":2980:2981   */\n      0x00\n        /* \"#utility.yul\":2969:2978   */\n      dup4\n        /* \"#utility.yul\":2965:2982   */\n      add\n        /* \"#utility.yul\":2956:2962   */\n      dup5\n        /* \"#utility.yul\":2912:2983   */\n      tag_256\n      jump\t// in\n    tag_329:\n        /* \"#utility.yul\":2768:2990   */\n      swap3\n      swap2\n      pop\n      pop\n      jump\t// out\n        /* \"#utility.yul\":2996:3122   */\n    tag_257:\n        /* \"#utility.yul\":3033:3040   */\n      0x00\n        /* \"#utility.yul\":3073:3115   */\n      0xffffffffffffffffffffffffffffffffffffffff\n        /* \"#utility.yul\":3066:3071   */\n      dup3\n        /* \"#utility.yul\":3062:3116   */\n      and\n        /* \"#utility.yul\":3051:3116   */\n      swap1\n      pop\n        /* \"#utility.yul\":2996:3122   */\n      swap2\n      swap1\n      pop\n      jump\t// out\n        /* \"#utility.yul\":3128:3224   */\n    tag_258:\n        /* \"#utility.yul\":3165:3172   */\n      0x00\n        /* \"#utility.yul\":3194:3218   */\n      tag_332\n        /* \"#utility.yul\":3212:3217   */\n      dup3\n        /* \"#utility.yul\":3194:3218   */\n      tag_257\n      jump\t// in\n    tag_332:\n        /* \"#utility.yul\":3183:3218   */\n      swap1\n      pop\n        /* \"#utility.yul\":3128:3224   */\n      swap2\n      swap1\n      pop\n      jump\t// out\n        /* \"#utility.yul\":3230:3352   */\n    tag_259:\n        /* \"#utility.yul\":3303:3327   */\n      tag_334\n        /* \"#utility.yul\":3321:3326   */\n      dup2\n        /* \"#utility.yul\":3303:3327   */\n      tag_258\n      jump\t// in\n    tag_334:\n        /* \"#utility.yul\":3296:3301   */\n      dup2\n        /* \"#utility.yul\":3293:3328   */\n      eq\n        /* \"#utility.yul\":3283:3346   */\n      tag_335\n      jumpi\n        /* \"#utility.yul\":3342:3343   */\n      0x00\n        /* \"#utility.yul\":3339:3340   */\n      0x00\n        /* \"#utility.yul\":3332:3344   */\n      revert\n        /* \"#utility.yul\":3283:3346   */\n    tag_335:\n        /* \"#utility.yul\":3230:3352   */\n      pop\n      jump\t// out\n        /* \"#utility.yul\":3358:3497   */\n    tag_260:\n        /* \"#utility.yul\":3404:3409   */\n      0x00\n        /* \"#utility.yul\":3442:3448   */\n      dup2\n        /* \"#utility.yul\":3429:3449   */\n      calldataload\n        /* \"#utility.yul\":3420:3449   */\n      swap1\n      pop\n        /* \"#utility.yul\":3458:3491   */\n      tag_337\n        /* \"#utility.yul\":3485:3490   */\n      dup2\n        /* \"#utility.yul\":3458:3491   */\n      tag_259\n      jump\t// in\n    tag_337:\n        /* \"#utility.yul\":3358:3497   */\n      swap3\n      swap2\n      pop\n      pop\n      jump\t// out\n        /* \"#utility.yul\":3503:3977   */\n    tag_50:\n        /* \"#utility.yul\":3571:3577   */\n      0x00\n        /* \"#utility.yul\":3579:3585   */\n      0x00\n        /* \"#utility.yul\":3628:3630   */\n      0x40\n        /* \"#utility.yul\":3616:3625   */\n      dup4\n        /* \"#utility.yul\":3607:3614   */\n      dup6\n        /* \"#utility.yul\":3603:3626   */\n      sub\n        /* \"#utility.yul\":3599:3631   */\n      slt\n        /* \"#utility.yul\":3596:3715   */\n      iszero\n      tag_339\n      jumpi\n        /* \"#utility.yul\":3634:3713   */\n      tag_340\n      tag_244\n      jump\t// in\n    tag_340:\n        /* \"#utility.yul\":3596:3715   */\n    tag_339:\n        /* \"#utility.yul\":3754:3755   */\n      0x00\n        /* \"#utility.yul\":3779:3832   */\n      tag_341\n        /* \"#utility.yul\":3824:3831   */\n      dup6\n        /* \"#utility.yul\":3815:3821   */\n      dup3\n        /* \"#utility.yul\":3804:3813   */\n      dup7\n        /* \"#utility.yul\":3800:3822   */\n      add\n        /* \"#utility.yul\":3779:3832   */\n      tag_255\n      jump\t// in\n    tag_341:\n        /* \"#utility.yul\":3769:3832   */\n      swap3\n      pop\n        /* \"#utility.yul\":3725:3842   */\n      pop\n        /* \"#utility.yul\":3881:3883   */\n      0x20\n        /* \"#utility.yul\":3907:3960   */\n      tag_342\n        /* \"#utility.yul\":3952:3959   */\n      dup6\n        /* \"#utility.yul\":3943:3949   */\n      dup3\n        /* \"#utility.yul\":3932:3941   */\n      dup7\n        /* \"#utility.yul\":3928:3950   */\n      add\n        /* \"#utility.yul\":3907:3960   */\n      tag_260\n      jump\t// in\n    tag_342:\n        /* \"#utility.yul\":3897:3960   */\n      swap2\n      pop\n        /* \"#utility.yul\":3852:3970   */\n      pop\n        /* \"#utility.yul\":3503:3977   */\n      swap3\n      pop\n      swap3\n      swap1\n      pop\n      jump\t// out\n        /* \"#utility.yul\":3983:4105   */\n    tag_261:\n        /* \"#utility.yul\":4056:4080   */\n      tag_344\n        /* \"#utility.yul\":4074:4079   */\n      dup2\n        /* \"#utility.yul\":4056:4080   */\n      tag_251\n      jump\t// in\n    tag_344:\n        /* \"#utility.yul\":4049:4054   */\n      dup2\n        /* \"#utility.yul\":4046:4081   */\n      eq\n        /* \"#utility.yul\":4036:4099   */\n      tag_345\n      jumpi\n        /* \"#utility.yul\":4095:4096   */\n      0x00\n        /* \"#utility.yul\":4092:4093   */\n      0x00\n        /* \"#utility.yul\":4085:4097   */\n      revert\n        /* \"#utility.yul\":4036:4099   */\n    tag_345:\n        /* \"#utility.yul\":3983:4105   */\n      pop\n      jump\t// out\n        /* \"#utility.yul\":4111:4250   */\n    tag_262:\n        /* \"#utility.yul\":4157:4162   */\n      0x00\n        /* \"#utility.yul\":4195:4201   */\n      dup2\n        /* \"#utility.yul\":4182:4202   */\n      calldataload\n        /* \"#utility.yul\":4173:4202   */\n      swap1\n      pop\n        /* \"#utility.yul\":4211:4244   */\n      tag_347\n        /* \"#utility.yul\":4238:4243   */\n      dup2\n        /* \"#utility.yul\":4211:4244   */\n      tag_261\n      jump\t// in\n    tag_347:\n        /* \"#utility.yul\":4111:4250   */\n      swap3\n      swap2\n      pop\n      pop\n      jump\t// out\n        /* \"#utility.yul\":4256:4730   */\n    tag_55:\n        /* \"#utility.yul\":4324:4330   */\n      0x00\n        /* \"#utility.yul\":4332:4338   */\n      0x00\n        /* \"#utility.yul\":4381:4383   */\n      0x40\n        /* \"#utility.yul\":4369:4378   */\n      dup4\n        /* \"#utility.yul\":4360:4367   */\n      dup6\n        /* \"#utility.yul\":4356:4379   */\n      sub\n        /* \"#utility.yul\":4352:4384   */\n      slt\n        /* \"#utility.yul\":4349:4468   */\n      iszero\n      tag_349\n      jumpi\n        /* \"#utility.yul\":4387:4466   */\n      tag_350\n      tag_244\n      jump\t// in\n    tag_350:\n        /* \"#utility.yul\":4349:4468   */\n    tag_349:\n        /* \"#utility.yul\":4507:4508   */\n      0x00\n        /* \"#utility.yul\":4532:4585   */\n      tag_351\n        /* \"#utility.yul\":4577:4584   */\n      dup6\n        /* \"#utility.yul\":4568:4574   */\n      dup3\n        /* \"#utility.yul\":4557:4566   */\n      dup7\n        /* \"#utility.yul\":4553:4575   */\n      add\n        /* \"#utility.yul\":4532:4585   */\n      tag_260\n      jump\t// in\n    tag_351:\n        /* \"#utility.yul\":4522:4585   */\n      swap3\n      pop\n        /* \"#utility.yul\":4478:4595   */\n      pop\n        /* \"#utility.yul\":4634:4636   */\n      0x20\n        /* \"#utility.yul\":4660:4713   */\n      tag_352\n        /* \"#utility.yul\":4705:4712   */\n      dup6\n        /* \"#utility.yul\":4696:4702   */\n      dup3\n        /* \"#utility.yul\":4685:4694   */\n      dup7\n        /* \"#utility.yul\":4681:4703   */\n      add\n        /* \"#utility.yul\":4660:4713   */\n      tag_262\n      jump\t// in\n    tag_352:\n        /* \"#utility.yul\":4650:4713   */\n      swap2\n      pop\n        /* \"#utility.yul\":4605:4723   */\n      pop\n        /* \"#utility.yul\":4256:4730   */\n      swap3\n      pop\n      swap3\n      swap1\n      pop\n      jump\t// out\n        /* \"#utility.yul\":4736:5065   */\n    tag_64:\n        /* \"#utility.yul\":4795:4801   */\n      0x00\n        /* \"#utility.yul\":4844:4846   */\n      0x20\n        /* \"#utility.yul\":4832:4841   */\n      dup3\n        /* \"#utility.yul\":4823:4830   */\n      dup5\n        /* \"#utility.yul\":4819:4842   */\n      sub\n        /* \"#utility.yul\":4815:4847   */\n      slt\n        /* \"#utility.yul\":4812:4931   */\n      iszero\n      tag_354\n      jumpi\n        /* \"#utility.yul\":4850:4929   */\n      tag_355\n      tag_244\n      jump\t// in\n    tag_355:\n        /* \"#utility.yul\":4812:4931   */\n    tag_354:\n        /* \"#utility.yul\":4970:4971   */\n      0x00\n        /* \"#utility.yul\":4995:5048   */\n      tag_356\n        /* \"#utility.yul\":5040:5047   */\n      dup5\n        /* \"#utility.yul\":5031:5037   */\n      dup3\n        /* \"#utility.yul\":5020:5029   */\n      dup6\n        /* \"#utility.yul\":5016:5038   */\n      add\n        /* \"#utility.yul\":4995:5048   */\n      tag_262\n      jump\t// in\n    tag_356:\n        /* \"#utility.yul\":4985:5048   */\n      swap2\n      pop\n        /* \"#utility.yul\":4941:5058   */\n      pop\n        /* \"#utility.yul\":4736:5065   */\n      swap3\n      swap2\n      pop\n      pop\n      jump\t// out\n        /* \"#utility.yul\":5071:5131   */\n    tag_263:\n        /* \"#utility.yul\":5099:5102   */\n      0x00\n        /* \"#utility.yul\":5120:5125   */\n      dup2\n        /* \"#utility.yul\":5113:5125   */\n      swap1\n      pop\n        /* \"#utility.yul\":5071:5131   */\n      swap2\n      swap1\n      pop\n      jump\t// out\n        /* \"#utility.yul\":5137:5279   */\n    tag_264:\n        /* \"#utility.yul\":5187:5196   */\n      0x00\n        /* \"#utility.yul\":5220:5273   */\n      tag_359\n        /* \"#utility.yul\":5238:5272   */\n      tag_360\n        /* \"#utility.yul\":5247:5271   */\n      tag_361\n        /* \"#utility.yul\":5265:5270   */\n      dup5\n        /* \"#utility.yul\":5247:5271   */\n      tag_257\n      jump\t// in\n    tag_361:\n        /* \"#utility.yul\":5238:5272   */\n      tag_263\n      jump\t// in\n    tag_360:\n        /* \"#utility.yul\":5220:5273   */\n      tag_257\n      jump\t// in\n    tag_359:\n        /* \"#utility.yul\":5207:5273   */\n      swap1\n      pop\n        /* \"#utility.yul\":5137:5279   */\n      swap2\n      swap1\n      pop\n      jump\t// out\n        /* \"#utility.yul\":5285:5411   */\n    tag_265:\n        /* \"#utility.yul\":5335:5344   */\n      0x00\n        /* \"#utility.yul\":5368:5405   */\n      tag_363\n        /* \"#utility.yul\":5399:5404   */\n      dup3\n        /* \"#utility.yul\":5368:5405   */\n      tag_264\n      jump\t// in\n    tag_363:\n        /* \"#utility.yul\":5355:5405   */\n      swap1\n      pop\n        /* \"#utility.yul\":5285:5411   */\n      swap2\n      swap1\n      pop\n      jump\t// out\n        /* \"#utility.yul\":5417:5571   */\n    tag_266:\n        /* \"#utility.yul\":5495:5504   */\n      0x00\n        /* \"#utility.yul\":5528:5565   */\n      tag_365\n        /* \"#utility.yul\":5559:5564   */\n      dup3\n        /* \"#utility.yul\":5528:5565   */\n      tag_265\n      jump\t// in\n    tag_365:\n        /* \"#utility.yul\":5515:5565   */\n      swap1\n      pop\n        /* \"#utility.yul\":5417:5571   */\n      swap2\n      swap1\n      pop\n      jump\t// out\n        /* \"#utility.yul\":5577:5764   */\n    tag_267:\n        /* \"#utility.yul\":5692:5757   */\n      tag_367\n        /* \"#utility.yul\":5751:5756   */\n      dup2\n        /* \"#utility.yul\":5692:5757   */\n      tag_266\n      jump\t// in\n    tag_367:\n        /* \"#utility.yul\":5687:5690   */\n      dup3\n        /* \"#utility.yul\":5680:5758   */\n      mstore\n        /* \"#utility.yul\":5577:5764   */\n      pop\n      pop\n      jump\t// out\n        /* \"#utility.yul\":5770:6048   */\n    tag_70:\n        /* \"#utility.yul\":5891:5895   */\n      0x00\n        /* \"#utility.yul\":5929:5931   */\n      0x20\n        /* \"#utility.yul\":5918:5927   */\n      dup3\n        /* \"#utility.yul\":5914:5932   */\n      add\n        /* \"#utility.yul\":5906:5932   */\n      swap1\n      pop\n        /* \"#utility.yul\":5942:6041   */\n      tag_369\n        /* \"#utility.yul\":6038:6039   */\n      0x00\n        /* \"#utility.yul\":6027:6036   */\n      dup4\n        /* \"#utility.yul\":6023:6040   */\n      add\n        /* \"#utility.yul\":6014:6020   */\n      dup5\n        /* \"#utility.yul\":5942:6041   */\n      tag_267\n      jump\t// in\n    tag_369:\n        /* \"#utility.yul\":5770:6048   */\n      swap3\n      swap2\n      pop\n      pop\n      jump\t// out\n        /* \"#utility.yul\":6054:6140   */\n    tag_268:\n        /* \"#utility.yul\":6089:6096   */\n      0x00\n        /* \"#utility.yul\":6129:6133   */\n      0xff\n        /* \"#utility.yul\":6122:6127   */\n      dup3\n        /* \"#utility.yul\":6118:6134   */\n      and\n        /* \"#utility.yul\":6107:6134   */\n      swap1\n      pop\n        /* \"#utility.yul\":6054:6140   */\n      swap2\n      swap1\n      pop\n      jump\t// out\n        /* \"#utility.yul\":6146:6258   */\n    tag_269:\n        /* \"#utility.yul\":6229:6251   */\n      tag_372\n        /* \"#utility.yul\":6245:6250   */\n      dup2\n        /* \"#utility.yul\":6229:6251   */\n      tag_268\n      jump\t// in\n    tag_372:\n        /* \"#utility.yul\":6224:6227   */\n      dup3\n        /* \"#utility.yul\":6217:6252   */\n      mstore\n        /* \"#utility.yul\":6146:6258   */\n      pop\n      pop\n      jump\t// out\n        /* \"#utility.yul\":6264:6478   */\n    tag_88:\n        /* \"#utility.yul\":6353:6357   */\n      0x00\n        /* \"#utility.yul\":6391:6393   */\n      0x20\n        /* \"#utility.yul\":6380:6389   */\n      dup3\n        /* \"#utility.yul\":6376:6394   */\n      add\n        /* \"#utility.yul\":6368:6394   */\n      swap1\n      pop\n        /* \"#utility.yul\":6404:6471   */\n      tag_374\n        /* \"#utility.yul\":6468:6469   */\n      0x00\n        /* \"#utility.yul\":6457:6466   */\n      dup4\n        /* \"#utility.yul\":6453:6470   */\n      add\n        /* \"#utility.yul\":6444:6450   */\n      dup5\n        /* \"#utility.yul\":6404:6471   */\n      tag_269\n      jump\t// in\n    tag_374:\n        /* \"#utility.yul\":6264:6478   */\n      swap3\n      swap2\n      pop\n      pop\n      jump\t// out\n        /* \"#utility.yul\":6484:6958   */\n    tag_92:\n        /* \"#utility.yul\":6552:6558   */\n      0x00\n        /* \"#utility.yul\":6560:6566   */\n      0x00\n        /* \"#utility.yul\":6609:6611   */\n      0x40\n        /* \"#utility.yul\":6597:6606   */\n      dup4\n        /* \"#utility.yul\":6588:6595   */\n      dup6\n        /* \"#utility.yul\":6584:6607   */\n      sub\n        /* \"#utility.yul\":6580:6612   */\n      slt\n        /* \"#utility.yul\":6577:6696   */\n      iszero\n      tag_376\n      jumpi\n        /* \"#utility.yul\":6615:6694   */\n      tag_377\n      tag_244\n      jump\t// in\n    tag_377:\n        /* \"#utility.yul\":6577:6696   */\n    tag_376:\n        /* \"#utility.yul\":6735:6736   */\n      0x00\n        /* \"#utility.yul\":6760:6813   */\n      tag_378\n        /* \"#utility.yul\":6805:6812   */\n      dup6\n        /* \"#utility.yul\":6796:6802   */\n      dup3\n        /* \"#utility.yul\":6785:6794   */\n      dup7\n        /* \"#utility.yul\":6781:6803   */\n      add\n        /* \"#utility.yul\":6760:6813   */\n      tag_260\n      jump\t// in\n    tag_378:\n        /* \"#utility.yul\":6750:6813   */\n      swap3\n      pop\n        /* \"#utility.yul\":6706:6823   */\n      pop\n        /* \"#utility.yul\":6862:6864   */\n      0x20\n        /* \"#utility.yul\":6888:6941   */\n      tag_379\n        /* \"#utility.yul\":6933:6940   */\n      dup6\n        /* \"#utility.yul\":6924:6930   */\n      dup3\n        /* \"#utility.yul\":6913:6922   */\n      dup7\n        /* \"#utility.yul\":6909:6931   */\n      add\n        /* \"#utility.yul\":6888:6941   */\n      tag_260\n      jump\t// in\n    tag_379:\n        /* \"#utility.yul\":6878:6941   */\n      swap2\n      pop\n        /* \"#utility.yul\":6833:6951   */\n      pop\n        /* \"#utility.yul\":6484:6958   */\n      swap3\n      pop\n      swap3\n      swap1\n      pop\n      jump\t// out\n        /* \"#utility.yul\":6964:7144   */\n    tag_270:\n        /* \"#utility.yul\":7012:7089   */\n      0x4e487b7100000000000000000000000000000000000000000000000000000000\n        /* \"#utility.yul\":7009:7010   */\n      0x00\n        /* \"#utility.yul\":7002:7090   */\n      mstore\n        /* \"#utility.yul\":7109:7113   */\n      0x11\n        /* \"#utility.yul\":7106:7107   */\n      0x04\n        /* \"#utility.yul\":7099:7114   */\n      mstore\n        /* \"#utility.yul\":7133:7137   */\n      0x24\n        /* \"#utility.yul\":7130:7131   */\n      0x00\n        /* \"#utility.yul\":7123:7138   */\n      revert\n        /* \"#utility.yul\":7150:7341   */\n    tag_119:\n        /* \"#utility.yul\":7190:7193   */\n      0x00\n        /* \"#utility.yul\":7209:7229   */\n      tag_382\n        /* \"#utility.yul\":7227:7228   */\n      dup3\n        /* \"#utility.yul\":7209:7229   */\n      tag_251\n      jump\t// in\n    tag_382:\n        /* \"#utility.yul\":7204:7229   */\n      swap2\n      pop\n        /* \"#utility.yul\":7243:7263   */\n      tag_383\n        /* \"#utility.yul\":7261:7262   */\n      dup4\n        /* \"#utility.yul\":7243:7263   */\n      tag_251\n      jump\t// in\n    tag_383:\n        /* \"#utility.yul\":7238:7263   */\n      swap3\n      pop\n        /* \"#utility.yul\":7286:7287   */\n      dup3\n        /* \"#utility.yul\":7283:7284   */\n      dup3\n        /* \"#utility.yul\":7279:7288   */\n      add\n        /* \"#utility.yul\":7272:7288   */\n      swap1\n      pop\n        /* \"#utility.yul\":7307:7310   */\n      dup1\n        /* \"#utility.yul\":7304:7305   */\n      dup3\n        /* \"#utility.yul\":7301:7311   */\n      gt\n        /* \"#utility.yul\":7298:7334   */\n      iszero\n      tag_384\n      jumpi\n        /* \"#utility.yul\":7314:7332   */\n      tag_385\n      tag_270\n      jump\t// in\n    tag_385:\n        /* \"#utility.yul\":7298:7334   */\n    tag_384:\n        /* \"#utility.yul\":7150:7341   */\n      swap3\n      swap2\n      pop\n      pop\n      jump\t// out\n        /* \"#utility.yul\":7347:7516   */\n    tag_271:\n        /* \"#utility.yul\":7431:7442   */\n      0x00\n        /* \"#utility.yul\":7465:7471   */\n      dup3\n        /* \"#utility.yul\":7460:7463   */\n      dup3\n        /* \"#utility.yul\":7453:7472   */\n      mstore\n        /* \"#utility.yul\":7505:7509   */\n      0x20\n        /* \"#utility.yul\":7500:7503   */\n      dup3\n        /* \"#utility.yul\":7496:7510   */\n      add\n        /* \"#utility.yul\":7481:7510   */\n      swap1\n      pop\n        /* \"#utility.yul\":7347:7516   */\n      swap3\n      swap2\n      pop\n      pop\n      jump\t// out\n        /* \"#utility.yul\":7522:7686   */\n    tag_272:\n        /* \"#utility.yul\":7662:7678   */\n      0x496e76616c696420616d6f756e74000000000000000000000000000000000000\n        /* \"#utility.yul\":7658:7659   */\n      0x00\n        /* \"#utility.yul\":7650:7656   */\n      dup3\n        /* \"#utility.yul\":7646:7660   */\n      add\n        /* \"#utility.yul\":7639:7679   */\n      mstore\n        /* \"#utility.yul\":7522:7686   */\n      pop\n      jump\t// out\n        /* \"#utility.yul\":7692:8058   */\n    tag_273:\n        /* \"#utility.yul\":7834:7837   */\n      0x00\n        /* \"#utility.yul\":7855:7922   */\n      tag_389\n        /* \"#utility.yul\":7919:7921   */\n      0x0e\n        /* \"#utility.yul\":7914:7917   */\n      dup4\n        /* \"#utility.yul\":7855:7922   */\n      tag_271\n      jump\t// in\n    tag_389:\n        /* \"#utility.yul\":7848:7922   */\n      swap2\n      pop\n        /* \"#utility.yul\":7931:8024   */\n      tag_390\n        /* \"#utility.yul\":8020:8023   */\n      dup3\n        /* \"#utility.yul\":7931:8024   */\n      tag_272\n      jump\t// in\n    tag_390:\n        /* \"#utility.yul\":8049:8051   */\n      0x20\n        /* \"#utility.yul\":8044:8047   */\n      dup3\n        /* \"#utility.yul\":8040:8052   */\n      add\n        /* \"#utility.yul\":8033:8052   */\n      swap1\n      pop\n        /* \"#utility.yul\":7692:8058   */\n      swap2\n      swap1\n      pop\n      jump\t// out\n        /* \"#utility.yul\":8064:8483   */\n    tag_143:\n        /* \"#utility.yul\":8230:8234   */\n      0x00\n        /* \"#utility.yul\":8268:8270   */\n      0x20\n        /* \"#utility.yul\":8257:8266   */\n      dup3\n        /* \"#utility.yul\":8253:8271   */\n      add\n        /* \"#utility.yul\":8245:8271   */\n      swap1\n      pop\n        /* \"#utility.yul\":8317:8326   */\n      dup2\n        /* \"#utility.yul\":8311:8315   */\n      dup2\n        /* \"#utility.yul\":8307:8327   */\n      sub\n        /* \"#utility.yul\":8303:8304   */\n      0x00\n        /* \"#utility.yul\":8292:8301   */\n      dup4\n        /* \"#utility.yul\":8288:8305   */\n      add\n        /* \"#utility.yul\":8281:8328   */\n      mstore\n        /* \"#utility.yul\":8345:8476   */\n      tag_392\n        /* \"#utility.yul\":8471:8475   */\n      dup2\n        /* \"#utility.yul\":8345:8476   */\n      tag_273\n      jump\t// in\n    tag_392:\n        /* \"#utility.yul\":8337:8476   */\n      swap1\n      pop\n        /* \"#utility.yul\":8064:8483   */\n      swap2\n      swap1\n      pop\n      jump\t// out\n        /* \"#utility.yul\":8489:8607   */\n    tag_274:\n        /* \"#utility.yul\":8576:8600   */\n      tag_394\n        /* \"#utility.yul\":8594:8599   */\n      dup2\n        /* \"#utility.yul\":8576:8600   */\n      tag_258\n      jump\t// in\n    tag_394:\n        /* \"#utility.yul\":8571:8574   */\n      dup3\n        /* \"#utility.yul\":8564:8601   */\n      mstore\n        /* \"#utility.yul\":8489:8607   */\n      pop\n      pop\n      jump\t// out\n        /* \"#utility.yul\":8613:9055   */\n    tag_145:\n        /* \"#utility.yul\":8762:8766   */\n      0x00\n        /* \"#utility.yul\":8800:8802   */\n      0x60\n        /* \"#utility.yul\":8789:8798   */\n      dup3\n        /* \"#utility.yul\":8785:8803   */\n      add\n        /* \"#utility.yul\":8777:8803   */\n      swap1\n      pop\n        /* \"#utility.yul\":8813:8884   */\n      tag_396\n        /* \"#utility.yul\":8881:8882   */\n      0x00\n        /* \"#utility.yul\":8870:8879   */\n      dup4\n        /* \"#utility.yul\":8866:8883   */\n      add\n        /* \"#utility.yul\":8857:8863   */\n      dup7\n        /* \"#utility.yul\":8813:8884   */\n      tag_274\n      jump\t// in\n    tag_396:\n        /* \"#utility.yul\":8894:8966   */\n      tag_397\n        /* \"#utility.yul\":8962:8964   */\n      0x20\n        /* \"#utility.yul\":8951:8960   */\n      dup4\n        /* \"#utility.yul\":8947:8965   */\n      add\n        /* \"#utility.yul\":8938:8944   */\n      dup6\n        /* \"#utility.yul\":8894:8966   */\n      tag_274\n      jump\t// in\n    tag_397:\n        /* \"#utility.yul\":8976:9048   */\n      tag_398\n        /* \"#utility.yul\":9044:9046   */\n      0x40\n        /* \"#utility.yul\":9033:9042   */\n      dup4\n        /* \"#utility.yul\":9029:9047   */\n      add\n        /* \"#utility.yul\":9020:9026   */\n      dup5\n        /* \"#utility.yul\":8976:9048   */\n      tag_252\n      jump\t// in\n    tag_398:\n        /* \"#utility.yul\":8613:9055   */\n      swap5\n      swap4\n      pop\n      pop\n      pop\n      pop\n      jump\t// out\n        /* \"#utility.yul\":9061:9177   */\n    tag_275:\n        /* \"#utility.yul\":9131:9152   */\n      tag_400\n        /* \"#utility.yul\":9146:9151   */\n      dup2\n        /* \"#utility.yul\":9131:9152   */\n      tag_249\n      jump\t// in\n    tag_400:\n        /* \"#utility.yul\":9124:9129   */\n      dup2\n        /* \"#utility.yul\":9121:9153   */\n      eq\n        /* \"#utility.yul\":9111:9171   */\n      tag_401\n      jumpi\n        /* \"#utility.yul\":9167:9168   */\n      0x00\n        /* \"#utility.yul\":9164:9165   */\n      0x00\n        /* \"#utility.yul\":9157:9169   */\n      revert\n        /* \"#utility.yul\":9111:9171   */\n    tag_401:\n        /* \"#utility.yul\":9061:9177   */\n      pop\n      jump\t// out\n        /* \"#utility.yul\":9183:9320   */\n    tag_276:\n        /* \"#utility.yul\":9237:9242   */\n      0x00\n        /* \"#utility.yul\":9268:9274   */\n      dup2\n        /* \"#utility.yul\":9262:9275   */\n      mload\n        /* \"#utility.yul\":9253:9275   */\n      swap1\n      pop\n        /* \"#utility.yul\":9284:9314   */\n      tag_403\n        /* \"#utility.yul\":9308:9313   */\n      dup2\n        /* \"#utility.yul\":9284:9314   */\n      tag_275\n      jump\t// in\n    tag_403:\n        /* \"#utility.yul\":9183:9320   */\n      swap3\n      swap2\n      pop\n      pop\n      jump\t// out\n        /* \"#utility.yul\":9326:9671   */\n    tag_149:\n        /* \"#utility.yul\":9393:9399   */\n      0x00\n        /* \"#utility.yul\":9442:9444   */\n      0x20\n        /* \"#utility.yul\":9430:9439   */\n      dup3\n        /* \"#utility.yul\":9421:9428   */\n      dup5\n        /* \"#utility.yul\":9417:9440   */\n      sub\n        /* \"#utility.yul\":9413:9445   */\n      slt\n        /* \"#utility.yul\":9410:9529   */\n      iszero\n      tag_405\n      jumpi\n        /* \"#utility.yul\":9448:9527   */\n      tag_406\n      tag_244\n      jump\t// in\n    tag_406:\n        /* \"#utility.yul\":9410:9529   */\n    tag_405:\n        /* \"#utility.yul\":9568:9569   */\n      0x00\n        /* \"#utility.yul\":9593:9654   */\n      tag_407\n        /* \"#utility.yul\":9646:9653   */\n      dup5\n        /* \"#utility.yul\":9637:9643   */\n      dup3\n        /* \"#utility.yul\":9626:9635   */\n      dup6\n        /* \"#utility.yul\":9622:9644   */\n      add\n        /* \"#utility.yul\":9593:9654   */\n      tag_276\n      jump\t// in\n    tag_407:\n        /* \"#utility.yul\":9583:9654   */\n      swap2\n      pop\n        /* \"#utility.yul\":9539:9664   */\n      pop\n        /* \"#utility.yul\":9326:9671   */\n      swap3\n      swap2\n      pop\n      pop\n      jump\t// out\n        /* \"#utility.yul\":9677:9871   */\n    tag_174:\n        /* \"#utility.yul\":9717:9721   */\n      0x00\n        /* \"#utility.yul\":9737:9757   */\n      tag_409\n        /* \"#utility.yul\":9755:9756   */\n      dup3\n        /* \"#utility.yul\":9737:9757   */\n      tag_251\n      jump\t// in\n    tag_409:\n        /* \"#utility.yul\":9732:9757   */\n      swap2\n      pop\n        /* \"#utility.yul\":9771:9791   */\n      tag_410\n        /* \"#utility.yul\":9789:9790   */\n      dup4\n        /* \"#utility.yul\":9771:9791   */\n      tag_251\n      jump\t// in\n    tag_410:\n        /* \"#utility.yul\":9766:9791   */\n      swap3\n      pop\n        /* \"#utility.yul\":9815:9816   */\n      dup3\n        /* \"#utility.yul\":9812:9813   */\n      dup3\n        /* \"#utility.yul\":9808:9817   */\n      sub\n        /* \"#utility.yul\":9800:9817   */\n      swap1\n      pop\n        /* \"#utility.yul\":9839:9840   */\n      dup2\n        /* \"#utility.yul\":9833:9837   */\n      dup2\n        /* \"#utility.yul\":9830:9841   */\n      gt\n        /* \"#utility.yul\":9827:9864   */\n      iszero\n      tag_411\n      jumpi\n        /* \"#utility.yul\":9844:9862   */\n      tag_412\n      tag_270\n      jump\t// in\n    tag_412:\n        /* \"#utility.yul\":9827:9864   */\n    tag_411:\n        /* \"#utility.yul\":9677:9871   */\n      swap3\n      swap2\n      pop\n      pop\n      jump\t// out\n        /* \"#utility.yul\":9877:10209   */\n    tag_176:\n        /* \"#utility.yul\":9998:10002   */\n      0x00\n        /* \"#utility.yul\":10036:10038   */\n      0x40\n        /* \"#utility.yul\":10025:10034   */\n      dup3\n        /* \"#utility.yul\":10021:10039   */\n      add\n        /* \"#utility.yul\":10013:10039   */\n      swap1\n      pop\n        /* \"#utility.yul\":10049:10120   */\n      tag_414\n        /* \"#utility.yul\":10117:10118   */\n      0x00\n        /* \"#utility.yul\":10106:10115   */\n      dup4\n        /* \"#utility.yul\":10102:10119   */\n      add\n        /* \"#utility.yul\":10093:10099   */\n      dup6\n        /* \"#utility.yul\":10049:10120   */\n      tag_274\n      jump\t// in\n    tag_414:\n        /* \"#utility.yul\":10130:10202   */\n      tag_415\n        /* \"#utility.yul\":10198:10200   */\n      0x20\n        /* \"#utility.yul\":10187:10196   */\n      dup4\n        /* \"#utility.yul\":10183:10201   */\n      add\n        /* \"#utility.yul\":10174:10180   */\n      dup5\n        /* \"#utility.yul\":10130:10202   */\n      tag_252\n      jump\t// in\n    tag_415:\n        /* \"#utility.yul\":9877:10209   */\n      swap4\n      swap3\n      pop\n      pop\n      pop\n      jump\t// out\n        /* \"#utility.yul\":10215:10396   */\n    tag_277:\n        /* \"#utility.yul\":10355:10388   */\n      0x5265656e7472616e637947756172643a207265656e7472616e742063616c6c00\n        /* \"#utility.yul\":10351:10352   */\n      0x00\n        /* \"#utility.yul\":10343:10349   */\n      dup3\n        /* \"#utility.yul\":10339:10353   */\n      add\n        /* \"#utility.yul\":10332:10389   */\n      mstore\n        /* \"#utility.yul\":10215:10396   */\n      pop\n      jump\t// out\n        /* \"#utility.yul\":10402:10768   */\n    tag_278:\n        /* \"#utility.yul\":10544:10547   */\n      0x00\n        /* \"#utility.yul\":10565:10632   */\n      tag_418\n        /* \"#utility.yul\":10629:10631   */\n      0x1f\n        /* \"#utility.yul\":10624:10627   */\n      dup4\n        /* \"#utility.yul\":10565:10632   */\n      tag_271\n      jump\t// in\n    tag_418:\n        /* \"#utility.yul\":10558:10632   */\n      swap2\n      pop\n        /* \"#utility.yul\":10641:10734   */\n      tag_419\n        /* \"#utility.yul\":10730:10733   */\n      dup3\n        /* \"#utility.yul\":10641:10734   */\n      tag_277\n      jump\t// in\n    tag_419:\n        /* \"#utility.yul\":10759:10761   */\n      0x20\n        /* \"#utility.yul\":10754:10757   */\n      dup3\n        /* \"#utility.yul\":10750:10762   */\n      add\n        /* \"#utility.yul\":10743:10762   */\n      swap1\n      pop\n        /* \"#utility.yul\":10402:10768   */\n      swap2\n      swap1\n      pop\n      jump\t// out\n        /* \"#utility.yul\":10774:11193   */\n    tag_199:\n        /* \"#utility.yul\":10940:10944   */\n      0x00\n        /* \"#utility.yul\":10978:10980   */\n      0x20\n        /* \"#utility.yul\":10967:10976   */\n      dup3\n        /* \"#utility.yul\":10963:10981   */\n      add\n        /* \"#utility.yul\":10955:10981   */\n      swap1\n      pop\n        /* \"#utility.yul\":11027:11036   */\n      dup2\n        /* \"#utility.yul\":11021:11025   */\n      dup2\n        /* \"#utility.yul\":11017:11037   */\n      sub\n        /* \"#utility.yul\":11013:11014   */\n      0x00\n        /* \"#utility.yul\":11002:11011   */\n      dup4\n        /* \"#utility.yul\":10998:11015   */\n      add\n        /* \"#utility.yul\":10991:11038   */\n      mstore\n        /* \"#utility.yul\":11055:11186   */\n      tag_421\n        /* \"#utility.yul\":11181:11185   */\n      dup2\n        /* \"#utility.yul\":11055:11186   */\n      tag_278\n      jump\t// in\n    tag_421:\n        /* \"#utility.yul\":11047:11186   */\n      swap1\n      pop\n        /* \"#utility.yul\":10774:11193   */\n      swap2\n      swap1\n      pop\n      jump\t// out\n        /* \"#utility.yul\":11199:11304   */\n    tag_279:\n        /* \"#utility.yul\":11235:11242   */\n      0x00\n        /* \"#utility.yul\":11275:11297   */\n      0xffffffffffffffffffff\n        /* \"#utility.yul\":11268:11273   */\n      dup3\n        /* \"#utility.yul\":11264:11298   */\n      and\n        /* \"#utility.yul\":11253:11298   */\n      swap1\n      pop\n        /* \"#utility.yul\":11199:11304   */\n      swap2\n      swap1\n      pop\n      jump\t// out\n        /* \"#utility.yul\":11310:11430   */\n    tag_280:\n        /* \"#utility.yul\":11382:11405   */\n      tag_424\n        /* \"#utility.yul\":11399:11404   */\n      dup2\n        /* \"#utility.yul\":11382:11405   */\n      tag_279\n      jump\t// in\n    tag_424:\n        /* \"#utility.yul\":11375:11380   */\n      dup2\n        /* \"#utility.yul\":11372:11406   */\n      eq\n        /* \"#utility.yul\":11362:11424   */\n      tag_425\n      jumpi\n        /* \"#utility.yul\":11420:11421   */\n      0x00\n        /* \"#utility.yul\":11417:11418   */\n      0x00\n        /* \"#utility.yul\":11410:11422   */\n      revert\n        /* \"#utility.yul\":11362:11424   */\n    tag_425:\n        /* \"#utility.yul\":11310:11430   */\n      pop\n      jump\t// out\n        /* \"#utility.yul\":11436:11577   */\n    tag_281:\n        /* \"#utility.yul\":11492:11497   */\n      0x00\n        /* \"#utility.yul\":11523:11529   */\n      dup2\n        /* \"#utility.yul\":11517:11530   */\n      mload\n        /* \"#utility.yul\":11508:11530   */\n      swap1\n      pop\n        /* \"#utility.yul\":11539:11571   */\n      tag_427\n        /* \"#utility.yul\":11565:11570   */\n      dup2\n        /* \"#utility.yul\":11539:11571   */\n      tag_280\n      jump\t// in\n    tag_427:\n        /* \"#utility.yul\":11436:11577   */\n      swap3\n      swap2\n      pop\n      pop\n      jump\t// out\n        /* \"#utility.yul\":11583:11659   */\n    tag_282:\n        /* \"#utility.yul\":11619:11626   */\n      0x00\n        /* \"#utility.yul\":11648:11653   */\n      dup2\n        /* \"#utility.yul\":11637:11653   */\n      swap1\n      pop\n        /* \"#utility.yul\":11583:11659   */\n      swap2\n      swap1\n      pop\n      jump\t// out\n        /* \"#utility.yul\":11665:11785   */\n    tag_283:\n        /* \"#utility.yul\":11737:11760   */\n      tag_430\n        /* \"#utility.yul\":11754:11759   */\n      dup2\n        /* \"#utility.yul\":11737:11760   */\n      tag_282\n      jump\t// in\n    tag_430:\n        /* \"#utility.yul\":11730:11735   */\n      dup2\n        /* \"#utility.yul\":11727:11761   */\n      eq\n        /* \"#utility.yul\":11717:11779   */\n      tag_431\n      jumpi\n        /* \"#utility.yul\":11775:11776   */\n      0x00\n        /* \"#utility.yul\":11772:11773   */\n      0x00\n        /* \"#utility.yul\":11765:11777   */\n      revert\n        /* \"#utility.yul\":11717:11779   */\n    tag_431:\n        /* \"#utility.yul\":11665:11785   */\n      pop\n      jump\t// out\n        /* \"#utility.yul\":11791:11932   */\n    tag_284:\n        /* \"#utility.yul\":11847:11852   */\n      0x00\n        /* \"#utility.yul\":11878:11884   */\n      dup2\n        /* \"#utility.yul\":11872:11885   */\n      mload\n        /* \"#utility.yul\":11863:11885   */\n      swap1\n      pop\n        /* \"#utility.yul\":11894:11926   */\n      tag_433\n        /* \"#utility.yul\":11920:11925   */\n      dup2\n        /* \"#utility.yul\":11894:11926   */\n      tag_283\n      jump\t// in\n    tag_433:\n        /* \"#utility.yul\":11791:11932   */\n      swap3\n      swap2\n      pop\n      pop\n      jump\t// out\n        /* \"#utility.yul\":11938:12081   */\n    tag_285:\n        /* \"#utility.yul\":11995:12000   */\n      0x00\n        /* \"#utility.yul\":12026:12032   */\n      dup2\n        /* \"#utility.yul\":12020:12033   */\n      mload\n        /* \"#utility.yul\":12011:12033   */\n      swap1\n      pop\n        /* \"#utility.yul\":12042:12075   */\n      tag_435\n        /* \"#utility.yul\":12069:12074   */\n      dup2\n        /* \"#utility.yul\":12042:12075   */\n      tag_261\n      jump\t// in\n    tag_435:\n        /* \"#utility.yul\":11938:12081   */\n      swap3\n      swap2\n      pop\n      pop\n      jump\t// out\n        /* \"#utility.yul\":12087:13058   */\n    tag_204:\n        /* \"#utility.yul\":12190:12196   */\n      0x00\n        /* \"#utility.yul\":12198:12204   */\n      0x00\n        /* \"#utility.yul\":12206:12212   */\n      0x00\n        /* \"#utility.yul\":12214:12220   */\n      0x00\n        /* \"#utility.yul\":12222:12228   */\n      0x00\n        /* \"#utility.yul\":12271:12274   */\n      0xa0\n        /* \"#utility.yul\":12259:12268   */\n      dup7\n        /* \"#utility.yul\":12250:12257   */\n      dup9\n        /* \"#utility.yul\":12246:12269   */\n      sub\n        /* \"#utility.yul\":12242:12275   */\n      slt\n        /* \"#utility.yul\":12239:12359   */\n      iszero\n      tag_437\n      jumpi\n        /* \"#utility.yul\":12278:12357   */\n      tag_438\n      tag_244\n      jump\t// in\n    tag_438:\n        /* \"#utility.yul\":12239:12359   */\n    tag_437:\n        /* \"#utility.yul\":12398:12399   */\n      0x00\n        /* \"#utility.yul\":12423:12486   */\n      tag_439\n        /* \"#utility.yul\":12478:12485   */\n      dup9\n        /* \"#utility.yul\":12469:12475   */\n      dup3\n        /* \"#utility.yul\":12458:12467   */\n      dup10\n        /* \"#utility.yul\":12454:12476   */\n      add\n        /* \"#utility.yul\":12423:12486   */\n      tag_281\n      jump\t// in\n    tag_439:\n        /* \"#utility.yul\":12413:12486   */\n      swap6\n      pop\n        /* \"#utility.yul\":12369:12496   */\n      pop\n        /* \"#utility.yul\":12535:12537   */\n      0x20\n        /* \"#utility.yul\":12561:12624   */\n      tag_440\n        /* \"#utility.yul\":12616:12623   */\n      dup9\n        /* \"#utility.yul\":12607:12613   */\n      dup3\n        /* \"#utility.yul\":12596:12605   */\n      dup10\n        /* \"#utility.yul\":12592:12614   */\n      add\n        /* \"#utility.yul\":12561:12624   */\n      tag_284\n      jump\t// in\n    tag_440:\n        /* \"#utility.yul\":12551:12624   */\n      swap5\n      pop\n        /* \"#utility.yul\":12506:12634   */\n      pop\n        /* \"#utility.yul\":12673:12675   */\n      0x40\n        /* \"#utility.yul\":12699:12763   */\n      tag_441\n        /* \"#utility.yul\":12755:12762   */\n      dup9\n        /* \"#utility.yul\":12746:12752   */\n      dup3\n        /* \"#utility.yul\":12735:12744   */\n      dup10\n        /* \"#utility.yul\":12731:12753   */\n      add\n        /* \"#utility.yul\":12699:12763   */\n      tag_285\n      jump\t// in\n    tag_441:\n        /* \"#utility.yul\":12689:12763   */\n      swap4\n      pop\n        /* \"#utility.yul\":12644:12773   */\n      pop\n        /* \"#utility.yul\":12812:12814   */\n      0x60\n        /* \"#utility.yul\":12838:12902   */\n      tag_442\n        /* \"#utility.yul\":12894:12901   */\n      dup9\n        /* \"#utility.yul\":12885:12891   */\n      dup3\n        /* \"#utility.yul\":12874:12883   */\n      dup10\n        /* \"#utility.yul\":12870:12892   */\n      add\n        /* \"#utility.yul\":12838:12902   */\n      tag_285\n      jump\t// in\n    tag_442:\n        /* \"#utility.yul\":12828:12902   */\n      swap3\n      pop\n        /* \"#utility.yul\":12783:12912   */\n      pop\n        /* \"#utility.yul\":12951:12954   */\n      0x80\n        /* \"#utility.yul\":12978:13041   */\n      tag_443\n        /* \"#utility.yul\":13033:13040   */\n      dup9\n        /* \"#utility.yul\":13024:13030   */\n      dup3\n        /* \"#utility.yul\":13013:13022   */\n      dup10\n        /* \"#utility.yul\":13009:13031   */\n      add\n        /* \"#utility.yul\":12978:13041   */\n      tag_281\n      jump\t// in\n    tag_443:\n        /* \"#utility.yul\":12968:13041   */\n      swap2\n      pop\n        /* \"#utility.yul\":12922:13051   */\n      pop\n        /* \"#utility.yul\":12087:13058   */\n      swap3\n      swap6\n      pop\n      swap3\n      swap6\n      swap1\n      swap4\n      pop\n      jump\t// out\n        /* \"#utility.yul\":13064:13232   */\n    tag_286:\n        /* \"#utility.yul\":13204:13224   */\n      0x496e76616c696420707269636520666565640000000000000000000000000000\n        /* \"#utility.yul\":13200:13201   */\n      0x00\n        /* \"#utility.yul\":13192:13198   */\n      dup3\n        /* \"#utility.yul\":13188:13202   */\n      add\n        /* \"#utility.yul\":13181:13225   */\n      mstore\n        /* \"#utility.yul\":13064:13232   */\n      pop\n      jump\t// out\n        /* \"#utility.yul\":13238:13604   */\n    tag_287:\n        /* \"#utility.yul\":13380:13383   */\n      0x00\n        /* \"#utility.yul\":13401:13468   */\n      tag_446\n        /* \"#utility.yul\":13465:13467   */\n      0x12\n        /* \"#utility.yul\":13460:13463   */\n      dup4\n        /* \"#utility.yul\":13401:13468   */\n      tag_271\n      jump\t// in\n    tag_446:\n        /* \"#utility.yul\":13394:13468   */\n      swap2\n      pop\n        /* \"#utility.yul\":13477:13570   */\n      tag_447\n        /* \"#utility.yul\":13566:13569   */\n      dup3\n        /* \"#utility.yul\":13477:13570   */\n      tag_286\n      jump\t// in\n    tag_447:\n        /* \"#utility.yul\":13595:13597   */\n      0x20\n        /* \"#utility.yul\":13590:13593   */\n      dup3\n        /* \"#utility.yul\":13586:13598   */\n      add\n        /* \"#utility.yul\":13579:13598   */\n      swap1\n      pop\n        /* \"#utility.yul\":13238:13604   */\n      swap2\n      swap1\n      pop\n      jump\t// out\n        /* \"#utility.yul\":13610:14029   */\n    tag_207:\n        /* \"#utility.yul\":13776:13780   */\n      0x00\n        /* \"#utility.yul\":13814:13816   */\n      0x20\n        /* \"#utility.yul\":13803:13812   */\n      dup3\n        /* \"#utility.yul\":13799:13817   */\n      add\n        /* \"#utility.yul\":13791:13817   */\n      swap1\n      pop\n        /* \"#utility.yul\":13863:13872   */\n      dup2\n        /* \"#utility.yul\":13857:13861   */\n      dup2\n        /* \"#utility.yul\":13853:13873   */\n      sub\n        /* \"#utility.yul\":13849:13850   */\n      0x00\n        /* \"#utility.yul\":13838:13847   */\n      dup4\n        /* \"#utility.yul\":13834:13851   */\n      add\n        /* \"#utility.yul\":13827:13874   */\n      mstore\n        /* \"#utility.yul\":13891:14022   */\n      tag_449\n        /* \"#utility.yul\":14017:14021   */\n      dup2\n        /* \"#utility.yul\":13891:14022   */\n      tag_287\n      jump\t// in\n    tag_449:\n        /* \"#utility.yul\":13883:14022   */\n      swap1\n      pop\n        /* \"#utility.yul\":13610:14029   */\n      swap2\n      swap1\n      pop\n      jump\t// out\n        /* \"#utility.yul\":14035:14445   */\n    tag_209:\n        /* \"#utility.yul\":14075:14082   */\n      0x00\n        /* \"#utility.yul\":14098:14118   */\n      tag_451\n        /* \"#utility.yul\":14116:14117   */\n      dup3\n        /* \"#utility.yul\":14098:14118   */\n      tag_251\n      jump\t// in\n    tag_451:\n        /* \"#utility.yul\":14093:14118   */\n      swap2\n      pop\n        /* \"#utility.yul\":14132:14152   */\n      tag_452\n        /* \"#utility.yul\":14150:14151   */\n      dup4\n        /* \"#utility.yul\":14132:14152   */\n      tag_251\n      jump\t// in\n    tag_452:\n        /* \"#utility.yul\":14127:14152   */\n      swap3\n      pop\n        /* \"#utility.yul\":14187:14188   */\n      dup3\n        /* \"#utility.yul\":14184:14185   */\n      dup3\n        /* \"#utility.yul\":14180:14189   */\n      mul\n        /* \"#utility.yul\":14209:14239   */\n      tag_453\n        /* \"#utility.yul\":14227:14238   */\n      dup2\n        /* \"#utility.yul\":14209:14239   */\n      tag_251\n      jump\t// in\n    tag_453:\n        /* \"#utility.yul\":14198:14239   */\n      swap2\n      pop\n        /* \"#utility.yul\":14388:14389   */\n      dup3\n        /* \"#utility.yul\":14379:14386   */\n      dup3\n        /* \"#utility.yul\":14375:14390   */\n      div\n        /* \"#utility.yul\":14372:14373   */\n      dup5\n        /* \"#utility.yul\":14369:14391   */\n      eq\n        /* \"#utility.yul\":14349:14350   */\n      dup4\n        /* \"#utility.yul\":14342:14351   */\n      iszero\n        /* \"#utility.yul\":14322:14405   */\n      or\n        /* \"#utility.yul\":14299:14438   */\n      tag_454\n      jumpi\n        /* \"#utility.yul\":14418:14436   */\n      tag_455\n      tag_270\n      jump\t// in\n    tag_455:\n        /* \"#utility.yul\":14299:14438   */\n    tag_454:\n        /* \"#utility.yul\":14083:14445   */\n      pop\n        /* \"#utility.yul\":14035:14445   */\n      swap3\n      swap2\n      pop\n      pop\n      jump\t// out\n        /* \"#utility.yul\":14451:14631   */\n    tag_288:\n        /* \"#utility.yul\":14499:14576   */\n      0x4e487b7100000000000000000000000000000000000000000000000000000000\n        /* \"#utility.yul\":14496:14497   */\n      0x00\n        /* \"#utility.yul\":14489:14577   */\n      mstore\n        /* \"#utility.yul\":14596:14600   */\n      0x12\n        /* \"#utility.yul\":14593:14594   */\n      0x04\n        /* \"#utility.yul\":14586:14601   */\n      mstore\n        /* \"#utility.yul\":14620:14624   */\n      0x24\n        /* \"#utility.yul\":14617:14618   */\n      0x00\n        /* \"#utility.yul\":14610:14625   */\n      revert\n        /* \"#utility.yul\":14637:14822   */\n    tag_211:\n        /* \"#utility.yul\":14677:14678   */\n      0x00\n        /* \"#utility.yul\":14694:14714   */\n      tag_458\n        /* \"#utility.yul\":14712:14713   */\n      dup3\n        /* \"#utility.yul\":14694:14714   */\n      tag_251\n      jump\t// in\n    tag_458:\n        /* \"#utility.yul\":14689:14714   */\n      swap2\n      pop\n        /* \"#utility.yul\":14728:14748   */\n      tag_459\n        /* \"#utility.yul\":14746:14747   */\n      dup4\n        /* \"#utility.yul\":14728:14748   */\n      tag_251\n      jump\t// in\n    tag_459:\n        /* \"#utility.yul\":14723:14748   */\n      swap3\n      pop\n        /* \"#utility.yul\":14767:14768   */\n      dup3\n        /* \"#utility.yul\":14757:14792   */\n      tag_460\n      jumpi\n        /* \"#utility.yul\":14772:14790   */\n      tag_461\n      tag_288\n      jump\t// in\n    tag_461:\n        /* \"#utility.yul\":14757:14792   */\n    tag_460:\n        /* \"#utility.yul\":14814:14815   */\n      dup3\n        /* \"#utility.yul\":14811:14812   */\n      dup3\n        /* \"#utility.yul\":14807:14816   */\n      div\n        /* \"#utility.yul\":14802:14816   */\n      swap1\n      pop\n        /* \"#utility.yul\":14637:14822   */\n      swap3\n      swap2\n      pop\n      pop\n      jump\t// out\n        /* \"#utility.yul\":14828:15019   */\n    tag_213:\n        /* \"#utility.yul\":14866:14870   */\n      0x00\n        /* \"#utility.yul\":14886:14904   */\n      tag_463\n        /* \"#utility.yul\":14902:14903   */\n      dup3\n        /* \"#utility.yul\":14886:14904   */\n      tag_268\n      jump\t// in\n    tag_463:\n        /* \"#utility.yul\":14881:14904   */\n      swap2\n      pop\n        /* \"#utility.yul\":14918:14936   */\n      tag_464\n        /* \"#utility.yul\":14934:14935   */\n      dup4\n        /* \"#utility.yul\":14918:14936   */\n      tag_268\n      jump\t// in\n    tag_464:\n        /* \"#utility.yul\":14913:14936   */\n      swap3\n      pop\n        /* \"#utility.yul\":14960:14961   */\n      dup3\n        /* \"#utility.yul\":14957:14958   */\n      dup3\n        /* \"#utility.yul\":14953:14962   */\n      sub\n        /* \"#utility.yul\":14945:14962   */\n      swap1\n      pop\n        /* \"#utility.yul\":14984:14988   */\n      0xff\n        /* \"#utility.yul\":14978:14982   */\n      dup2\n        /* \"#utility.yul\":14975:14989   */\n      gt\n        /* \"#utility.yul\":14972:15012   */\n      iszero\n      tag_465\n      jumpi\n        /* \"#utility.yul\":14992:15010   */\n      tag_466\n      tag_270\n      jump\t// in\n    tag_466:\n        /* \"#utility.yul\":14972:15012   */\n    tag_465:\n        /* \"#utility.yul\":14828:15019   */\n      swap3\n      swap2\n      pop\n      pop\n      jump\t// out\n        /* \"#utility.yul\":15025:15127   */\n    tag_289:\n        /* \"#utility.yul\":15067:15075   */\n      0x00\n        /* \"#utility.yul\":15114:15119   */\n      dup2\n        /* \"#utility.yul\":15111:15112   */\n      0x01\n        /* \"#utility.yul\":15107:15120   */\n      shr\n        /* \"#utility.yul\":15086:15120   */\n      swap1\n      pop\n        /* \"#utility.yul\":15025:15127   */\n      swap2\n      swap1\n      pop\n      jump\t// out\n        /* \"#utility.yul\":15133:15981   */\n    tag_290:\n        /* \"#utility.yul\":15194:15199   */\n      0x00\n        /* \"#utility.yul\":15201:15205   */\n      0x00\n        /* \"#utility.yul\":15225:15231   */\n      dup3\n        /* \"#utility.yul\":15216:15231   */\n      swap2\n      pop\n        /* \"#utility.yul\":15249:15254   */\n      dup4\n        /* \"#utility.yul\":15240:15254   */\n      swap1\n      pop\n        /* \"#utility.yul\":15263:15975   */\n    tag_469:\n        /* \"#utility.yul\":15284:15285   */\n      0x01\n        /* \"#utility.yul\":15274:15282   */\n      dup6\n        /* \"#utility.yul\":15271:15286   */\n      gt\n        /* \"#utility.yul\":15263:15975   */\n      iszero\n      tag_471\n      jumpi\n        /* \"#utility.yul\":15379:15383   */\n      dup1\n        /* \"#utility.yul\":15374:15377   */\n      dup7\n        /* \"#utility.yul\":15370:15384   */\n      div\n        /* \"#utility.yul\":15364:15368   */\n      dup2\n        /* \"#utility.yul\":15361:15385   */\n      gt\n        /* \"#utility.yul\":15358:15408   */\n      iszero\n      tag_472\n      jumpi\n        /* \"#utility.yul\":15388:15406   */\n      tag_473\n      tag_270\n      jump\t// in\n    tag_473:\n        /* \"#utility.yul\":15358:15408   */\n    tag_472:\n        /* \"#utility.yul\":15438:15439   */\n      0x01\n        /* \"#utility.yul\":15428:15436   */\n      dup6\n        /* \"#utility.yul\":15424:15440   */\n      and\n        /* \"#utility.yul\":15421:15872   */\n      iszero\n      tag_474\n      jumpi\n        /* \"#utility.yul\":15853:15857   */\n      dup1\n        /* \"#utility.yul\":15846:15851   */\n      dup3\n        /* \"#utility.yul\":15842:15858   */\n      mul\n        /* \"#utility.yul\":15833:15858   */\n      swap2\n      pop\n        /* \"#utility.yul\":15421:15872   */\n    tag_474:\n        /* \"#utility.yul\":15903:15907   */\n      dup1\n        /* \"#utility.yul\":15897:15901   */\n      dup2\n        /* \"#utility.yul\":15893:15908   */\n      mul\n        /* \"#utility.yul\":15885:15908   */\n      swap1\n      pop\n        /* \"#utility.yul\":15933:15965   */\n      tag_475\n        /* \"#utility.yul\":15956:15964   */\n      dup6\n        /* \"#utility.yul\":15933:15965   */\n      tag_289\n      jump\t// in\n    tag_475:\n        /* \"#utility.yul\":15921:15965   */\n      swap5\n      pop\n        /* \"#utility.yul\":15263:15975   */\n      jump(tag_469)\n    tag_471:\n        /* \"#utility.yul\":15133:15981   */\n      swap5\n      pop\n      swap5\n      swap3\n      pop\n      pop\n      pop\n      jump\t// out\n        /* \"#utility.yul\":15987:17060   */\n    tag_291:\n        /* \"#utility.yul\":16041:16046   */\n      0x00\n        /* \"#utility.yul\":16232:16240   */\n      dup3\n        /* \"#utility.yul\":16222:16262   */\n      tag_477\n      jumpi\n        /* \"#utility.yul\":16253:16254   */\n      0x01\n        /* \"#utility.yul\":16244:16254   */\n      swap1\n      pop\n        /* \"#utility.yul\":16255:16260   */\n      jump(tag_476)\n        /* \"#utility.yul\":16222:16262   */\n    tag_477:\n        /* \"#utility.yul\":16281:16285   */\n      dup2\n        /* \"#utility.yul\":16271:16307   */\n      tag_478\n      jumpi\n        /* \"#utility.yul\":16298:16299   */\n      0x00\n        /* \"#utility.yul\":16289:16299   */\n      swap1\n      pop\n        /* \"#utility.yul\":16300:16305   */\n      jump(tag_476)\n        /* \"#utility.yul\":16271:16307   */\n    tag_478:\n        /* \"#utility.yul\":16367:16371   */\n      dup2\n        /* \"#utility.yul\":16415:16416   */\n      0x01\n        /* \"#utility.yul\":16410:16437   */\n      dup2\n      eq\n      tag_480\n      jumpi\n        /* \"#utility.yul\":16451:16452   */\n      0x02\n        /* \"#utility.yul\":16446:16637   */\n      dup2\n      eq\n      tag_481\n      jumpi\n        /* \"#utility.yul\":16360:16637   */\n      jump(tag_479)\n        /* \"#utility.yul\":16410:16437   */\n    tag_480:\n        /* \"#utility.yul\":16428:16429   */\n      0x01\n        /* \"#utility.yul\":16419:16429   */\n      swap2\n      pop\n        /* \"#utility.yul\":16430:16435   */\n      pop\n      jump(tag_476)\n        /* \"#utility.yul\":16446:16637   */\n    tag_481:\n        /* \"#utility.yul\":16491:16494   */\n      0xff\n        /* \"#utility.yul\":16481:16489   */\n      dup5\n        /* \"#utility.yul\":16478:16495   */\n      gt\n        /* \"#utility.yul\":16475:16518   */\n      iszero\n      tag_482\n      jumpi\n        /* \"#utility.yul\":16498:16516   */\n      tag_483\n      tag_270\n      jump\t// in\n    tag_483:\n        /* \"#utility.yul\":16475:16518   */\n    tag_482:\n        /* \"#utility.yul\":16547:16555   */\n      dup4\n        /* \"#utility.yul\":16544:16545   */\n      0x02\n        /* \"#utility.yul\":16540:16556   */\n      exp\n        /* \"#utility.yul\":16531:16556   */\n      swap2\n      pop\n        /* \"#utility.yul\":16582:16585   */\n      dup5\n        /* \"#utility.yul\":16575:16580   */\n      dup3\n        /* \"#utility.yul\":16572:16586   */\n      gt\n        /* \"#utility.yul\":16569:16609   */\n      iszero\n      tag_484\n      jumpi\n        /* \"#utility.yul\":16589:16607   */\n      tag_485\n      tag_270\n      jump\t// in\n    tag_485:\n        /* \"#utility.yul\":16569:16609   */\n    tag_484:\n        /* \"#utility.yul\":16622:16627   */\n      pop\n      jump(tag_476)\n        /* \"#utility.yul\":16360:16637   */\n    tag_479:\n      pop\n        /* \"#utility.yul\":16746:16748   */\n      0x20\n        /* \"#utility.yul\":16736:16744   */\n      dup4\n        /* \"#utility.yul\":16733:16749   */\n      lt\n        /* \"#utility.yul\":16727:16730   */\n      0x0133\n        /* \"#utility.yul\":16721:16725   */\n      dup4\n        /* \"#utility.yul\":16718:16731   */\n      lt\n        /* \"#utility.yul\":16714:16750   */\n      and\n        /* \"#utility.yul\":16696:16698   */\n      0x4e\n        /* \"#utility.yul\":16686:16694   */\n      dup5\n        /* \"#utility.yul\":16683:16699   */\n      lt\n        /* \"#utility.yul\":16678:16680   */\n      0x0b\n        /* \"#utility.yul\":16672:16676   */\n      dup5\n        /* \"#utility.yul\":16669:16681   */\n      lt\n        /* \"#utility.yul\":16665:16700   */\n      and\n        /* \"#utility.yul\":16649:16760   */\n      or\n        /* \"#utility.yul\":16646:16892   */\n      iszero\n      tag_486\n      jumpi\n        /* \"#utility.yul\":16802:16810   */\n      dup3\n        /* \"#utility.yul\":16796:16800   */\n      dup3\n        /* \"#utility.yul\":16792:16811   */\n      exp\n        /* \"#utility.yul\":16783:16811   */\n      swap1\n      pop\n        /* \"#utility.yul\":16837:16840   */\n      dup4\n        /* \"#utility.yul\":16830:16835   */\n      dup2\n        /* \"#utility.yul\":16827:16841   */\n      gt\n        /* \"#utility.yul\":16824:16864   */\n      iszero\n      tag_487\n      jumpi\n        /* \"#utility.yul\":16844:16862   */\n      tag_488\n      tag_270\n      jump\t// in\n    tag_488:\n        /* \"#utility.yul\":16824:16864   */\n    tag_487:\n        /* \"#utility.yul\":16877:16882   */\n      jump(tag_476)\n        /* \"#utility.yul\":16646:16892   */\n    tag_486:\n        /* \"#utility.yul\":16917:16959   */\n      tag_489\n        /* \"#utility.yul\":16955:16958   */\n      dup5\n        /* \"#utility.yul\":16945:16953   */\n      dup5\n        /* \"#utility.yul\":16939:16943   */\n      dup5\n        /* \"#utility.yul\":16936:16937   */\n      0x01\n        /* \"#utility.yul\":16917:16959   */\n      tag_290\n      jump\t// in\n    tag_489:\n        /* \"#utility.yul\":16902:16959   */\n      swap3\n      pop\n      swap1\n      pop\n        /* \"#utility.yul\":16991:16995   */\n      dup2\n        /* \"#utility.yul\":16986:16989   */\n      dup5\n        /* \"#utility.yul\":16982:16996   */\n      div\n        /* \"#utility.yul\":16975:16980   */\n      dup2\n        /* \"#utility.yul\":16972:16997   */\n      gt\n        /* \"#utility.yul\":16969:17020   */\n      iszero\n      tag_490\n      jumpi\n        /* \"#utility.yul\":17000:17018   */\n      tag_491\n      tag_270\n      jump\t// in\n    tag_491:\n        /* \"#utility.yul\":16969:17020   */\n    tag_490:\n        /* \"#utility.yul\":17049:17053   */\n      dup2\n        /* \"#utility.yul\":17042:17047   */\n      dup2\n        /* \"#utility.yul\":17038:17054   */\n      mul\n        /* \"#utility.yul\":17029:17054   */\n      swap1\n      pop\n        /* \"#utility.yul\":15987:17060   */\n    tag_476:\n      swap4\n      swap3\n      pop\n      pop\n      pop\n      jump\t// out\n        /* \"#utility.yul\":17066:17347   */\n    tag_215:\n        /* \"#utility.yul\":17124:17129   */\n      0x00\n        /* \"#utility.yul\":17148:17171   */\n      tag_493\n        /* \"#utility.yul\":17166:17170   */\n      dup3\n        /* \"#utility.yul\":17148:17171   */\n      tag_251\n      jump\t// in\n    tag_493:\n        /* \"#utility.yul\":17140:17171   */\n      swap2\n      pop\n        /* \"#utility.yul\":17192:17217   */\n      tag_494\n        /* \"#utility.yul\":17208:17216   */\n      dup4\n        /* \"#utility.yul\":17192:17217   */\n      tag_268\n      jump\t// in\n    tag_494:\n        /* \"#utility.yul\":17180:17217   */\n      swap3\n      pop\n        /* \"#utility.yul\":17236:17340   */\n      tag_495\n        /* \"#utility.yul\":17273:17339   */\n      0xffffffffffffffffffffffffffffffffffffffffffffffffffffffffffffffff\n        /* \"#utility.yul\":17263:17271   */\n      dup5\n        /* \"#utility.yul\":17257:17261   */\n      dup5\n        /* \"#utility.yul\":17236:17340   */\n      tag_291\n      jump\t// in\n    tag_495:\n        /* \"#utility.yul\":17227:17340   */\n      swap1\n      pop\n        /* \"#utility.yul\":17066:17347   */\n      swap3\n      swap2\n      pop\n      pop\n      jump\t// out\n        /* \"#utility.yul\":17353:17685   */\n    tag_242:\n        /* \"#utility.yul\":17474:17478   */\n      0x00\n        /* \"#utility.yul\":17512:17514   */\n      0x40\n        /* \"#utility.yul\":17501:17510   */\n      dup3\n        /* \"#utility.yul\":17497:17515   */\n      add\n        /* \"#utility.yul\":17489:17515   */\n      swap1\n      pop\n        /* \"#utility.yul\":17525:17596   */\n      tag_497\n        /* \"#utility.yul\":17593:17594   */\n      0x00\n        /* \"#utility.yul\":17582:17591   */\n      dup4\n        /* \"#utility.yul\":17578:17595   */\n      add\n        /* \"#utility.yul\":17569:17575   */\n      dup6\n        /* \"#utility.yul\":17525:17596   */\n      tag_274\n      jump\t// in\n    tag_497:\n        /* \"#utility.yul\":17606:17678   */\n      tag_498\n        /* \"#utility.yul\":17674:17676   */\n      0x20\n        /* \"#utility.yul\":17663:17672   */\n      dup4\n        /* \"#utility.yul\":17659:17677   */\n      add\n        /* \"#utility.yul\":17650:17656   */\n      dup5\n        /* \"#utility.yul\":17606:17678   */\n      tag_256\n      jump\t// in\n    tag_498:\n        /* \"#utility.yul\":17353:17685   */\n      swap4\n      swap3\n      pop\n      pop\n      pop\n      jump\t// out\n\n    auxdata: 0xa2646970667358221220f52c8bb4f89c92a653dc9acaf4e61650610159b60c3c61750ddf03a93b4d3da464736f6c634300081e0033\n}\n",
				"bytecode": {
					"linkReferences": {},
					"object": "60a060405234801561000f575f5ffd5b50604051611fc3380380611fc3833981810160405281019061003191906102ae565b6001808190555061004a5f5f1b336100be60201b60201c565b5061007b7f2d95a8186db49da8bd2356c70cf02038f7de0d6ed39f6766fe2d93d5e7785616336100be60201b60201c565b508173ffffffffffffffffffffffffffffffffffffffff1660808173ffffffffffffffffffffffffffffffffffffffff16815250508060028190555050506102ec565b5f6100cf83836101b360201b60201c565b6101a95760015f5f8581526020019081526020015f205f015f8473ffffffffffffffffffffffffffffffffffffffff1673ffffffffffffffffffffffffffffffffffffffff1681526020019081526020015f205f6101000a81548160ff02191690831515021790555061014661021660201b60201c565b73ffffffffffffffffffffffffffffffffffffffff168273ffffffffffffffffffffffffffffffffffffffff16847f2f8788117e7eff1d82e926ec794901d17c78024a50270940304540a733656f0d60405160405180910390a4600190506101ad565b5f90505b92915050565b5f5f5f8481526020019081526020015f205f015f8373ffffffffffffffffffffffffffffffffffffffff1673ffffffffffffffffffffffffffffffffffffffff1681526020019081526020015f205f9054906101000a900460ff16905092915050565b5f33905090565b5f5ffd5b5f73ffffffffffffffffffffffffffffffffffffffff82169050919050565b5f61024a82610221565b9050919050565b61025a81610240565b8114610264575f5ffd5b50565b5f8151905061027581610251565b92915050565b5f819050919050565b61028d8161027b565b8114610297575f5ffd5b50565b5f815190506102a881610284565b92915050565b5f5f604083850312156102c4576102c361021d565b5b5f6102d185828601610267565b92505060206102e28582860161029a565b9150509250929050565b608051611cb861030b5f395f818161097c0152610efc0152611cb85ff3fe60806040526004361061010c575f3560e01c80639e281a9811610094578063d547741f11610063578063d547741f1461037f578063eea88c51146103a7578063f14210a6146103d1578063f2157052146103f9578063f6326fb3146104235761011b565b80639e281a98146102c7578063a217fddf146102ef578063c1419def14610319578063c23f001f146103435761011b565b8063338b5dea116100db578063338b5dea146101e957806336568abe146102115780635151b68c14610239578063741bef1a1461026157806391d148541461028b5761011b565b806301ffc9a71461011f57806318c8cfbe1461015b578063248a9ca3146101855780632f2ff15d146101c15761011b565b3661011b5761011961042d565b005b5f5ffd5b34801561012a575f5ffd5b5061014560048036038101906101409190611352565b6105a0565b6040516101529190611397565b60405180910390f35b348015610166575f5ffd5b5061016f610619565b60405161017c91906113c8565b60405180910390f35b348015610190575f5ffd5b506101ab60048036038101906101a69190611414565b61061f565b6040516101b8919061144e565b60405180910390f35b3480156101cc575f5ffd5b506101e760048036038101906101e291906114c1565b61063b565b005b3480156101f4575f5ffd5b5061020f600480360381019061020a9190611529565b61065d565b005b34801561021c575f5ffd5b50610237600480360381019061023291906114c1565b610893565b005b348015610244575f5ffd5b5061025f600480360381019061025a9190611567565b61090e565b005b34801561026c575f5ffd5b5061027561097a565b60405161028291906115ed565b60405180910390f35b348015610296575f5ffd5b506102b160048036038101906102ac91906114c1565b61099e565b6040516102be9190611397565b60405180910390f35b3480156102d2575f5ffd5b506102ed60048036038101906102e89190611529565b610a01565b005b3480156102fa575f5ffd5b50610303610c36565b604051610310919061144e565b60405180910390f35b348015610324575f5ffd5b5061032d610c3c565b60405161033a9190611621565b60405180910390f35b34801561034e575f5ffd5b506103696004803603810190610364919061163a565b610c41565b60405161037691906113c8565b60405180910390f35b34801561038a575f5ffd5b506103a560048036038101906103a091906114c1565b610c61565b005b3480156103b2575f5ffd5b506103bb610c83565b6040516103c891906113c8565b60405180910390f35b3480156103dc575f5ffd5b506103f760048036038101906103f29190611567565b610c89565b005b348015610404575f5ffd5b5061040d610e85565b60405161041a919061144e565b60405180910390f35b61042b61042d565b005b610435610ea9565b5f61043f34610ef8565b90506002548160035461045291906116a5565b111561048a576040517f448f3ca800000000000000000000000000000000000000000000000000000000815260040160405180910390fd5b3460045f3373ffffffffffffffffffffffffffffffffffffffff1673ffffffffffffffffffffffffffffffffffffffff1681526020019081526020015f205f5f73ffffffffffffffffffffffffffffffffffffffff1673ffffffffffffffffffffffffffffffffffffffff1681526020019081526020015f205f82825461051191906116a5565b925050819055508060035f82825461052991906116a5565b925050819055505f73ffffffffffffffffffffffffffffffffffffffff163373ffffffffffffffffffffffffffffffffffffffff167f8752a472e571a816aea92eec8dae9baf628e840f4929fbcc2d155e6233ff68a73460405161058d91906113c8565b60405180910390a35061059e61101b565b565b5f7f7965db0b000000000000000000000000000000000000000000000000000000007bffffffffffffffffffffffffffffffffffffffffffffffffffffffff1916827bffffffffffffffffffffffffffffffffffffffffffffffffffffffff19161480610612575061061182611024565b5b9050919050565b60025481565b5f5f5f8381526020019081526020015f20600101549050919050565b6106448261061f565b61064d8161108d565b61065783836110a1565b50505050565b610665610ea9565b5f81116106a7576040517f08c379a000000000000000000000000000000000000000000000000000000000815260040161069e90611732565b60405180910390fd5b8173ffffffffffffffffffffffffffffffffffffffff166323b872dd3330846040518463ffffffff1660e01b81526004016106e49392919061175f565b6020604051808303815f875af1158015610700573d5f5f3e3d5ffd5b505050506040513d601f19601f8201168201806040525081019061072491906117be565b505f610730838361118a565b90506002548160035461074391906116a5565b111561077b576040517f448f3ca800000000000000000000000000000000000000000000000000000000815260040160405180910390fd5b8160045f3373ffffffffffffffffffffffffffffffffffffffff1673ffffffffffffffffffffffffffffffffffffffff1681526020019081526020015f205f8573ffffffffffffffffffffffffffffffffffffffff1673ffffffffffffffffffffffffffffffffffffffff1681526020019081526020015f205f82825461080291906116a5565b925050819055508060035f82825461081a91906116a5565b925050819055508273ffffffffffffffffffffffffffffffffffffffff163373ffffffffffffffffffffffffffffffffffffffff167f8752a472e571a816aea92eec8dae9baf628e840f4929fbcc2d155e6233ff68a78460405161087e91906113c8565b60405180910390a35061088f61101b565b5050565b61089b6111b8565b73ffffffffffffffffffffffffffffffffffffffff168173ffffffffffffffffffffffffffffffffffffffff16146108ff576040517f6697b23200000000000000000000000000000000000000000000000000000000815260040160405180910390fd5b61090982826111bf565b505050565b7f2d95a8186db49da8bd2356c70cf02038f7de0d6ed39f6766fe2d93d5e77856166109388161108d565b816002819055507fbb1d6466d6b9cb3ce29a9dcd7cc2e51ee7e921992290f96d813b174787857a8c8260405161096e91906113c8565b60405180910390a15050565b7f000000000000000000000000000000000000000000000000000000000000000081565b5f5f5f8481526020019081526020015f205f015f8373ffffffffffffffffffffffffffffffffffffffff1673ffffffffffffffffffffffffffffffffffffffff1681526020019081526020015f205f9054906101000a900460ff16905092915050565b610a09610ea9565b8060045f3373ffffffffffffffffffffffffffffffffffffffff1673ffffffffffffffffffffffffffffffffffffffff1681526020019081526020015f205f8473ffffffffffffffffffffffffffffffffffffffff1673ffffffffffffffffffffffffffffffffffffffff1681526020019081526020015f20541015610abb576040517ff4d678b800000000000000000000000000000000000000000000000000000000815260040160405180910390fd5b8060045f3373ffffffffffffffffffffffffffffffffffffffff1673ffffffffffffffffffffffffffffffffffffffff1681526020019081526020015f205f8473ffffffffffffffffffffffffffffffffffffffff1673ffffffffffffffffffffffffffffffffffffffff1681526020019081526020015f205f828254610b4291906117e9565b925050819055508173ffffffffffffffffffffffffffffffffffffffff1663a9059cbb33836040518363ffffffff1660e01b8152600401610b8492919061181c565b6020604051808303815f875af1158015610ba0573d5f5f3e3d5ffd5b505050506040513d601f19601f82011682018060405250810190610bc491906117be565b508173ffffffffffffffffffffffffffffffffffffffff163373ffffffffffffffffffffffffffffffffffffffff167fd1c19fbcd4551a5edfb66d43d2e337c04837afda3482b42bdf569a8fccdae5fb83604051610c2291906113c8565b60405180910390a3610c3261101b565b5050565b5f5f1b81565b600681565b6004602052815f5260405f20602052805f5260405f205f91509150505481565b610c6a8261061f565b610c738161108d565b610c7d83836111bf565b50505050565b60035481565b610c91610ea9565b8060045f3373ffffffffffffffffffffffffffffffffffffffff1673ffffffffffffffffffffffffffffffffffffffff1681526020019081526020015f205f5f73ffffffffffffffffffffffffffffffffffffffff1673ffffffffffffffffffffffffffffffffffffffff1681526020019081526020015f20541015610d43576040517ff4d678b800000000000000000000000000000000000000000000000000000000815260040160405180910390fd5b8060045f3373ffffffffffffffffffffffffffffffffffffffff1673ffffffffffffffffffffffffffffffffffffffff1681526020019081526020015f205f5f73ffffffffffffffffffffffffffffffffffffffff1673ffffffffffffffffffffffffffffffffffffffff1681526020019081526020015f205f828254610dca91906117e9565b925050819055503373ffffffffffffffffffffffffffffffffffffffff166108fc8290811502906040515f60405180830381858888f19350505050158015610e14573d5f5f3e3d5ffd5b505f73ffffffffffffffffffffffffffffffffffffffff163373ffffffffffffffffffffffffffffffffffffffff167fd1c19fbcd4551a5edfb66d43d2e337c04837afda3482b42bdf569a8fccdae5fb83604051610e7291906113c8565b60405180910390a3610e8261101b565b50565b7f2d95a8186db49da8bd2356c70cf02038f7de0d6ed39f6766fe2d93d5e778561681565b600260015403610eee576040517f08c379a0000000000000000000000000000000000000000000000000000000008152600401610ee59061188d565b60405180910390fd5b6002600181905550565b5f5f7f000000000000000000000000000000000000000000000000000000000000000073ffffffffffffffffffffffffffffffffffffffff1663feaf968c6040518163ffffffff1660e01b815260040160a060405180830381865afa158015610f63573d5f5f3e3d5ffd5b505050506040513d601f19601f82011682018060405250810190610f879190611931565b5050509150505f8113610fcf576040517f08c379a0000000000000000000000000000000000000000000000000000000008152600401610fc6906119f2565b60405180910390fd5b5f6305f5e1008285610fe19190611a10565b610feb9190611a7e565b905060066012610ffb9190611aae565b600a6110079190611c11565b816110129190611a7e565b92505050919050565b60018081905550565b5f7f01ffc9a7000000000000000000000000000000000000000000000000000000007bffffffffffffffffffffffffffffffffffffffffffffffffffffffff1916827bffffffffffffffffffffffffffffffffffffffffffffffffffffffff1916149050919050565b61109e816110996111b8565b6112a8565b50565b5f6110ac838361099e565b6111805760015f5f8581526020019081526020015f205f015f8473ffffffffffffffffffffffffffffffffffffffff1673ffffffffffffffffffffffffffffffffffffffff1681526020019081526020015f205f6101000a81548160ff02191690831515021790555061111d6111b8565b73ffffffffffffffffffffffffffffffffffffffff168273ffffffffffffffffffffffffffffffffffffffff16847f2f8788117e7eff1d82e926ec794901d17c78024a50270940304540a733656f0d60405160405180910390a460019050611184565b5f90505b92915050565b5f600660126111999190611aae565b600a6111a59190611c11565b826111b09190611a7e565b905092915050565b5f33905090565b5f6111ca838361099e565b1561129e575f5f5f8581526020019081526020015f205f015f8473ffffffffffffffffffffffffffffffffffffffff1673ffffffffffffffffffffffffffffffffffffffff1681526020019081526020015f205f6101000a81548160ff02191690831515021790555061123b6111b8565b73ffffffffffffffffffffffffffffffffffffffff168273ffffffffffffffffffffffffffffffffffffffff16847ff6391f5c32d9c69d2a47ea670b442974b53935d1edc7fd64eb21e047a839171b60405160405180910390a4600190506112a2565b5f90505b92915050565b6112b2828261099e565b6112f55780826040517fe2517d3f0000000000000000000000000000000000000000000000000000000081526004016112ec929190611c5b565b60405180910390fd5b5050565b5f5ffd5b5f7fffffffff0000000000000000000000000000000000000000000000000000000082169050919050565b611331816112fd565b811461133b575f5ffd5b50565b5f8135905061134c81611328565b92915050565b5f60208284031215611367576113666112f9565b5b5f6113748482850161133e565b91505092915050565b5f8115159050919050565b6113918161137d565b82525050565b5f6020820190506113aa5f830184611388565b92915050565b5f819050919050565b6113c2816113b0565b82525050565b5f6020820190506113db5f8301846113b9565b92915050565b5f819050919050565b6113f3816113e1565b81146113fd575f5ffd5b50565b5f8135905061140e816113ea565b92915050565b5f60208284031215611429576114286112f9565b5b5f61143684828501611400565b91505092915050565b611448816113e1565b82525050565b5f6020820190506114615f83018461143f565b92915050565b5f73ffffffffffffffffffffffffffffffffffffffff82169050919050565b5f61149082611467565b9050919050565b6114a081611486565b81146114aa575f5ffd5b50565b5f813590506114bb81611497565b92915050565b5f5f604083850312156114d7576114d66112f9565b5b5f6114e485828601611400565b92505060206114f5858286016114ad565b9150509250929050565b611508816113b0565b8114611512575f5ffd5b50565b5f81359050611523816114ff565b92915050565b5f5f6040838503121561153f5761153e6112f9565b5b5f61154c858286016114ad565b925050602061155d85828601611515565b9150509250929050565b5f6020828403121561157c5761157b6112f9565b5b5f61158984828501611515565b91505092915050565b5f819050919050565b5f6115b56115b06115ab84611467565b611592565b611467565b9050919050565b5f6115c68261159b565b9050919050565b5f6115d7826115bc565b9050919050565b6115e7816115cd565b82525050565b5f6020820190506116005f8301846115de565b92915050565b5f60ff82169050919050565b61161b81611606565b82525050565b5f6020820190506116345f830184611612565b92915050565b5f5f604083850312156116505761164f6112f9565b5b5f61165d858286016114ad565b925050602061166e858286016114ad565b9150509250929050565b7f4e487b71000000000000000000000000000000000000000000000000000000005f52601160045260245ffd5b5f6116af826113b0565b91506116ba836113b0565b92508282019050808211156116d2576116d1611678565b5b92915050565b5f82825260208201905092915050565b7f496e76616c696420616d6f756e740000000000000000000000000000000000005f82015250565b5f61171c600e836116d8565b9150611727826116e8565b602082019050919050565b5f6020820190508181035f83015261174981611710565b9050919050565b61175981611486565b82525050565b5f6060820190506117725f830186611750565b61177f6020830185611750565b61178c60408301846113b9565b949350505050565b61179d8161137d565b81146117a7575f5ffd5b50565b5f815190506117b881611794565b92915050565b5f602082840312156117d3576117d26112f9565b5b5f6117e0848285016117aa565b91505092915050565b5f6117f3826113b0565b91506117fe836113b0565b925082820390508181111561181657611815611678565b5b92915050565b5f60408201905061182f5f830185611750565b61183c60208301846113b9565b9392505050565b7f5265656e7472616e637947756172643a207265656e7472616e742063616c6c005f82015250565b5f611877601f836116d8565b915061188282611843565b602082019050919050565b5f6020820190508181035f8301526118a48161186b565b9050919050565b5f69ffffffffffffffffffff82169050919050565b6118c9816118ab565b81146118d3575f5ffd5b50565b5f815190506118e4816118c0565b92915050565b5f819050919050565b6118fc816118ea565b8114611906575f5ffd5b50565b5f81519050611917816118f3565b92915050565b5f8151905061192b816114ff565b92915050565b5f5f5f5f5f60a0868803121561194a576119496112f9565b5b5f611957888289016118d6565b955050602061196888828901611909565b94505060406119798882890161191d565b935050606061198a8882890161191d565b925050608061199b888289016118d6565b9150509295509295909350565b7f496e76616c6964207072696365206665656400000000000000000000000000005f82015250565b5f6119dc6012836116d8565b91506119e7826119a8565b602082019050919050565b5f6020820190508181035f830152611a09816119d0565b9050919050565b5f611a1a826113b0565b9150611a25836113b0565b9250828202611a33816113b0565b91508282048414831517611a4a57611a49611678565b5b5092915050565b7f4e487b71000000000000000000000000000000000000000000000000000000005f52601260045260245ffd5b5f611a88826113b0565b9150611a93836113b0565b925082611aa357611aa2611a51565b5b828204905092915050565b5f611ab882611606565b9150611ac383611606565b9250828203905060ff811115611adc57611adb611678565b5b92915050565b5f8160011c9050919050565b5f5f8291508390505b6001851115611b3757808604811115611b1357611b12611678565b5b6001851615611b225780820291505b8081029050611b3085611ae2565b9450611af7565b94509492505050565b5f82611b4f5760019050611c0a565b81611b5c575f9050611c0a565b8160018114611b725760028114611b7c57611bab565b6001915050611c0a565b60ff841115611b8e57611b8d611678565b5b8360020a915084821115611ba557611ba4611678565b5b50611c0a565b5060208310610133831016604e8410600b8410161715611be05782820a905083811115611bdb57611bda611678565b5b611c0a565b611bed8484846001611aee565b92509050818404811115611c0457611c03611678565b5b81810290505b9392505050565b5f611c1b826113b0565b9150611c2683611606565b9250611c537fffffffffffffffffffffffffffffffffffffffffffffffffffffffffffffffff8484611b40565b905092915050565b5f604082019050611c6e5f830185611750565b611c7b602083018461143f565b939250505056fea2646970667358221220f52c8bb4f89c92a653dc9acaf4e61650610159b60c3c61750ddf03a93b4d3da464736f6c634300081e0033",
					"opcodes": "PUSH1 0xA0 PUSH1 0x40 MSTORE CALLVALUE DUP1 ISZERO PUSH2 0xF JUMPI PUSH0 PUSH0 REVERT JUMPDEST POP PUSH1 0x40 MLOAD PUSH2 0x1FC3 CODESIZE SUB DUP1 PUSH2 0x1FC3 DUP4 CODECOPY DUP2 DUP2 ADD PUSH1 0x40 MSTORE DUP2 ADD SWAP1 PUSH2 0x31 SWAP2 SWAP1 PUSH2 0x2AE JUMP JUMPDEST PUSH1 0x1 DUP1 DUP2 SWAP1 SSTORE POP PUSH2 0x4A PUSH0 PUSH0 SHL CALLER PUSH2 0xBE PUSH1 0x20 SHL PUSH1 0x20 SHR JUMP JUMPDEST POP PUSH2 0x7B PUSH32 0x2D95A8186DB49DA8BD2356C70CF02038F7DE0D6ED39F6766FE2D93D5E7785616 CALLER PUSH2 0xBE PUSH1 0x20 SHL PUSH1 0x20 SHR JUMP JUMPDEST POP DUP2 PUSH20 0xFFFFFFFFFFFFFFFFFFFFFFFFFFFFFFFFFFFFFFFF AND PUSH1 0x80 DUP2 PUSH20 0xFFFFFFFFFFFFFFFFFFFFFFFFFFFFFFFFFFFFFFFF AND DUP2 MSTORE POP POP DUP1 PUSH1 0x2 DUP2 SWAP1 SSTORE POP POP POP PUSH2 0x2EC JUMP JUMPDEST PUSH0 PUSH2 0xCF DUP4 DUP4 PUSH2 0x1B3 PUSH1 0x20 SHL PUSH1 0x20 SHR JUMP JUMPDEST PUSH2 0x1A9 JUMPI PUSH1 0x1 PUSH0 PUSH0 DUP6 DUP2 MSTORE PUSH1 0x20 ADD SWAP1 DUP2 MSTORE PUSH1 0x20 ADD PUSH0 KECCAK256 PUSH0 ADD PUSH0 DUP5 PUSH20 0xFFFFFFFFFFFFFFFFFFFFFFFFFFFFFFFFFFFFFFFF AND PUSH20 0xFFFFFFFFFFFFFFFFFFFFFFFFFFFFFFFFFFFFFFFF AND DUP2 MSTORE PUSH1 0x20 ADD SWAP1 DUP2 MSTORE PUSH1 0x20 ADD PUSH0 KECCAK256 PUSH0 PUSH2 0x100 EXP DUP2 SLOAD DUP2 PUSH1 0xFF MUL NOT AND SWAP1 DUP4 ISZERO ISZERO MUL OR SWAP1 SSTORE POP PUSH2 0x146 PUSH2 0x216 PUSH1 0x20 SHL PUSH1 0x20 SHR JUMP JUMPDEST PUSH20 0xFFFFFFFFFFFFFFFFFFFFFFFFFFFFFFFFFFFFFFFF AND DUP3 PUSH20 0xFFFFFFFFFFFFFFFFFFFFFFFFFFFFFFFFFFFFFFFF AND DUP5 PUSH32 0x2F8788117E7EFF1D82E926EC794901D17C78024A50270940304540A733656F0D PUSH1 0x40 MLOAD PUSH1 0x40 MLOAD DUP1 SWAP2 SUB SWAP1 LOG4 PUSH1 0x1 SWAP1 POP PUSH2 0x1AD JUMP JUMPDEST PUSH0 SWAP1 POP JUMPDEST SWAP3 SWAP2 POP POP JUMP JUMPDEST PUSH0 PUSH0 PUSH0 DUP5 DUP2 MSTORE PUSH1 0x20 ADD SWAP1 DUP2 MSTORE PUSH1 0x20 ADD PUSH0 KECCAK256 PUSH0 ADD PUSH0 DUP4 PUSH20 0xFFFFFFFFFFFFFFFFFFFFFFFFFFFFFFFFFFFFFFFF AND PUSH20 0xFFFFFFFFFFFFFFFFFFFFFFFFFFFFFFFFFFFFFFFF AND DUP2 MSTORE PUSH1 0x20 ADD SWAP1 DUP2 MSTORE PUSH1 0x20 ADD PUSH0 KECCAK256 PUSH0 SWAP1 SLOAD SWAP1 PUSH2 0x100 EXP SWAP1 DIV PUSH1 0xFF AND SWAP1 POP SWAP3 SWAP2 POP POP JUMP JUMPDEST PUSH0 CALLER SWAP1 POP SWAP1 JUMP JUMPDEST PUSH0 PUSH0 REVERT JUMPDEST PUSH0 PUSH20 0xFFFFFFFFFFFFFFFFFFFFFFFFFFFFFFFFFFFFFFFF DUP3 AND SWAP1 POP SWAP2 SWAP1 POP JUMP JUMPDEST PUSH0 PUSH2 0x24A DUP3 PUSH2 0x221 JUMP JUMPDEST SWAP1 POP SWAP2 SWAP1 POP JUMP JUMPDEST PUSH2 0x25A DUP2 PUSH2 0x240 JUMP JUMPDEST DUP2 EQ PUSH2 0x264 JUMPI PUSH0 PUSH0 REVERT JUMPDEST POP JUMP JUMPDEST PUSH0 DUP2 MLOAD SWAP1 POP PUSH2 0x275 DUP2 PUSH2 0x251 JUMP JUMPDEST SWAP3 SWAP2 POP POP JUMP JUMPDEST PUSH0 DUP2 SWAP1 POP SWAP2 SWAP1 POP JUMP JUMPDEST PUSH2 0x28D DUP2 PUSH2 0x27B JUMP JUMPDEST DUP2 EQ PUSH2 0x297 JUMPI PUSH0 PUSH0 REVERT JUMPDEST POP JUMP JUMPDEST PUSH0 DUP2 MLOAD SWAP1 POP PUSH2 0x2A8 DUP2 PUSH2 0x284 JUMP JUMPDEST SWAP3 SWAP2 POP POP JUMP JUMPDEST PUSH0 PUSH0 PUSH1 0x40 DUP4 DUP6 SUB SLT ISZERO PUSH2 0x2C4 JUMPI PUSH2 0x2C3 PUSH2 0x21D JUMP JUMPDEST JUMPDEST PUSH0 PUSH2 0x2D1 DUP6 DUP3 DUP7 ADD PUSH2 0x267 JUMP JUMPDEST SWAP3 POP POP PUSH1 0x20 PUSH2 0x2E2 DUP6 DUP3 DUP7 ADD PUSH2 0x29A JUMP JUMPDEST SWAP2 POP POP SWAP3 POP SWAP3 SWAP1 POP JUMP JUMPDEST PUSH1 0x80 MLOAD PUSH2 0x1CB8 PUSH2 0x30B PUSH0 CODECOPY PUSH0 DUP2 DUP2 PUSH2 0x97C ADD MSTORE PUSH2 0xEFC ADD MSTORE PUSH2 0x1CB8 PUSH0 RETURN INVALID PUSH1 0x80 PUSH1 0x40 MSTORE PUSH1 0x4 CALLDATASIZE LT PUSH2 0x10C JUMPI PUSH0 CALLDATALOAD PUSH1 0xE0 SHR DUP1 PUSH4 0x9E281A98 GT PUSH2 0x94 JUMPI DUP1 PUSH4 0xD547741F GT PUSH2 0x63 JUMPI DUP1 PUSH4 0xD547741F EQ PUSH2 0x37F JUMPI DUP1 PUSH4 0xEEA88C51 EQ PUSH2 0x3A7 JUMPI DUP1 PUSH4 0xF14210A6 EQ PUSH2 0x3D1 JUMPI DUP1 PUSH4 0xF2157052 EQ PUSH2 0x3F9 JUMPI DUP1 PUSH4 0xF6326FB3 EQ PUSH2 0x423 JUMPI PUSH2 0x11B JUMP JUMPDEST DUP1 PUSH4 0x9E281A98 EQ PUSH2 0x2C7 JUMPI DUP1 PUSH4 0xA217FDDF EQ PUSH2 0x2EF JUMPI DUP1 PUSH4 0xC1419DEF EQ PUSH2 0x319 JUMPI DUP1 PUSH4 0xC23F001F EQ PUSH2 0x343 JUMPI PUSH2 0x11B JUMP JUMPDEST DUP1 PUSH4 0x338B5DEA GT PUSH2 0xDB JUMPI DUP1 PUSH4 0x338B5DEA EQ PUSH2 0x1E9 JUMPI DUP1 PUSH4 0x36568ABE EQ PUSH2 0x211 JUMPI DUP1 PUSH4 0x5151B68C EQ PUSH2 0x239 JUMPI DUP1 PUSH4 0x741BEF1A EQ PUSH2 0x261 JUMPI DUP1 PUSH4 0x91D14854 EQ PUSH2 0x28B JUMPI PUSH2 0x11B JUMP JUMPDEST DUP1 PUSH4 0x1FFC9A7 EQ PUSH2 0x11F JUMPI DUP1 PUSH4 0x18C8CFBE EQ PUSH2 0x15B JUMPI DUP1 PUSH4 0x248A9CA3 EQ PUSH2 0x185 JUMPI DUP1 PUSH4 0x2F2FF15D EQ PUSH2 0x1C1 JUMPI PUSH2 0x11B JUMP JUMPDEST CALLDATASIZE PUSH2 0x11B JUMPI PUSH2 0x119 PUSH2 0x42D JUMP JUMPDEST STOP JUMPDEST PUSH0 PUSH0 REVERT JUMPDEST CALLVALUE DUP1 ISZERO PUSH2 0x12A JUMPI PUSH0 PUSH0 REVERT JUMPDEST POP PUSH2 0x145 PUSH1 0x4 DUP1 CALLDATASIZE SUB DUP2 ADD SWAP1 PUSH2 0x140 SWAP2 SWAP1 PUSH2 0x1352 JUMP JUMPDEST PUSH2 0x5A0 JUMP JUMPDEST PUSH1 0x40 MLOAD PUSH2 0x152 SWAP2 SWAP1 PUSH2 0x1397 JUMP JUMPDEST PUSH1 0x40 MLOAD DUP1 SWAP2 SUB SWAP1 RETURN JUMPDEST CALLVALUE DUP1 ISZERO PUSH2 0x166 JUMPI PUSH0 PUSH0 REVERT JUMPDEST POP PUSH2 0x16F PUSH2 0x619 JUMP JUMPDEST PUSH1 0x40 MLOAD PUSH2 0x17C SWAP2 SWAP1 PUSH2 0x13C8 JUMP JUMPDEST PUSH1 0x40 MLOAD DUP1 SWAP2 SUB SWAP1 RETURN JUMPDEST CALLVALUE DUP1 ISZERO PUSH2 0x190 JUMPI PUSH0 PUSH0 REVERT JUMPDEST POP PUSH2 0x1AB PUSH1 0x4 DUP1 CALLDATASIZE SUB DUP2 ADD SWAP1 PUSH2 0x1A6 SWAP2 SWAP1 PUSH2 0x1414 JUMP JUMPDEST PUSH2 0x61F JUMP JUMPDEST PUSH1 0x40 MLOAD PUSH2 0x1B8 SWAP2 SWAP1 PUSH2 0x144E JUMP JUMPDEST PUSH1 0x40 MLOAD DUP1 SWAP2 SUB SWAP1 RETURN JUMPDEST CALLVALUE DUP1 ISZERO PUSH2 0x1CC JUMPI PUSH0 PUSH0 REVERT JUMPDEST POP PUSH2 0x1E7 PUSH1 0x4 DUP1 CALLDATASIZE SUB DUP2 ADD SWAP1 PUSH2 0x1E2 SWAP2 SWAP1 PUSH2 0x14C1 JUMP JUMPDEST PUSH2 0x63B JUMP JUMPDEST STOP JUMPDEST CALLVALUE DUP1 ISZERO PUSH2 0x1F4 JUMPI PUSH0 PUSH0 REVERT JUMPDEST POP PUSH2 0x20F PUSH1 0x4 DUP1 CALLDATASIZE SUB DUP2 ADD SWAP1 PUSH2 0x20A SWAP2 SWAP1 PUSH2 0x1529 JUMP JUMPDEST PUSH2 0x65D JUMP JUMPDEST STOP JUMPDEST CALLVALUE DUP1 ISZERO PUSH2 0x21C JUMPI PUSH0 PUSH0 REVERT JUMPDEST POP PUSH2 0x237 PUSH1 0x4 DUP1 CALLDATASIZE SUB DUP2 ADD SWAP1 PUSH2 0x232 SWAP2 SWAP1 PUSH2 0x14C1 JUMP JUMPDEST PUSH2 0x893 JUMP JUMPDEST STOP JUMPDEST CALLVALUE DUP1 ISZERO PUSH2 0x244 JUMPI PUSH0 PUSH0 REVERT JUMPDEST POP PUSH2 0x25F PUSH1 0x4 DUP1 CALLDATASIZE SUB DUP2 ADD SWAP1 PUSH2 0x25A SWAP2 SWAP1 PUSH2 0x1567 JUMP JUMPDEST PUSH2 0x90E JUMP JUMPDEST STOP JUMPDEST CALLVALUE DUP1 ISZERO PUSH2 0x26C JUMPI PUSH0 PUSH0 REVERT JUMPDEST POP PUSH2 0x275 PUSH2 0x97A JUMP JUMPDEST PUSH1 0x40 MLOAD PUSH2 0x282 SWAP2 SWAP1 PUSH2 0x15ED JUMP JUMPDEST PUSH1 0x40 MLOAD DUP1 SWAP2 SUB SWAP1 RETURN JUMPDEST CALLVALUE DUP1 ISZERO PUSH2 0x296 JUMPI PUSH0 PUSH0 REVERT JUMPDEST POP PUSH2 0x2B1 PUSH1 0x4 DUP1 CALLDATASIZE SUB DUP2 ADD SWAP1 PUSH2 0x2AC SWAP2 SWAP1 PUSH2 0x14C1 JUMP JUMPDEST PUSH2 0x99E JUMP JUMPDEST PUSH1 0x40 MLOAD PUSH2 0x2BE SWAP2 SWAP1 PUSH2 0x1397 JUMP JUMPDEST PUSH1 0x40 MLOAD DUP1 SWAP2 SUB SWAP1 RETURN JUMPDEST CALLVALUE DUP1 ISZERO PUSH2 0x2D2 JUMPI PUSH0 PUSH0 REVERT JUMPDEST POP PUSH2 0x2ED PUSH1 0x4 DUP1 CALLDATASIZE SUB DUP2 ADD SWAP1 PUSH2 0x2E8 SWAP2 SWAP1 PUSH2 0x1529 JUMP JUMPDEST PUSH2 0xA01 JUMP JUMPDEST STOP JUMPDEST CALLVALUE DUP1 ISZERO PUSH2 0x2FA JUMPI PUSH0 PUSH0 REVERT JUMPDEST POP PUSH2 0x303 PUSH2 0xC36 JUMP JUMPDEST PUSH1 0x40 MLOAD PUSH2 0x310 SWAP2 SWAP1 PUSH2 0x144E JUMP JUMPDEST PUSH1 0x40 MLOAD DUP1 SWAP2 SUB SWAP1 RETURN JUMPDEST CALLVALUE DUP1 ISZERO PUSH2 0x324 JUMPI PUSH0 PUSH0 REVERT JUMPDEST POP PUSH2 0x32D PUSH2 0xC3C JUMP JUMPDEST PUSH1 0x40 MLOAD PUSH2 0x33A SWAP2 SWAP1 PUSH2 0x1621 JUMP JUMPDEST PUSH1 0x40 MLOAD DUP1 SWAP2 SUB SWAP1 RETURN JUMPDEST CALLVALUE DUP1 ISZERO PUSH2 0x34E JUMPI PUSH0 PUSH0 REVERT JUMPDEST POP PUSH2 0x369 PUSH1 0x4 DUP1 CALLDATASIZE SUB DUP2 ADD SWAP1 PUSH2 0x364 SWAP2 SWAP1 PUSH2 0x163A JUMP JUMPDEST PUSH2 0xC41 JUMP JUMPDEST PUSH1 0x40 MLOAD PUSH2 0x376 SWAP2 SWAP1 PUSH2 0x13C8 JUMP JUMPDEST PUSH1 0x40 MLOAD DUP1 SWAP2 SUB SWAP1 RETURN JUMPDEST CALLVALUE DUP1 ISZERO PUSH2 0x38A JUMPI PUSH0 PUSH0 REVERT JUMPDEST POP PUSH2 0x3A5 PUSH1 0x4 DUP1 CALLDATASIZE SUB DUP2 ADD SWAP1 PUSH2 0x3A0 SWAP2 SWAP1 PUSH2 0x14C1 JUMP JUMPDEST PUSH2 0xC61 JUMP JUMPDEST STOP JUMPDEST CALLVALUE DUP1 ISZERO PUSH2 0x3B2 JUMPI PUSH0 PUSH0 REVERT JUMPDEST POP PUSH2 0x3BB PUSH2 0xC83 JUMP JUMPDEST PUSH1 0x40 MLOAD PUSH2 0x3C8 SWAP2 SWAP1 PUSH2 0x13C8 JUMP JUMPDEST PUSH1 0x40 MLOAD DUP1 SWAP2 SUB SWAP1 RETURN JUMPDEST CALLVALUE DUP1 ISZERO PUSH2 0x3DC JUMPI PUSH0 PUSH0 REVERT JUMPDEST POP PUSH2 0x3F7 PUSH1 0x4 DUP1 CALLDATASIZE SUB DUP2 ADD SWAP1 PUSH2 0x3F2 SWAP2 SWAP1 PUSH2 0x1567 JUMP JUMPDEST PUSH2 0xC89 JUMP JUMPDEST STOP JUMPDEST CALLVALUE DUP1 ISZERO PUSH2 0x404 JUMPI PUSH0 PUSH0 REVERT JUMPDEST POP PUSH2 0x40D PUSH2 0xE85 JUMP JUMPDEST PUSH1 0x40 MLOAD PUSH2 0x41A SWAP2 SWAP1 PUSH2 0x144E JUMP JUMPDEST PUSH1 0x40 MLOAD DUP1 SWAP2 SUB SWAP1 RETURN JUMPDEST PUSH2 0x42B PUSH2 0x42D JUMP JUMPDEST STOP JUMPDEST PUSH2 0x435 PUSH2 0xEA9 JUMP JUMPDEST PUSH0 PUSH2 0x43F CALLVALUE PUSH2 0xEF8 JUMP JUMPDEST SWAP1 POP PUSH1 0x2 SLOAD DUP2 PUSH1 0x3 SLOAD PUSH2 0x452 SWAP2 SWAP1 PUSH2 0x16A5 JUMP JUMPDEST GT ISZERO PUSH2 0x48A JUMPI PUSH1 0x40 MLOAD PUSH32 0x448F3CA800000000000000000000000000000000000000000000000000000000 DUP2 MSTORE PUSH1 0x4 ADD PUSH1 0x40 MLOAD DUP1 SWAP2 SUB SWAP1 REVERT JUMPDEST CALLVALUE PUSH1 0x4 PUSH0 CALLER PUSH20 0xFFFFFFFFFFFFFFFFFFFFFFFFFFFFFFFFFFFFFFFF AND PUSH20 0xFFFFFFFFFFFFFFFFFFFFFFFFFFFFFFFFFFFFFFFF AND DUP2 MSTORE PUSH1 0x20 ADD SWAP1 DUP2 MSTORE PUSH1 0x20 ADD PUSH0 KECCAK256 PUSH0 PUSH0 PUSH20 0xFFFFFFFFFFFFFFFFFFFFFFFFFFFFFFFFFFFFFFFF AND PUSH20 0xFFFFFFFFFFFFFFFFFFFFFFFFFFFFFFFFFFFFFFFF AND DUP2 MSTORE PUSH1 0x20 ADD SWAP1 DUP2 MSTORE PUSH1 0x20 ADD PUSH0 KECCAK256 PUSH0 DUP3 DUP3 SLOAD PUSH2 0x511 SWAP2 SWAP1 PUSH2 0x16A5 JUMP JUMPDEST SWAP3 POP POP DUP2 SWAP1 SSTORE POP DUP1 PUSH1 0x3 PUSH0 DUP3 DUP3 SLOAD PUSH2 0x529 SWAP2 SWAP1 PUSH2 0x16A5 JUMP JUMPDEST SWAP3 POP POP DUP2 SWAP1 SSTORE POP PUSH0 PUSH20 0xFFFFFFFFFFFFFFFFFFFFFFFFFFFFFFFFFFFFFFFF AND CALLER PUSH20 0xFFFFFFFFFFFFFFFFFFFFFFFFFFFFFFFFFFFFFFFF AND PUSH32 0x8752A472E571A816AEA92EEC8DAE9BAF628E840F4929FBCC2D155E6233FF68A7 CALLVALUE PUSH1 0x40 MLOAD PUSH2 0x58D SWAP2 SWAP1 PUSH2 0x13C8 JUMP JUMPDEST PUSH1 0x40 MLOAD DUP1 SWAP2 SUB SWAP1 LOG3 POP PUSH2 0x59E PUSH2 0x101B JUMP JUMPDEST JUMP JUMPDEST PUSH0 PUSH32 0x7965DB0B00000000000000000000000000000000000000000000000000000000 PUSH28 0xFFFFFFFFFFFFFFFFFFFFFFFFFFFFFFFFFFFFFFFFFFFFFFFFFFFFFFFF NOT AND DUP3 PUSH28 0xFFFFFFFFFFFFFFFFFFFFFFFFFFFFFFFFFFFFFFFFFFFFFFFFFFFFFFFF NOT AND EQ DUP1 PUSH2 0x612 JUMPI POP PUSH2 0x611 DUP3 PUSH2 0x1024 JUMP JUMPDEST JUMPDEST SWAP1 POP SWAP2 SWAP1 POP JUMP JUMPDEST PUSH1 0x2 SLOAD DUP2 JUMP JUMPDEST PUSH0 PUSH0 PUSH0 DUP4 DUP2 MSTORE PUSH1 0x20 ADD SWAP1 DUP2 MSTORE PUSH1 0x20 ADD PUSH0 KECCAK256 PUSH1 0x1 ADD SLOAD SWAP1 POP SWAP2 SWAP1 POP JUMP JUMPDEST PUSH2 0x644 DUP3 PUSH2 0x61F JUMP JUMPDEST PUSH2 0x64D DUP2 PUSH2 0x108D JUMP JUMPDEST PUSH2 0x657 DUP4 DUP4 PUSH2 0x10A1 JUMP JUMPDEST POP POP POP POP JUMP JUMPDEST PUSH2 0x665 PUSH2 0xEA9 JUMP JUMPDEST PUSH0 DUP2 GT PUSH2 0x6A7 JUMPI PUSH1 0x40 MLOAD PUSH32 0x8C379A000000000000000000000000000000000000000000000000000000000 DUP2 MSTORE PUSH1 0x4 ADD PUSH2 0x69E SWAP1 PUSH2 0x1732 JUMP JUMPDEST PUSH1 0x40 MLOAD DUP1 SWAP2 SUB SWAP1 REVERT JUMPDEST DUP2 PUSH20 0xFFFFFFFFFFFFFFFFFFFFFFFFFFFFFFFFFFFFFFFF AND PUSH4 0x23B872DD CALLER ADDRESS DUP5 PUSH1 0x40 MLOAD DUP5 PUSH4 0xFFFFFFFF AND PUSH1 0xE0 SHL DUP2 MSTORE PUSH1 0x4 ADD PUSH2 0x6E4 SWAP4 SWAP3 SWAP2 SWAP1 PUSH2 0x175F JUMP JUMPDEST PUSH1 0x20 PUSH1 0x40 MLOAD DUP1 DUP4 SUB DUP2 PUSH0 DUP8 GAS CALL ISZERO DUP1 ISZERO PUSH2 0x700 JUMPI RETURNDATASIZE PUSH0 PUSH0 RETURNDATACOPY RETURNDATASIZE PUSH0 REVERT JUMPDEST POP POP POP POP PUSH1 0x40 MLOAD RETURNDATASIZE PUSH1 0x1F NOT PUSH1 0x1F DUP3 ADD AND DUP3 ADD DUP1 PUSH1 0x40 MSTORE POP DUP2 ADD SWAP1 PUSH2 0x724 SWAP2 SWAP1 PUSH2 0x17BE JUMP JUMPDEST POP PUSH0 PUSH2 0x730 DUP4 DUP4 PUSH2 0x118A JUMP JUMPDEST SWAP1 POP PUSH1 0x2 SLOAD DUP2 PUSH1 0x3 SLOAD PUSH2 0x743 SWAP2 SWAP1 PUSH2 0x16A5 JUMP JUMPDEST GT ISZERO PUSH2 0x77B JUMPI PUSH1 0x40 MLOAD PUSH32 0x448F3CA800000000000000000000000000000000000000000000000000000000 DUP2 MSTORE PUSH1 0x4 ADD PUSH1 0x40 MLOAD DUP1 SWAP2 SUB SWAP1 REVERT JUMPDEST DUP2 PUSH1 0x4 PUSH0 CALLER PUSH20 0xFFFFFFFFFFFFFFFFFFFFFFFFFFFFFFFFFFFFFFFF AND PUSH20 0xFFFFFFFFFFFFFFFFFFFFFFFFFFFFFFFFFFFFFFFF AND DUP2 MSTORE PUSH1 0x20 ADD SWAP1 DUP2 MSTORE PUSH1 0x20 ADD PUSH0 KECCAK256 PUSH0 DUP6 PUSH20 0xFFFFFFFFFFFFFFFFFFFFFFFFFFFFFFFFFFFFFFFF AND PUSH20 0xFFFFFFFFFFFFFFFFFFFFFFFFFFFFFFFFFFFFFFFF AND DUP2 MSTORE PUSH1 0x20 ADD SWAP1 DUP2 MSTORE PUSH1 0x20 ADD PUSH0 KECCAK256 PUSH0 DUP3 DUP3 SLOAD PUSH2 0x802 SWAP2 SWAP1 PUSH2 0x16A5 JUMP JUMPDEST SWAP3 POP POP DUP2 SWAP1 SSTORE POP DUP1 PUSH1 0x3 PUSH0 DUP3 DUP3 SLOAD PUSH2 0x81A SWAP2 SWAP1 PUSH2 0x16A5 JUMP JUMPDEST SWAP3 POP POP DUP2 SWAP1 SSTORE POP DUP3 PUSH20 0xFFFFFFFFFFFFFFFFFFFFFFFFFFFFFFFFFFFFFFFF AND CALLER PUSH20 0xFFFFFFFFFFFFFFFFFFFFFFFFFFFFFFFFFFFFFFFF AND PUSH32 0x8752A472E571A816AEA92EEC8DAE9BAF628E840F4929FBCC2D155E6233FF68A7 DUP5 PUSH1 0x40 MLOAD PUSH2 0x87E SWAP2 SWAP1 PUSH2 0x13C8 JUMP JUMPDEST PUSH1 0x40 MLOAD DUP1 SWAP2 SUB SWAP1 LOG3 POP PUSH2 0x88F PUSH2 0x101B JUMP JUMPDEST POP POP JUMP JUMPDEST PUSH2 0x89B PUSH2 0x11B8 JUMP JUMPDEST PUSH20 0xFFFFFFFFFFFFFFFFFFFFFFFFFFFFFFFFFFFFFFFF AND DUP2 PUSH20 0xFFFFFFFFFFFFFFFFFFFFFFFFFFFFFFFFFFFFFFFF AND EQ PUSH2 0x8FF JUMPI PUSH1 0x40 MLOAD PUSH32 0x6697B23200000000000000000000000000000000000000000000000000000000 DUP2 MSTORE PUSH1 0x4 ADD PUSH1 0x40 MLOAD DUP1 SWAP2 SUB SWAP1 REVERT JUMPDEST PUSH2 0x909 DUP3 DUP3 PUSH2 0x11BF JUMP JUMPDEST POP POP POP JUMP JUMPDEST PUSH32 0x2D95A8186DB49DA8BD2356C70CF02038F7DE0D6ED39F6766FE2D93D5E7785616 PUSH2 0x938 DUP2 PUSH2 0x108D JUMP JUMPDEST DUP2 PUSH1 0x2 DUP2 SWAP1 SSTORE POP PUSH32 0xBB1D6466D6B9CB3CE29A9DCD7CC2E51EE7E921992290F96D813B174787857A8C DUP3 PUSH1 0x40 MLOAD PUSH2 0x96E SWAP2 SWAP1 PUSH2 0x13C8 JUMP JUMPDEST PUSH1 0x40 MLOAD DUP1 SWAP2 SUB SWAP1 LOG1 POP POP JUMP JUMPDEST PUSH32 0x0 DUP2 JUMP JUMPDEST PUSH0 PUSH0 PUSH0 DUP5 DUP2 MSTORE PUSH1 0x20 ADD SWAP1 DUP2 MSTORE PUSH1 0x20 ADD PUSH0 KECCAK256 PUSH0 ADD PUSH0 DUP4 PUSH20 0xFFFFFFFFFFFFFFFFFFFFFFFFFFFFFFFFFFFFFFFF AND PUSH20 0xFFFFFFFFFFFFFFFFFFFFFFFFFFFFFFFFFFFFFFFF AND DUP2 MSTORE PUSH1 0x20 ADD SWAP1 DUP2 MSTORE PUSH1 0x20 ADD PUSH0 KECCAK256 PUSH0 SWAP1 SLOAD SWAP1 PUSH2 0x100 EXP SWAP1 DIV PUSH1 0xFF AND SWAP1 POP SWAP3 SWAP2 POP POP JUMP JUMPDEST PUSH2 0xA09 PUSH2 0xEA9 JUMP JUMPDEST DUP1 PUSH1 0x4 PUSH0 CALLER PUSH20 0xFFFFFFFFFFFFFFFFFFFFFFFFFFFFFFFFFFFFFFFF AND PUSH20 0xFFFFFFFFFFFFFFFFFFFFFFFFFFFFFFFFFFFFFFFF AND DUP2 MSTORE PUSH1 0x20 ADD SWAP1 DUP2 MSTORE PUSH1 0x20 ADD PUSH0 KECCAK256 PUSH0 DUP5 PUSH20 0xFFFFFFFFFFFFFFFFFFFFFFFFFFFFFFFFFFFFFFFF AND PUSH20 0xFFFFFFFFFFFFFFFFFFFFFFFFFFFFFFFFFFFFFFFF AND DUP2 MSTORE PUSH1 0x20 ADD SWAP1 DUP2 MSTORE PUSH1 0x20 ADD PUSH0 KECCAK256 SLOAD LT ISZERO PUSH2 0xABB JUMPI PUSH1 0x40 MLOAD PUSH32 0xF4D678B800000000000000000000000000000000000000000000000000000000 DUP2 MSTORE PUSH1 0x4 ADD PUSH1 0x40 MLOAD DUP1 SWAP2 SUB SWAP1 REVERT JUMPDEST DUP1 PUSH1 0x4 PUSH0 CALLER PUSH20 0xFFFFFFFFFFFFFFFFFFFFFFFFFFFFFFFFFFFFFFFF AND PUSH20 0xFFFFFFFFFFFFFFFFFFFFFFFFFFFFFFFFFFFFFFFF AND DUP2 MSTORE PUSH1 0x20 ADD SWAP1 DUP2 MSTORE PUSH1 0x20 ADD PUSH0 KECCAK256 PUSH0 DUP5 PUSH20 0xFFFFFFFFFFFFFFFFFFFFFFFFFFFFFFFFFFFFFFFF AND PUSH20 0xFFFFFFFFFFFFFFFFFFFFFFFFFFFFFFFFFFFFFFFF AND DUP2 MSTORE PUSH1 0x20 ADD SWAP1 DUP2 MSTORE PUSH1 0x20 ADD PUSH0 KECCAK256 PUSH0 DUP3 DUP3 SLOAD PUSH2 0xB42 SWAP2 SWAP1 PUSH2 0x17E9 JUMP JUMPDEST SWAP3 POP POP DUP2 SWAP1 SSTORE POP DUP2 PUSH20 0xFFFFFFFFFFFFFFFFFFFFFFFFFFFFFFFFFFFFFFFF AND PUSH4 0xA9059CBB CALLER DUP4 PUSH1 0x40 MLOAD DUP4 PUSH4 0xFFFFFFFF AND PUSH1 0xE0 SHL DUP2 MSTORE PUSH1 0x4 ADD PUSH2 0xB84 SWAP3 SWAP2 SWAP1 PUSH2 0x181C JUMP JUMPDEST PUSH1 0x20 PUSH1 0x40 MLOAD DUP1 DUP4 SUB DUP2 PUSH0 DUP8 GAS CALL ISZERO DUP1 ISZERO PUSH2 0xBA0 JUMPI RETURNDATASIZE PUSH0 PUSH0 RETURNDATACOPY RETURNDATASIZE PUSH0 REVERT JUMPDEST POP POP POP POP PUSH1 0x40 MLOAD RETURNDATASIZE PUSH1 0x1F NOT PUSH1 0x1F DUP3 ADD AND DUP3 ADD DUP1 PUSH1 0x40 MSTORE POP DUP2 ADD SWAP1 PUSH2 0xBC4 SWAP2 SWAP1 PUSH2 0x17BE JUMP JUMPDEST POP DUP2 PUSH20 0xFFFFFFFFFFFFFFFFFFFFFFFFFFFFFFFFFFFFFFFF AND CALLER PUSH20 0xFFFFFFFFFFFFFFFFFFFFFFFFFFFFFFFFFFFFFFFF AND PUSH32 0xD1C19FBCD4551A5EDFB66D43D2E337C04837AFDA3482B42BDF569A8FCCDAE5FB DUP4 PUSH1 0x40 MLOAD PUSH2 0xC22 SWAP2 SWAP1 PUSH2 0x13C8 JUMP JUMPDEST PUSH1 0x40 MLOAD DUP1 SWAP2 SUB SWAP1 LOG3 PUSH2 0xC32 PUSH2 0x101B JUMP JUMPDEST POP POP JUMP JUMPDEST PUSH0 PUSH0 SHL DUP2 JUMP JUMPDEST PUSH1 0x6 DUP2 JUMP JUMPDEST PUSH1 0x4 PUSH1 0x20 MSTORE DUP2 PUSH0 MSTORE PUSH1 0x40 PUSH0 KECCAK256 PUSH1 0x20 MSTORE DUP1 PUSH0 MSTORE PUSH1 0x40 PUSH0 KECCAK256 PUSH0 SWAP2 POP SWAP2 POP POP SLOAD DUP2 JUMP JUMPDEST PUSH2 0xC6A DUP3 PUSH2 0x61F JUMP JUMPDEST PUSH2 0xC73 DUP2 PUSH2 0x108D JUMP JUMPDEST PUSH2 0xC7D DUP4 DUP4 PUSH2 0x11BF JUMP JUMPDEST POP POP POP POP JUMP JUMPDEST PUSH1 0x3 SLOAD DUP2 JUMP JUMPDEST PUSH2 0xC91 PUSH2 0xEA9 JUMP JUMPDEST DUP1 PUSH1 0x4 PUSH0 CALLER PUSH20 0xFFFFFFFFFFFFFFFFFFFFFFFFFFFFFFFFFFFFFFFF AND PUSH20 0xFFFFFFFFFFFFFFFFFFFFFFFFFFFFFFFFFFFFFFFF AND DUP2 MSTORE PUSH1 0x20 ADD SWAP1 DUP2 MSTORE PUSH1 0x20 ADD PUSH0 KECCAK256 PUSH0 PUSH0 PUSH20 0xFFFFFFFFFFFFFFFFFFFFFFFFFFFFFFFFFFFFFFFF AND PUSH20 0xFFFFFFFFFFFFFFFFFFFFFFFFFFFFFFFFFFFFFFFF AND DUP2 MSTORE PUSH1 0x20 ADD SWAP1 DUP2 MSTORE PUSH1 0x20 ADD PUSH0 KECCAK256 SLOAD LT ISZERO PUSH2 0xD43 JUMPI PUSH1 0x40 MLOAD PUSH32 0xF4D678B800000000000000000000000000000000000000000000000000000000 DUP2 MSTORE PUSH1 0x4 ADD PUSH1 0x40 MLOAD DUP1 SWAP2 SUB SWAP1 REVERT JUMPDEST DUP1 PUSH1 0x4 PUSH0 CALLER PUSH20 0xFFFFFFFFFFFFFFFFFFFFFFFFFFFFFFFFFFFFFFFF AND PUSH20 0xFFFFFFFFFFFFFFFFFFFFFFFFFFFFFFFFFFFFFFFF AND DUP2 MSTORE PUSH1 0x20 ADD SWAP1 DUP2 MSTORE PUSH1 0x20 ADD PUSH0 KECCAK256 PUSH0 PUSH0 PUSH20 0xFFFFFFFFFFFFFFFFFFFFFFFFFFFFFFFFFFFFFFFF AND PUSH20 0xFFFFFFFFFFFFFFFFFFFFFFFFFFFFFFFFFFFFFFFF AND DUP2 MSTORE PUSH1 0x20 ADD SWAP1 DUP2 MSTORE PUSH1 0x20 ADD PUSH0 KECCAK256 PUSH0 DUP3 DUP3 SLOAD PUSH2 0xDCA SWAP2 SWAP1 PUSH2 0x17E9 JUMP JUMPDEST SWAP3 POP POP DUP2 SWAP1 SSTORE POP CALLER PUSH20 0xFFFFFFFFFFFFFFFFFFFFFFFFFFFFFFFFFFFFFFFF AND PUSH2 0x8FC DUP3 SWAP1 DUP2 ISZERO MUL SWAP1 PUSH1 0x40 MLOAD PUSH0 PUSH1 0x40 MLOAD DUP1 DUP4 SUB DUP2 DUP6 DUP9 DUP9 CALL SWAP4 POP POP POP POP ISZERO DUP1 ISZERO PUSH2 0xE14 JUMPI RETURNDATASIZE PUSH0 PUSH0 RETURNDATACOPY RETURNDATASIZE PUSH0 REVERT JUMPDEST POP PUSH0 PUSH20 0xFFFFFFFFFFFFFFFFFFFFFFFFFFFFFFFFFFFFFFFF AND CALLER PUSH20 0xFFFFFFFFFFFFFFFFFFFFFFFFFFFFFFFFFFFFFFFF AND PUSH32 0xD1C19FBCD4551A5EDFB66D43D2E337C04837AFDA3482B42BDF569A8FCCDAE5FB DUP4 PUSH1 0x40 MLOAD PUSH2 0xE72 SWAP2 SWAP1 PUSH2 0x13C8 JUMP JUMPDEST PUSH1 0x40 MLOAD DUP1 SWAP2 SUB SWAP1 LOG3 PUSH2 0xE82 PUSH2 0x101B JUMP JUMPDEST POP JUMP JUMPDEST PUSH32 0x2D95A8186DB49DA8BD2356C70CF02038F7DE0D6ED39F6766FE2D93D5E7785616 DUP2 JUMP JUMPDEST PUSH1 0x2 PUSH1 0x1 SLOAD SUB PUSH2 0xEEE JUMPI PUSH1 0x40 MLOAD PUSH32 0x8C379A000000000000000000000000000000000000000000000000000000000 DUP2 MSTORE PUSH1 0x4 ADD PUSH2 0xEE5 SWAP1 PUSH2 0x188D JUMP JUMPDEST PUSH1 0x40 MLOAD DUP1 SWAP2 SUB SWAP1 REVERT JUMPDEST PUSH1 0x2 PUSH1 0x1 DUP2 SWAP1 SSTORE POP JUMP JUMPDEST PUSH0 PUSH0 PUSH32 0x0 PUSH20 0xFFFFFFFFFFFFFFFFFFFFFFFFFFFFFFFFFFFFFFFF AND PUSH4 0xFEAF968C PUSH1 0x40 MLOAD DUP2 PUSH4 0xFFFFFFFF AND PUSH1 0xE0 SHL DUP2 MSTORE PUSH1 0x4 ADD PUSH1 0xA0 PUSH1 0x40 MLOAD DUP1 DUP4 SUB DUP2 DUP7 GAS STATICCALL ISZERO DUP1 ISZERO PUSH2 0xF63 JUMPI RETURNDATASIZE PUSH0 PUSH0 RETURNDATACOPY RETURNDATASIZE PUSH0 REVERT JUMPDEST POP POP POP POP PUSH1 0x40 MLOAD RETURNDATASIZE PUSH1 0x1F NOT PUSH1 0x1F DUP3 ADD AND DUP3 ADD DUP1 PUSH1 0x40 MSTORE POP DUP2 ADD SWAP1 PUSH2 0xF87 SWAP2 SWAP1 PUSH2 0x1931 JUMP JUMPDEST POP POP POP SWAP2 POP POP PUSH0 DUP2 SGT PUSH2 0xFCF JUMPI PUSH1 0x40 MLOAD PUSH32 0x8C379A000000000000000000000000000000000000000000000000000000000 DUP2 MSTORE PUSH1 0x4 ADD PUSH2 0xFC6 SWAP1 PUSH2 0x19F2 JUMP JUMPDEST PUSH1 0x40 MLOAD DUP1 SWAP2 SUB SWAP1 REVERT JUMPDEST PUSH0 PUSH4 0x5F5E100 DUP3 DUP6 PUSH2 0xFE1 SWAP2 SWAP1 PUSH2 0x1A10 JUMP JUMPDEST PUSH2 0xFEB SWAP2 SWAP1 PUSH2 0x1A7E JUMP JUMPDEST SWAP1 POP PUSH1 0x6 PUSH1 0x12 PUSH2 0xFFB SWAP2 SWAP1 PUSH2 0x1AAE JUMP JUMPDEST PUSH1 0xA PUSH2 0x1007 SWAP2 SWAP1 PUSH2 0x1C11 JUMP JUMPDEST DUP2 PUSH2 0x1012 SWAP2 SWAP1 PUSH2 0x1A7E JUMP JUMPDEST SWAP3 POP POP POP SWAP2 SWAP1 POP JUMP JUMPDEST PUSH1 0x1 DUP1 DUP2 SWAP1 SSTORE POP JUMP JUMPDEST PUSH0 PUSH32 0x1FFC9A700000000000000000000000000000000000000000000000000000000 PUSH28 0xFFFFFFFFFFFFFFFFFFFFFFFFFFFFFFFFFFFFFFFFFFFFFFFFFFFFFFFF NOT AND DUP3 PUSH28 0xFFFFFFFFFFFFFFFFFFFFFFFFFFFFFFFFFFFFFFFFFFFFFFFFFFFFFFFF NOT AND EQ SWAP1 POP SWAP2 SWAP1 POP JUMP JUMPDEST PUSH2 0x109E DUP2 PUSH2 0x1099 PUSH2 0x11B8 JUMP JUMPDEST PUSH2 0x12A8 JUMP JUMPDEST POP JUMP JUMPDEST PUSH0 PUSH2 0x10AC DUP4 DUP4 PUSH2 0x99E JUMP JUMPDEST PUSH2 0x1180 JUMPI PUSH1 0x1 PUSH0 PUSH0 DUP6 DUP2 MSTORE PUSH1 0x20 ADD SWAP1 DUP2 MSTORE PUSH1 0x20 ADD PUSH0 KECCAK256 PUSH0 ADD PUSH0 DUP5 PUSH20 0xFFFFFFFFFFFFFFFFFFFFFFFFFFFFFFFFFFFFFFFF AND PUSH20 0xFFFFFFFFFFFFFFFFFFFFFFFFFFFFFFFFFFFFFFFF AND DUP2 MSTORE PUSH1 0x20 ADD SWAP1 DUP2 MSTORE PUSH1 0x20 ADD PUSH0 KECCAK256 PUSH0 PUSH2 0x100 EXP DUP2 SLOAD DUP2 PUSH1 0xFF MUL NOT AND SWAP1 DUP4 ISZERO ISZERO MUL OR SWAP1 SSTORE POP PUSH2 0x111D PUSH2 0x11B8 JUMP JUMPDEST PUSH20 0xFFFFFFFFFFFFFFFFFFFFFFFFFFFFFFFFFFFFFFFF AND DUP3 PUSH20 0xFFFFFFFFFFFFFFFFFFFFFFFFFFFFFFFFFFFFFFFF AND DUP5 PUSH32 0x2F8788117E7EFF1D82E926EC794901D17C78024A50270940304540A733656F0D PUSH1 0x40 MLOAD PUSH1 0x40 MLOAD DUP1 SWAP2 SUB SWAP1 LOG4 PUSH1 0x1 SWAP1 POP PUSH2 0x1184 JUMP JUMPDEST PUSH0 SWAP1 POP JUMPDEST SWAP3 SWAP2 POP POP JUMP JUMPDEST PUSH0 PUSH1 0x6 PUSH1 0x12 PUSH2 0x1199 SWAP2 SWAP1 PUSH2 0x1AAE JUMP JUMPDEST PUSH1 0xA PUSH2 0x11A5 SWAP2 SWAP1 PUSH2 0x1C11 JUMP JUMPDEST DUP3 PUSH2 0x11B0 SWAP2 SWAP1 PUSH2 0x1A7E JUMP JUMPDEST SWAP1 POP SWAP3 SWAP2 POP POP JUMP JUMPDEST PUSH0 CALLER SWAP1 POP SWAP1 JUMP JUMPDEST PUSH0 PUSH2 0x11CA DUP4 DUP4 PUSH2 0x99E JUMP JUMPDEST ISZERO PUSH2 0x129E JUMPI PUSH0 PUSH0 PUSH0 DUP6 DUP2 MSTORE PUSH1 0x20 ADD SWAP1 DUP2 MSTORE PUSH1 0x20 ADD PUSH0 KECCAK256 PUSH0 ADD PUSH0 DUP5 PUSH20 0xFFFFFFFFFFFFFFFFFFFFFFFFFFFFFFFFFFFFFFFF AND PUSH20 0xFFFFFFFFFFFFFFFFFFFFFFFFFFFFFFFFFFFFFFFF AND DUP2 MSTORE PUSH1 0x20 ADD SWAP1 DUP2 MSTORE PUSH1 0x20 ADD PUSH0 KECCAK256 PUSH0 PUSH2 0x100 EXP DUP2 SLOAD DUP2 PUSH1 0xFF MUL NOT AND SWAP1 DUP4 ISZERO ISZERO MUL OR SWAP1 SSTORE POP PUSH2 0x123B PUSH2 0x11B8 JUMP JUMPDEST PUSH20 0xFFFFFFFFFFFFFFFFFFFFFFFFFFFFFFFFFFFFFFFF AND DUP3 PUSH20 0xFFFFFFFFFFFFFFFFFFFFFFFFFFFFFFFFFFFFFFFF AND DUP5 PUSH32 0xF6391F5C32D9C69D2A47EA670B442974B53935D1EDC7FD64EB21E047A839171B PUSH1 0x40 MLOAD PUSH1 0x40 MLOAD DUP1 SWAP2 SUB SWAP1 LOG4 PUSH1 0x1 SWAP1 POP PUSH2 0x12A2 JUMP JUMPDEST PUSH0 SWAP1 POP JUMPDEST SWAP3 SWAP2 POP POP JUMP JUMPDEST PUSH2 0x12B2 DUP3 DUP3 PUSH2 0x99E JUMP JUMPDEST PUSH2 0x12F5 JUMPI DUP1 DUP3 PUSH1 0x40 MLOAD PUSH32 0xE2517D3F00000000000000000000000000000000000000000000000000000000 DUP2 MSTORE PUSH1 0x4 ADD PUSH2 0x12EC SWAP3 SWAP2 SWAP1 PUSH2 0x1C5B JUMP JUMPDEST PUSH1 0x40 MLOAD DUP1 SWAP2 SUB SWAP1 REVERT JUMPDEST POP POP JUMP JUMPDEST PUSH0 PUSH0 REVERT JUMPDEST PUSH0 PUSH32 0xFFFFFFFF00000000000000000000000000000000000000000000000000000000 DUP3 AND SWAP1 POP SWAP2 SWAP1 POP JUMP JUMPDEST PUSH2 0x1331 DUP2 PUSH2 0x12FD JUMP JUMPDEST DUP2 EQ PUSH2 0x133B JUMPI PUSH0 PUSH0 REVERT JUMPDEST POP JUMP JUMPDEST PUSH0 DUP2 CALLDATALOAD SWAP1 POP PUSH2 0x134C DUP2 PUSH2 0x1328 JUMP JUMPDEST SWAP3 SWAP2 POP POP JUMP JUMPDEST PUSH0 PUSH1 0x20 DUP3 DUP5 SUB SLT ISZERO PUSH2 0x1367 JUMPI PUSH2 0x1366 PUSH2 0x12F9 JUMP JUMPDEST JUMPDEST PUSH0 PUSH2 0x1374 DUP5 DUP3 DUP6 ADD PUSH2 0x133E JUMP JUMPDEST SWAP2 POP POP SWAP3 SWAP2 POP POP JUMP JUMPDEST PUSH0 DUP2 ISZERO ISZERO SWAP1 POP SWAP2 SWAP1 POP JUMP JUMPDEST PUSH2 0x1391 DUP2 PUSH2 0x137D JUMP JUMPDEST DUP3 MSTORE POP POP JUMP JUMPDEST PUSH0 PUSH1 0x20 DUP3 ADD SWAP1 POP PUSH2 0x13AA PUSH0 DUP4 ADD DUP5 PUSH2 0x1388 JUMP JUMPDEST SWAP3 SWAP2 POP POP JUMP JUMPDEST PUSH0 DUP2 SWAP1 POP SWAP2 SWAP1 POP JUMP JUMPDEST PUSH2 0x13C2 DUP2 PUSH2 0x13B0 JUMP JUMPDEST DUP3 MSTORE POP POP JUMP JUMPDEST PUSH0 PUSH1 0x20 DUP3 ADD SWAP1 POP PUSH2 0x13DB PUSH0 DUP4 ADD DUP5 PUSH2 0x13B9 JUMP JUMPDEST SWAP3 SWAP2 POP POP JUMP JUMPDEST PUSH0 DUP2 SWAP1 POP SWAP2 SWAP1 POP JUMP JUMPDEST PUSH2 0x13F3 DUP2 PUSH2 0x13E1 JUMP JUMPDEST DUP2 EQ PUSH2 0x13FD JUMPI PUSH0 PUSH0 REVERT JUMPDEST POP JUMP JUMPDEST PUSH0 DUP2 CALLDATALOAD SWAP1 POP PUSH2 0x140E DUP2 PUSH2 0x13EA JUMP JUMPDEST SWAP3 SWAP2 POP POP JUMP JUMPDEST PUSH0 PUSH1 0x20 DUP3 DUP5 SUB SLT ISZERO PUSH2 0x1429 JUMPI PUSH2 0x1428 PUSH2 0x12F9 JUMP JUMPDEST JUMPDEST PUSH0 PUSH2 0x1436 DUP5 DUP3 DUP6 ADD PUSH2 0x1400 JUMP JUMPDEST SWAP2 POP POP SWAP3 SWAP2 POP POP JUMP JUMPDEST PUSH2 0x1448 DUP2 PUSH2 0x13E1 JUMP JUMPDEST DUP3 MSTORE POP POP JUMP JUMPDEST PUSH0 PUSH1 0x20 DUP3 ADD SWAP1 POP PUSH2 0x1461 PUSH0 DUP4 ADD DUP5 PUSH2 0x143F JUMP JUMPDEST SWAP3 SWAP2 POP POP JUMP JUMPDEST PUSH0 PUSH20 0xFFFFFFFFFFFFFFFFFFFFFFFFFFFFFFFFFFFFFFFF DUP3 AND SWAP1 POP SWAP2 SWAP1 POP JUMP JUMPDEST PUSH0 PUSH2 0x1490 DUP3 PUSH2 0x1467 JUMP JUMPDEST SWAP1 POP SWAP2 SWAP1 POP JUMP JUMPDEST PUSH2 0x14A0 DUP2 PUSH2 0x1486 JUMP JUMPDEST DUP2 EQ PUSH2 0x14AA JUMPI PUSH0 PUSH0 REVERT JUMPDEST POP JUMP JUMPDEST PUSH0 DUP2 CALLDATALOAD SWAP1 POP PUSH2 0x14BB DUP2 PUSH2 0x1497 JUMP JUMPDEST SWAP3 SWAP2 POP POP JUMP JUMPDEST PUSH0 PUSH0 PUSH1 0x40 DUP4 DUP6 SUB SLT ISZERO PUSH2 0x14D7 JUMPI PUSH2 0x14D6 PUSH2 0x12F9 JUMP JUMPDEST JUMPDEST PUSH0 PUSH2 0x14E4 DUP6 DUP3 DUP7 ADD PUSH2 0x1400 JUMP JUMPDEST SWAP3 POP POP PUSH1 0x20 PUSH2 0x14F5 DUP6 DUP3 DUP7 ADD PUSH2 0x14AD JUMP JUMPDEST SWAP2 POP POP SWAP3 POP SWAP3 SWAP1 POP JUMP JUMPDEST PUSH2 0x1508 DUP2 PUSH2 0x13B0 JUMP JUMPDEST DUP2 EQ PUSH2 0x1512 JUMPI PUSH0 PUSH0 REVERT JUMPDEST POP JUMP JUMPDEST PUSH0 DUP2 CALLDATALOAD SWAP1 POP PUSH2 0x1523 DUP2 PUSH2 0x14FF JUMP JUMPDEST SWAP3 SWAP2 POP POP JUMP JUMPDEST PUSH0 PUSH0 PUSH1 0x40 DUP4 DUP6 SUB SLT ISZERO PUSH2 0x153F JUMPI PUSH2 0x153E PUSH2 0x12F9 JUMP JUMPDEST JUMPDEST PUSH0 PUSH2 0x154C DUP6 DUP3 DUP7 ADD PUSH2 0x14AD JUMP JUMPDEST SWAP3 POP POP PUSH1 0x20 PUSH2 0x155D DUP6 DUP3 DUP7 ADD PUSH2 0x1515 JUMP JUMPDEST SWAP2 POP POP SWAP3 POP SWAP3 SWAP1 POP JUMP JUMPDEST PUSH0 PUSH1 0x20 DUP3 DUP5 SUB SLT ISZERO PUSH2 0x157C JUMPI PUSH2 0x157B PUSH2 0x12F9 JUMP JUMPDEST JUMPDEST PUSH0 PUSH2 0x1589 DUP5 DUP3 DUP6 ADD PUSH2 0x1515 JUMP JUMPDEST SWAP2 POP POP SWAP3 SWAP2 POP POP JUMP JUMPDEST PUSH0 DUP2 SWAP1 POP SWAP2 SWAP1 POP JUMP JUMPDEST PUSH0 PUSH2 0x15B5 PUSH2 0x15B0 PUSH2 0x15AB DUP5 PUSH2 0x1467 JUMP JUMPDEST PUSH2 0x1592 JUMP JUMPDEST PUSH2 0x1467 JUMP JUMPDEST SWAP1 POP SWAP2 SWAP1 POP JUMP JUMPDEST PUSH0 PUSH2 0x15C6 DUP3 PUSH2 0x159B JUMP JUMPDEST SWAP1 POP SWAP2 SWAP1 POP JUMP JUMPDEST PUSH0 PUSH2 0x15D7 DUP3 PUSH2 0x15BC JUMP JUMPDEST SWAP1 POP SWAP2 SWAP1 POP JUMP JUMPDEST PUSH2 0x15E7 DUP2 PUSH2 0x15CD JUMP JUMPDEST DUP3 MSTORE POP POP JUMP JUMPDEST PUSH0 PUSH1 0x20 DUP3 ADD SWAP1 POP PUSH2 0x1600 PUSH0 DUP4 ADD DUP5 PUSH2 0x15DE JUMP JUMPDEST SWAP3 SWAP2 POP POP JUMP JUMPDEST PUSH0 PUSH1 0xFF DUP3 AND SWAP1 POP SWAP2 SWAP1 POP JUMP JUMPDEST PUSH2 0x161B DUP2 PUSH2 0x1606 JUMP JUMPDEST DUP3 MSTORE POP POP JUMP JUMPDEST PUSH0 PUSH1 0x20 DUP3 ADD SWAP1 POP PUSH2 0x1634 PUSH0 DUP4 ADD DUP5 PUSH2 0x1612 JUMP JUMPDEST SWAP3 SWAP2 POP POP JUMP JUMPDEST PUSH0 PUSH0 PUSH1 0x40 DUP4 DUP6 SUB SLT ISZERO PUSH2 0x1650 JUMPI PUSH2 0x164F PUSH2 0x12F9 JUMP JUMPDEST JUMPDEST PUSH0 PUSH2 0x165D DUP6 DUP3 DUP7 ADD PUSH2 0x14AD JUMP JUMPDEST SWAP3 POP POP PUSH1 0x20 PUSH2 0x166E DUP6 DUP3 DUP7 ADD PUSH2 0x14AD JUMP JUMPDEST SWAP2 POP POP SWAP3 POP SWAP3 SWAP1 POP JUMP JUMPDEST PUSH32 0x4E487B7100000000000000000000000000000000000000000000000000000000 PUSH0 MSTORE PUSH1 0x11 PUSH1 0x4 MSTORE PUSH1 0x24 PUSH0 REVERT JUMPDEST PUSH0 PUSH2 0x16AF DUP3 PUSH2 0x13B0 JUMP JUMPDEST SWAP2 POP PUSH2 0x16BA DUP4 PUSH2 0x13B0 JUMP JUMPDEST SWAP3 POP DUP3 DUP3 ADD SWAP1 POP DUP1 DUP3 GT ISZERO PUSH2 0x16D2 JUMPI PUSH2 0x16D1 PUSH2 0x1678 JUMP JUMPDEST JUMPDEST SWAP3 SWAP2 POP POP JUMP JUMPDEST PUSH0 DUP3 DUP3 MSTORE PUSH1 0x20 DUP3 ADD SWAP1 POP SWAP3 SWAP2 POP POP JUMP JUMPDEST PUSH32 0x496E76616C696420616D6F756E74000000000000000000000000000000000000 PUSH0 DUP3 ADD MSTORE POP JUMP JUMPDEST PUSH0 PUSH2 0x171C PUSH1 0xE DUP4 PUSH2 0x16D8 JUMP JUMPDEST SWAP2 POP PUSH2 0x1727 DUP3 PUSH2 0x16E8 JUMP JUMPDEST PUSH1 0x20 DUP3 ADD SWAP1 POP SWAP2 SWAP1 POP JUMP JUMPDEST PUSH0 PUSH1 0x20 DUP3 ADD SWAP1 POP DUP2 DUP2 SUB PUSH0 DUP4 ADD MSTORE PUSH2 0x1749 DUP2 PUSH2 0x1710 JUMP JUMPDEST SWAP1 POP SWAP2 SWAP1 POP JUMP JUMPDEST PUSH2 0x1759 DUP2 PUSH2 0x1486 JUMP JUMPDEST DUP3 MSTORE POP POP JUMP JUMPDEST PUSH0 PUSH1 0x60 DUP3 ADD SWAP1 POP PUSH2 0x1772 PUSH0 DUP4 ADD DUP7 PUSH2 0x1750 JUMP JUMPDEST PUSH2 0x177F PUSH1 0x20 DUP4 ADD DUP6 PUSH2 0x1750 JUMP JUMPDEST PUSH2 0x178C PUSH1 0x40 DUP4 ADD DUP5 PUSH2 0x13B9 JUMP JUMPDEST SWAP5 SWAP4 POP POP POP POP JUMP JUMPDEST PUSH2 0x179D DUP2 PUSH2 0x137D JUMP JUMPDEST DUP2 EQ PUSH2 0x17A7 JUMPI PUSH0 PUSH0 REVERT JUMPDEST POP JUMP JUMPDEST PUSH0 DUP2 MLOAD SWAP1 POP PUSH2 0x17B8 DUP2 PUSH2 0x1794 JUMP JUMPDEST SWAP3 SWAP2 POP POP JUMP JUMPDEST PUSH0 PUSH1 0x20 DUP3 DUP5 SUB SLT ISZERO PUSH2 0x17D3 JUMPI PUSH2 0x17D2 PUSH2 0x12F9 JUMP JUMPDEST JUMPDEST PUSH0 PUSH2 0x17E0 DUP5 DUP3 DUP6 ADD PUSH2 0x17AA JUMP JUMPDEST SWAP2 POP POP SWAP3 SWAP2 POP POP JUMP JUMPDEST PUSH0 PUSH2 0x17F3 DUP3 PUSH2 0x13B0 JUMP JUMPDEST SWAP2 POP PUSH2 0x17FE DUP4 PUSH2 0x13B0 JUMP JUMPDEST SWAP3 POP DUP3 DUP3 SUB SWAP1 POP DUP2 DUP2 GT ISZERO PUSH2 0x1816 JUMPI PUSH2 0x1815 PUSH2 0x1678 JUMP JUMPDEST JUMPDEST SWAP3 SWAP2 POP POP JUMP JUMPDEST PUSH0 PUSH1 0x40 DUP3 ADD SWAP1 POP PUSH2 0x182F PUSH0 DUP4 ADD DUP6 PUSH2 0x1750 JUMP JUMPDEST PUSH2 0x183C PUSH1 0x20 DUP4 ADD DUP5 PUSH2 0x13B9 JUMP JUMPDEST SWAP4 SWAP3 POP POP POP JUMP JUMPDEST PUSH32 0x5265656E7472616E637947756172643A207265656E7472616E742063616C6C00 PUSH0 DUP3 ADD MSTORE POP JUMP JUMPDEST PUSH0 PUSH2 0x1877 PUSH1 0x1F DUP4 PUSH2 0x16D8 JUMP JUMPDEST SWAP2 POP PUSH2 0x1882 DUP3 PUSH2 0x1843 JUMP JUMPDEST PUSH1 0x20 DUP3 ADD SWAP1 POP SWAP2 SWAP1 POP JUMP JUMPDEST PUSH0 PUSH1 0x20 DUP3 ADD SWAP1 POP DUP2 DUP2 SUB PUSH0 DUP4 ADD MSTORE PUSH2 0x18A4 DUP2 PUSH2 0x186B JUMP JUMPDEST SWAP1 POP SWAP2 SWAP1 POP JUMP JUMPDEST PUSH0 PUSH10 0xFFFFFFFFFFFFFFFFFFFF DUP3 AND SWAP1 POP SWAP2 SWAP1 POP JUMP JUMPDEST PUSH2 0x18C9 DUP2 PUSH2 0x18AB JUMP JUMPDEST DUP2 EQ PUSH2 0x18D3 JUMPI PUSH0 PUSH0 REVERT JUMPDEST POP JUMP JUMPDEST PUSH0 DUP2 MLOAD SWAP1 POP PUSH2 0x18E4 DUP2 PUSH2 0x18C0 JUMP JUMPDEST SWAP3 SWAP2 POP POP JUMP JUMPDEST PUSH0 DUP2 SWAP1 POP SWAP2 SWAP1 POP JUMP JUMPDEST PUSH2 0x18FC DUP2 PUSH2 0x18EA JUMP JUMPDEST DUP2 EQ PUSH2 0x1906 JUMPI PUSH0 PUSH0 REVERT JUMPDEST POP JUMP JUMPDEST PUSH0 DUP2 MLOAD SWAP1 POP PUSH2 0x1917 DUP2 PUSH2 0x18F3 JUMP JUMPDEST SWAP3 SWAP2 POP POP JUMP JUMPDEST PUSH0 DUP2 MLOAD SWAP1 POP PUSH2 0x192B DUP2 PUSH2 0x14FF JUMP JUMPDEST SWAP3 SWAP2 POP POP JUMP JUMPDEST PUSH0 PUSH0 PUSH0 PUSH0 PUSH0 PUSH1 0xA0 DUP7 DUP9 SUB SLT ISZERO PUSH2 0x194A JUMPI PUSH2 0x1949 PUSH2 0x12F9 JUMP JUMPDEST JUMPDEST PUSH0 PUSH2 0x1957 DUP9 DUP3 DUP10 ADD PUSH2 0x18D6 JUMP JUMPDEST SWAP6 POP POP PUSH1 0x20 PUSH2 0x1968 DUP9 DUP3 DUP10 ADD PUSH2 0x1909 JUMP JUMPDEST SWAP5 POP POP PUSH1 0x40 PUSH2 0x1979 DUP9 DUP3 DUP10 ADD PUSH2 0x191D JUMP JUMPDEST SWAP4 POP POP PUSH1 0x60 PUSH2 0x198A DUP9 DUP3 DUP10 ADD PUSH2 0x191D JUMP JUMPDEST SWAP3 POP POP PUSH1 0x80 PUSH2 0x199B DUP9 DUP3 DUP10 ADD PUSH2 0x18D6 JUMP JUMPDEST SWAP2 POP POP SWAP3 SWAP6 POP SWAP3 SWAP6 SWAP1 SWAP4 POP JUMP JUMPDEST PUSH32 0x496E76616C696420707269636520666565640000000000000000000000000000 PUSH0 DUP3 ADD MSTORE POP JUMP JUMPDEST PUSH0 PUSH2 0x19DC PUSH1 0x12 DUP4 PUSH2 0x16D8 JUMP JUMPDEST SWAP2 POP PUSH2 0x19E7 DUP3 PUSH2 0x19A8 JUMP JUMPDEST PUSH1 0x20 DUP3 ADD SWAP1 POP SWAP2 SWAP1 POP JUMP JUMPDEST PUSH0 PUSH1 0x20 DUP3 ADD SWAP1 POP DUP2 DUP2 SUB PUSH0 DUP4 ADD MSTORE PUSH2 0x1A09 DUP2 PUSH2 0x19D0 JUMP JUMPDEST SWAP1 POP SWAP2 SWAP1 POP JUMP JUMPDEST PUSH0 PUSH2 0x1A1A DUP3 PUSH2 0x13B0 JUMP JUMPDEST SWAP2 POP PUSH2 0x1A25 DUP4 PUSH2 0x13B0 JUMP JUMPDEST SWAP3 POP DUP3 DUP3 MUL PUSH2 0x1A33 DUP2 PUSH2 0x13B0 JUMP JUMPDEST SWAP2 POP DUP3 DUP3 DIV DUP5 EQ DUP4 ISZERO OR PUSH2 0x1A4A JUMPI PUSH2 0x1A49 PUSH2 0x1678 JUMP JUMPDEST JUMPDEST POP SWAP3 SWAP2 POP POP JUMP JUMPDEST PUSH32 0x4E487B7100000000000000000000000000000000000000000000000000000000 PUSH0 MSTORE PUSH1 0x12 PUSH1 0x4 MSTORE PUSH1 0x24 PUSH0 REVERT JUMPDEST PUSH0 PUSH2 0x1A88 DUP3 PUSH2 0x13B0 JUMP JUMPDEST SWAP2 POP PUSH2 0x1A93 DUP4 PUSH2 0x13B0 JUMP JUMPDEST SWAP3 POP DUP3 PUSH2 0x1AA3 JUMPI PUSH2 0x1AA2 PUSH2 0x1A51 JUMP JUMPDEST JUMPDEST DUP3 DUP3 DIV SWAP1 POP SWAP3 SWAP2 POP POP JUMP JUMPDEST PUSH0 PUSH2 0x1AB8 DUP3 PUSH2 0x1606 JUMP JUMPDEST SWAP2 POP PUSH2 0x1AC3 DUP4 PUSH2 0x1606 JUMP JUMPDEST SWAP3 POP DUP3 DUP3 SUB SWAP1 POP PUSH1 0xFF DUP2 GT ISZERO PUSH2 0x1ADC JUMPI PUSH2 0x1ADB PUSH2 0x1678 JUMP JUMPDEST JUMPDEST SWAP3 SWAP2 POP POP JUMP JUMPDEST PUSH0 DUP2 PUSH1 0x1 SHR SWAP1 POP SWAP2 SWAP1 POP JUMP JUMPDEST PUSH0 PUSH0 DUP3 SWAP2 POP DUP4 SWAP1 POP JUMPDEST PUSH1 0x1 DUP6 GT ISZERO PUSH2 0x1B37 JUMPI DUP1 DUP7 DIV DUP2 GT ISZERO PUSH2 0x1B13 JUMPI PUSH2 0x1B12 PUSH2 0x1678 JUMP JUMPDEST JUMPDEST PUSH1 0x1 DUP6 AND ISZERO PUSH2 0x1B22 JUMPI DUP1 DUP3 MUL SWAP2 POP JUMPDEST DUP1 DUP2 MUL SWAP1 POP PUSH2 0x1B30 DUP6 PUSH2 0x1AE2 JUMP JUMPDEST SWAP5 POP PUSH2 0x1AF7 JUMP JUMPDEST SWAP5 POP SWAP5 SWAP3 POP POP POP JUMP JUMPDEST PUSH0 DUP3 PUSH2 0x1B4F JUMPI PUSH1 0x1 SWAP1 POP PUSH2 0x1C0A JUMP JUMPDEST DUP2 PUSH2 0x1B5C JUMPI PUSH0 SWAP1 POP PUSH2 0x1C0A JUMP JUMPDEST DUP2 PUSH1 0x1 DUP2 EQ PUSH2 0x1B72 JUMPI PUSH1 0x2 DUP2 EQ PUSH2 0x1B7C JUMPI PUSH2 0x1BAB JUMP JUMPDEST PUSH1 0x1 SWAP2 POP POP PUSH2 0x1C0A JUMP JUMPDEST PUSH1 0xFF DUP5 GT ISZERO PUSH2 0x1B8E JUMPI PUSH2 0x1B8D PUSH2 0x1678 JUMP JUMPDEST JUMPDEST DUP4 PUSH1 0x2 EXP SWAP2 POP DUP5 DUP3 GT ISZERO PUSH2 0x1BA5 JUMPI PUSH2 0x1BA4 PUSH2 0x1678 JUMP JUMPDEST JUMPDEST POP PUSH2 0x1C0A JUMP JUMPDEST POP PUSH1 0x20 DUP4 LT PUSH2 0x133 DUP4 LT AND PUSH1 0x4E DUP5 LT PUSH1 0xB DUP5 LT AND OR ISZERO PUSH2 0x1BE0 JUMPI DUP3 DUP3 EXP SWAP1 POP DUP4 DUP2 GT ISZERO PUSH2 0x1BDB JUMPI PUSH2 0x1BDA PUSH2 0x1678 JUMP JUMPDEST JUMPDEST PUSH2 0x1C0A JUMP JUMPDEST PUSH2 0x1BED DUP5 DUP5 DUP5 PUSH1 0x1 PUSH2 0x1AEE JUMP JUMPDEST SWAP3 POP SWAP1 POP DUP2 DUP5 DIV DUP2 GT ISZERO PUSH2 0x1C04 JUMPI PUSH2 0x1C03 PUSH2 0x1678 JUMP JUMPDEST JUMPDEST DUP2 DUP2 MUL SWAP1 POP JUMPDEST SWAP4 SWAP3 POP POP POP JUMP JUMPDEST PUSH0 PUSH2 0x1C1B DUP3 PUSH2 0x13B0 JUMP JUMPDEST SWAP2 POP PUSH2 0x1C26 DUP4 PUSH2 0x1606 JUMP JUMPDEST SWAP3 POP PUSH2 0x1C53 PUSH32 0xFFFFFFFFFFFFFFFFFFFFFFFFFFFFFFFFFFFFFFFFFFFFFFFFFFFFFFFFFFFFFFFF DUP5 DUP5 PUSH2 0x1B40 JUMP JUMPDEST SWAP1 POP SWAP3 SWAP2 POP POP JUMP JUMPDEST PUSH0 PUSH1 0x40 DUP3 ADD SWAP1 POP PUSH2 0x1C6E PUSH0 DUP4 ADD DUP6 PUSH2 0x1750 JUMP JUMPDEST PUSH2 0x1C7B PUSH1 0x20 DUP4 ADD DUP5 PUSH2 0x143F JUMP JUMPDEST SWAP4 SWAP3 POP POP POP JUMP INVALID LOG2 PUSH5 0x6970667358 0x22 SLT KECCAK256 CREATE2 0x2C DUP12 0xB4 EXTCALL SWAP13 SWAP3 0xA6 MSTORE8 0xDC SWAP11 0xCA DELEGATECALL DUPN 0x16 POP PUSH2 0x159 0xB6 0xC EXTCODECOPY PUSH2 0x750D 0xDF SUB 0xA9 EXTCODESIZE 0x4D RETURNDATASIZE LOG4 PUSH5 0x736F6C6343 STOP ADDMOD 0x1E STOP CALLER "
				},
				"gasEstimates": {
					"creation": {
						"codeDepositCost": "1470400",
						"executionCost": "infinite",
						"totalCost": "infinite"
					},
					"external": {
						"BANK_MANAGER_ROLE()": "413",
						"DEFAULT_ADMIN_ROLE()": "374",
						"USDC_DECIMALS()": "398",
						"balances(address,address)": "infinite",
						"bankCapUSD()": "2471",
						"depositETH()": "infinite",
						"depositToken(address,uint256)": "infinite",
						"getRoleAdmin(bytes32)": "infinite",
						"grantRole(bytes32,address)": "infinite",
						"hasRole(bytes32,address)": "3231",
						"priceFeed()": "infinite",
						"renounceRole(bytes32,address)": "infinite",
						"revokeRole(bytes32,address)": "infinite",
						"supportsInterface(bytes4)": "741",
						"totalDepositedUSD()": "2469",
						"updateBankCap(uint256)": "infinite",
						"withdrawETH(uint256)": "infinite",
						"withdrawToken(address,uint256)": "infinite"
					},
					"internal": {
						"_convertETHToUSD(uint256)": "infinite",
						"_convertToUSDCDecimals(address,uint256)": "infinite"
					}
				},
				"methodIdentifiers": {
					"BANK_MANAGER_ROLE()": "f2157052",
					"DEFAULT_ADMIN_ROLE()": "a217fddf",
					"USDC_DECIMALS()": "c1419def",
					"balances(address,address)": "c23f001f",
					"bankCapUSD()": "18c8cfbe",
					"depositETH()": "f6326fb3",
					"depositToken(address,uint256)": "338b5dea",
					"getRoleAdmin(bytes32)": "248a9ca3",
					"grantRole(bytes32,address)": "2f2ff15d",
					"hasRole(bytes32,address)": "91d14854",
					"priceFeed()": "741bef1a",
					"renounceRole(bytes32,address)": "36568abe",
					"revokeRole(bytes32,address)": "d547741f",
					"supportsInterface(bytes4)": "01ffc9a7",
					"totalDepositedUSD()": "eea88c51",
					"updateBankCap(uint256)": "5151b68c",
					"withdrawETH(uint256)": "f14210a6",
					"withdrawToken(address,uint256)": "9e281a98"
				}
			},
			"storageLayout": {
				"storage": [
					{
						"astId": 73,
						"contract": "src/KipuBankV2.sol:KipuBankV2",
						"label": "_roles",
						"offset": 0,
						"slot": "0",
						"type": "t_mapping(t_bytes32,t_struct(RoleData)68_storage)"
					},
					{
						"astId": 436,
						"contract": "src/KipuBankV2.sol:KipuBankV2",
						"label": "_status",
						"offset": 0,
						"slot": "1",
						"type": "t_uint256"
					},
					{
						"astId": 658,
						"contract": "src/KipuBankV2.sol:KipuBankV2",
						"label": "bankCapUSD",
						"offset": 0,
						"slot": "2",
						"type": "t_uint256"
					},
					{
						"astId": 660,
						"contract": "src/KipuBankV2.sol:KipuBankV2",
						"label": "totalDepositedUSD",
						"offset": 0,
						"slot": "3",
						"type": "t_uint256"
					},
					{
						"astId": 666,
						"contract": "src/KipuBankV2.sol:KipuBankV2",
						"label": "balances",
						"offset": 0,
						"slot": "4",
						"type": "t_mapping(t_address,t_mapping(t_address,t_uint256))"
					}
				],
				"types": {
					"t_address": {
						"encoding": "inplace",
						"label": "address",
						"numberOfBytes": "20"
					},
					"t_bool": {
						"encoding": "inplace",
						"label": "bool",
						"numberOfBytes": "1"
					},
					"t_bytes32": {
						"encoding": "inplace",
						"label": "bytes32",
						"numberOfBytes": "32"
					},
					"t_mapping(t_address,t_bool)": {
						"encoding": "mapping",
						"key": "t_address",
						"label": "mapping(address => bool)",
						"numberOfBytes": "32",
						"value": "t_bool"
					},
					"t_mapping(t_address,t_mapping(t_address,t_uint256))": {
						"encoding": "mapping",
						"key": "t_address",
						"label": "mapping(address => mapping(address => uint256))",
						"numberOfBytes": "32",
						"value": "t_mapping(t_address,t_uint256)"
					},
					"t_mapping(t_address,t_uint256)": {
						"encoding": "mapping",
						"key": "t_address",
						"label": "mapping(address => uint256)",
						"numberOfBytes": "32",
						"value": "t_uint256"
					},
					"t_mapping(t_bytes32,t_struct(RoleData)68_storage)": {
						"encoding": "mapping",
						"key": "t_bytes32",
						"label": "mapping(bytes32 => struct AccessControl.RoleData)",
						"numberOfBytes": "32",
						"value": "t_struct(RoleData)68_storage"
					},
					"t_struct(RoleData)68_storage": {
						"encoding": "inplace",
						"label": "struct AccessControl.RoleData",
						"members": [
							{
								"astId": 65,
								"contract": "src/KipuBankV2.sol:KipuBankV2",
								"label": "hasRole",
								"offset": 0,
								"slot": "0",
								"type": "t_mapping(t_address,t_bool)"
							},
							{
								"astId": 67,
								"contract": "src/KipuBankV2.sol:KipuBankV2",
								"label": "adminRole",
								"offset": 0,
								"slot": "1",
								"type": "t_bytes32"
							}
						],
						"numberOfBytes": "64"
					},
					"t_uint256": {
						"encoding": "inplace",
						"label": "uint256",
						"numberOfBytes": "32"
					}
				}
			},
			"userdoc": {
				"kind": "user",
				"methods": {},
				"notice": "Upgraded version of KipuBank with multi-token support, Chainlink oracle integration,         role-based access control, and improved accounting and security.",
				"version": 1
			}
		}
	}
}